:020000022000DC
:106000000000012019620200016202000362020026
:10601000056202000762020009620200000000003F
:106020000000000000000000000000000B62020001
:106030000D620200000000000F6202001162020007
:1060400051D402001362020071E1020059ED020016
:10605000B9FC0200136202006DE00200136202004C
:106060001362020013620200136202001362020054
:106070001362020013620200136202001362020044
:106080001362020059290300136202001362020026
:1060900013620200136202009D710300136202008A
:1060A0001362020013620200136202001362020014
:1060B00013620200136202000000000000000000F2
:1060C00013620200136202001362020013620200F4
:1060D000136202001362020013620200000000005B
:1060E00000000000000000000000000000000000B0
:1060F00000000000000000000000000000000000A0
:10610000000000000000000000000000000000008F
:10611000000000000000000000000000000000007F
:10612000000000000000000000000000000000006F
:10613000000000000000000000000000000000005F
:10614000000000000000000000000000000000004F
:10615000000000000000000000000000000000003F
:10616000000000000000000000000000000000002F
:10617000000000000000000000000000000000001F
:10618000000000000000000000000000000000000F
:1061900000000000000000000000000000000000FF
:1061A00000000000000000000000000000000000EF
:1061B00000000000000000000000000000000000DF
:1061C00000000000000000000000000000000000CF
:1061D00000000000000000000000000000000000BF
:1061E00000000000000000000000000000000000AF
:1061F000000000000000000000000000000000009F
:10620000FEE7FEE7FEE7FEE7FEE7FEE7FEE7FEE766
:10621000FEE7FEE700F002B8FFF7FCBF0F484FF0C3
:106220000701884385460E4880470E48016841F4BF
:1062300070010160BFF34F8FBFF36F8F00F01AB88A
:1062400009480A490A4A884207D0521A05D00378F9
:1062500001300B700131013AF9D170470000012083
:1062600061A4020088ED00E0247A0300F0540020CD
:106270000455002039493A480A1A02D007229143AE
:106280008D46384938480A1A06D00722914381F3CF
:106290000988022282F3148834483549354A00F0CF
:1062A0003EF835483549364A00F039F83548364920
:1062B000364A00F034F836483649374A00F02FF8AD
:1062C00036483749374A00F02AF837483749384ABC
:1062D00000F025F837483849384A00F020F83848A7
:1062E0003849002200F033F837483849002200F0DE
:1062F0002EF837483749091A11F0ECF9364A904719
:1063000024482549884205D00268043003B49047E8
:1063100003BCF7E700200021304A9047FEE788429F
:1063200014D0521A12D003460B43134303242342C2
:1063300006D1036804300B600431043AF9D1704788
:10634000037801300B700131013AF9D1704788426E
:1063500002D002700130FAE770470000000001200F
:1063600000E00020000001200000012090B10300A7
:1063700004550020E4550020E0630200E0630200C1
:10638000F878030090B10300045500200455002064
:10639000387A0300387A0300387A0300387A030029
:1063A000387A0300387A0300387A0300387A030019
:1063B0008DB1030070B20300E4550020F8550020B1
:1063C000FC55002010660020F8550020FC550020E8
:1063D000106600201086002041620200259B02000A
:1063E00000B585B00190019B002B0AD0074B43F00C
:1063F00001030393019B9B010293039B029898471F
:1064000000E000BF05B05DF804FB00BF407E030064
:1064100000B583B00190019B0433184608F0A6FA3A
:1064200000BF03B05DF804FB00B58FB0039002918C
:10643000009313468DF8073000230D93029B0993B8
:106440009DF807300A93009B0B939DF840300C9306
:10645000039B043309A90022184608F0D5FB0D90D0
:106460000D9B18460FB05DF804FB00B583B001909A
:10647000019B002B0AD04FF47A70FFF7B1FF019B0C
:10648000013B0193019B002BF5D100E000BF03B05D
:106490005DF804FB00B583B00190019B1B681846B2
:1064A00000F04CF80346002B04D105494FF4F67078
:1064B00003F018F84FF0A043184603B05DF804FB52
:1064C000387A030000B585B0019001AB1846FFF79C
:1064D000E1FF0390019B012202FA03F3194603989E
:1064E00000F018F800BF05B05DF804FB00B585B0FA
:1064F000019001AB1846FFF7CDFF0390019B0122ED
:1065000002FA03F31946039800F00EF800BF05B035
:106510005DF804FB82B001900091019B009AC3F8E2
:10652000082500BF02B0704782B001900091019B26
:10653000009AC3F80C2500BF02B0704784B00190E8
:10654000019B5B09029300230393029B002B03D161
:106550004FF0FF33039300BF019B03F01F03019330
:10656000039A019B22FA03F303F00103DBB21846FE
:1065700004B0704782B001900091019B002B02D0C3
:10658000009B002B00E000BF02B0704700B585B053
:1065900001900091019B002B6ED0009B002B6BD0D3
:1065A000009B14331A78009B143302F02002D2B2FD
:1065B0001A70019B1B78002B08D1009B14331A78AA
:1065C000009B143342F02002D2B21A7000238DF8DF
:1065D0000F30019BDB788DF80E309DF80E30082BC4
:1065E00002D908238DF80E3000238DF80D301AE003
:1065F0009DF80D300433009A13441B788DF80C304D
:106600009DF90C30002B09DB9DF80C3003F00703DB
:10661000052B03D101238DF80F300AE09DF80D30D2
:1066200001338DF80D309DF80D209DF80E309A4203
:10663000DED39DF80F30002B1FD0009B01331B7859
:1066400003F01003002B18D1009B01331A78009B34
:10665000013342F01002D2B21A70094A094BD31A20
:10666000DB081B0443F00200019B1B7801331A4630
:1066700005490FF01BFD00E000BF05B05DF804FB0D
:10668000A47903006C790300687A0300022318469A
:106690007047000010B588B00190204B02AC0FCBC2
:1066A00084E80F0000238DF81530019B049302232A
:1066B0008DF80C3001238DF814300C238DF80A303E
:1066C0000D238DF8083010238DF80930FF238DF845
:1066D0000B3000238DF80D3002A900230022104852
:1066E00006F0AEFA0790079B082B09D10C48FFF77C
:1066F0008FFE02A900230022094806F0A1FA0790A4
:10670000079B0693069B002B04D0064AAE210698F1
:106710000AF0A6FF00BF08B010BD00BF0C7B03004D
:10672000147E0300A07A030000B589B0059004919F
:10673000029313468DF80F30059B002B01D10E23D9
:106740001FE09DF80F30002B05D19DF82830002B5D
:1067500001D1092315E0059B5B781846FFF7C6FEBB
:106760009DF80F209DF828300093029B049907485C
:10677000FFF75AFE0790059B5B781846FFF7A2FECD
:10678000079B184609B05DF804FB00BF147E0300A8
:1067900008B50A20FFF796FE0A20FFF721FE064AF9
:1067A000064BD31ADB081B0443F0030304491846C5
:1067B0000FF06EFC00BF08BDA47903006C790300E4
:1067C0001C7B030008B50A20FFF790FE064A074B22
:1067D000D31ADB081B0443F00303054918460FF0E6
:1067E00057FC00BF08BD00BFA47903006C7903000B
:1067F0004C7B030000B585B003468DF807304FF0A1
:10680000805303939DF80730082B29D801A252F832
:1068100023F000BF396802004168020049680200A5
:10682000616802005168020061680200616802004C
:1068300061680200596802004FF0006303931DE095
:106840004FF08053039319E04FF00053039315E08A
:106850004FF08043039311E04FF0004303930DE0AA
:10686000104A114BD31ADB081B0443F002039DF8B6
:1068700007200E4918460FF019FC00BF0398FFF7D8
:1068800009FF084A084BD31ADB081B0443F0030333
:106890009DF80720064918460FF008FC00BF05B018
:1068A0005DF804FBA47903006C790300B47B03005A
:1068B000F47B030010B582B008238DF805302E4B11
:1068C00000221A702C4B0E225A702B4B00229A7009
:1068D000294B0022A3F89020274B002283F8922016
:1068E000254A9DF80530D37000238DF807300BE062
:1068F0009DF80730204A1C33002142F823109DF8F0
:10690000073001338DF807309DF80730072BEFD99A
:1069100000238DF8063025E09DF80640F02010F0A9
:10692000F8FE03461946144A04F11C0342F82310EA
:106930009DF80630104A1C3352F82330002B14BF48
:1069400001230023DBB20093009B002B05D10B4AEF
:106950004FF4977100200AF083FE9DF80630013352
:106960008DF80630044BDB789DF806209A42D3D38D
:1069700000BF00BF02B010BD94560020A07A0300F3
:1069800008B50F20FFF7B2FD1420FFF729FD064AD6
:10699000064BD31ADB081B0443F0030304491846D3
:1069A0000FF076FB00BF08BDA47903006C790300EB
:1069B000247C030008B50F20FFF784FD9620FFF725
:1069C00054FD064A064BD31ADB081B0443F00303AD
:1069D000044918460FF05CFB00BF08BDA479030012
:1069E0006C790300607C030000B587B0039002233C
:1069F0008DF813300DF113010023009300230122C1
:106A00000398FFF791FE0590059B002B05D00C4ADB
:106A10004FF4C67105980AF023FE0A20FFF725FD02
:106A2000084A094BD31ADB081B0443F00303074948
:106A300018460FF02DFB00BF07B05DF804FB00BF48
:106A4000A07A0300A47903006C7903008C7C030016
:106A500000B587B0039006238DF813300DF11301B4
:106A600000230093002301220398FFF75DFE0590A9
:106A7000059B002B05D00C4A4FF4CC7105980AF009
:106A8000EFFD0A20FFF7F1FC084A094BD31ADB0897
:106A90001B0443F00303074918460FF0F9FA00BF3F
:106AA00007B05DF804FB00BFA07A0300A4790300DF
:106AB0006C7903009C7C030000B587B00390112320
:106AC0008DF813300DF113010023009300230122F0
:106AD0000398FFF729FE0590059B002B05D00C4A73
:106AE00040F2AF1105980AF0BBFD0320FFF778FCD8
:106AF000084A094BD31ADB081B0443F00303074978
:106B000018460FF0C5FA00BF07B05DF804FB00BFE0
:106B1000A07A0300A47903006C790300D87C0300F9
:106B200000B587B0039010238DF813300DF11301D9
:106B300000230093002301220398FFF7F5FD059041
:106B4000059B002B05D00C4A40F2BB1105980AF0BA
:106B500087FD0320FFF744FC084A094BD31ADB08E2
:106B60001B0443F00303074918460FF091FA00BFD6
:106B700007B05DF804FB00BFA07A0300A47903000E
:106B80006C790300F47C030000B58BB0039004AB78
:106B900000221A605A60FFF779FD03468DF827300E
:106BA00020238DF8183000238DF8193000238DF83C
:106BB0001A309DF827300133DBB204AA06A90093EE
:106BC000134603220398FFF7AFFD0890089B002BA4
:106BD00005D02F4A4FF4E77108980AF041FD9DF85F
:106BE000273028336B4413F8183C8DF81F309DF87C
:106BF0001F3003F01F031C2B0CBF012300238DF853
:106C00001E309DF81F3003F01F031D2B0CBF012306
:106C100000238DF81D309DF81F3003F01F031E2B3D
:106C20000CBF012300238DF81C309DF81F305B0939
:106C30008DF81B309DF81C30002B07D19DF81D30BE
:106C4000002B03D19DF81E30002B0ED0114A124BA1
:106C5000D31ADB081B0443F003009DF81F209DF8A6
:106C60001B300E490FF033FA0DE00A4A0A4BD31AD3
:106C7000DB081B0443F001039DF81F200849184658
:106C80000FF014FA00BF00BF0BB05DF804FB00BFAB
:106C9000A07A0300A47903006C790300107D03003F
:106CA000387D030000B58DB003900291039B002B4B
:106CB00047D0029B002B44D0039B18331722029924
:106CC000184610F049FD039B183319460398FFF747
:106CD00051FC039B183319460398FFF757FC4123D7
:106CE0008DF8103016238DF81130039B03F1180135
:106CF00004AB02331722184610F02EFD04A900231E
:106D00000093002319220398FFF70EFD0B900B9BB5
:106D1000002B05D00D4A40F2F9110B980AF0A0FCA7
:106D20000520FFF75DFB0A4A0A4BD31ADB081B0458
:106D300043F00300039B5B781A4607490FF0B6F94E
:106D400000E000BF0DB05DF804FB00BFA07A0300B7
:106D5000A47903006C7903005C7D030030B58DB02D
:106D60000390039B002B54D0039B18332A4A1C46E4
:106D700015460FCD20606160A260E3602868206145
:106D8000AB88AA79A3821346A375039B18331946CF
:106D90000398FFF7EFFB039B1B78002B03D1039BAA
:106DA000202283F82C20039B183319460398FFF701
:106DB000EDFB41238DF8103016238DF81130039B25
:106DC00003F1180104AB02331722184610F0C4FC7B
:106DD00004A900230093002319220398FFF7A4FCC1
:106DE0000B900B9B002B05D00C4A4FF40A710B98AB
:106DF0000AF036FC0520FFF7F3FA094A094BD31ACB
:106E0000DB081B0443F00303074918460FF040F961
:106E100000E000BF0DB030BD247E0300A07A030067
:106E2000A47903006C790300987D030000B595B048
:106E30000390039B002B79D0FFF728FC03468DF8C5
:106E40004F309DF84F3017338DF84E300BAB00228A
:106E50001A605A609A60DA601A615A611A8304AB48
:106E600000221A605A609A60DA601A615A611A83C5
:106E700021238DF82C3016238DF82D3004A89DF891
:106E80004E200BA99DF84E30009303460398FFF760
:106E90004BFC1290129B002B05D0264A4FF4107128
:106EA00012980AF0DDFB00238DF84D3000238DF899
:106EB0004C3019E09DF84F209DF84C30134450336E
:106EC0006B4413F8402C9DF84C3003990B441B7E07
:106ED0009A4204D09DF84D3001338DF84D309DF825
:106EE0004C3001338DF84C309DF84C30162BE1D9E5
:106EF0009DF84D30002B0DD00F4A104BD31ADB08F4
:106F00001B0443F002039DF84D200D4918460FF075
:106F1000CDF80CE0084A094BD31ADB081B0443F0F8
:106F20000303084918460FF0B3F800E000BF15B09E
:106F30005DF804FBA07A0300A47903006C790300D8
:106F4000C07D0300F07D030000B589B00390039B72
:106F5000002B5AD0039BDB78002B56D0039BDB78A9
:106F6000082B52D8039B1B78002B01D12A4B00E041
:106F70002A4B0693039BB3F89030ED2B47D81B2286
:106F80000021069810F01AFC1B230093069B002298
:106F900000210398FFF7C8FB0590059B002B05D047
:106FA0001F4A40F29E2105980AF05AFB0023ADF8D3
:106FB0001E301AE0BDF81E20039B1C3253F822300D
:106FC000039AB2F890209818BDF81E305A1C134648
:106FD0005B001344069A13440322194610F0BCFBCD
:106FE000BDF81E300133ADF81E30039BDB781A4626
:106FF000BDF81E309342DDD3039BB3F890300333CA
:107000009AB2039BA3F8902002E000BF00E000BF0B
:1070100009B05DF804FB00BFFC55002018560020A5
:10702000A07A0300A8DF704700BF1846AADF7047A8
:1070300000BF1846ACDF704700BF1846AEDF704790
:1070400000BF184662DF704700BF184600B583B026
:1070500001904EF6F1620021019800F0DCF9034640
:10706000184603B05DF804FB00B583B001904EF6FE
:10707000F2620121019800F0CEF90346184603B0F0
:107080005DF804FB00B583B001904EF6F362022177
:10709000019800F0C0F90346184603B05DF804FB00
:1070A00000B583B001904EF6F4620321019800F020
:1070B000B2F90346184603B05DF804FB00B583B08F
:1070C00001904EF6F5620421019800F0A4F9034600
:1070D000184603B05DF804FB00B583B001904EF68E
:1070E000F6620521019800F096F90346184603B0B0
:1070F0005DF804FB00B583B001904EF6F7620621FF
:10710000019800F088F90346184603B05DF804FBC7
:1071100000B583B001904EF6F8620721019800F0A7
:107120007AF90346184603B05DF804FB84B0019079
:10713000019B002B01D1002317E0019BDB788DF828
:107140000F309DF80F30002B06D108238DF80E303C
:107150009DF80E308DF80F309DF80F30082B02D9B6
:1071600008238DF80F309DF80F30184604B0704793
:1071700010B584B001900091009B06330393039BEC
:107180001A88019B5B899A4221D1019B5B69002B84
:107190001DD0039B5B89172B0ED00E4A0E4BD31AC2
:1071A000DB081B0443F00200039B5B891A4617238C
:1071B0000A490EF08CFF0AE0019B5C69009B9888ED
:1071C000039B03F10C02039B5B890199A04704B068
:1071D00010BD00BFA47903006C790300687E030032
:1071E00000B583B001900091009B1B88502B10D0FC
:1071F000502B13DC102B02D0112B05D00EE0009B7E
:107200009A88019BDA800AE0019B4FF6FF72DA80D0
:1072100005E000990198FFF7ABFF00E000BF00BF59
:1072200003B05DF804FB000000B585B00291019247
:107230001A460346ADF80E301346ADF80C30029BEB
:10724000002B06D0019B002B03D0BDF80C30172B70
:107250000DD0174A174BD31ADB081B0443F002006A
:10726000019ABDF80C3014490EF031FF1DE0104AB0
:10727000104BD31ADB081B0443F003030F491846D5
:107280000EF006FF0298FFF717FC01990298FFF72E
:1072900009FD0298FFF7CAFD0121029800F03CFAAF
:1072A000FFF776FA0298FFF73BFC05B05DF804FBA8
:1072B000A47903006C7903009C7E0300CC7E03005C
:1072C00000B593B001900BAB1C220021184610F0C2
:1072D00075FA03AB03220021184610F06FFA9DF8EF
:1072E0000C30012262F303038DF80C309DF80C3052
:1072F000012262F307138DF80C309DF80D30012246
:1073000062F303038DF80D309DF80D30012262F316
:1073100007138DF80D309DF80E30012262F3420301
:107320008DF80E309DF82C3043F002038DF82C3090
:107330009DF82C3043F008038DF82C309DF82C304C
:1073400043F010038DF82C3003AB109301238DF81C
:1073500016304EF6FF63ADF8143004AB0322002163
:10736000184610F02BFA9DF81030012262F3030347
:107370008DF810309DF81030012262F307138DF85C
:1073800010309DF81130012262F303038DF81130A3
:107390009DF81130012262F307138DF811309DF82A
:1073A0001230012262F342038DF812309DF8123040
:1073B00023F008038DF812309DF8123023F01003EB
:1073C0008DF812309DF8123043F001038DF8123021
:1073D00006AB14220021184610F0F0F905AB069315
:1073E00004AB07931723ADF820300023ADF822300B
:1073F0001723ADF82430019B18330A93019B188999
:10740000019B0A3306AA0BA9FFF710FE0346184694
:1074100013B05DF804FB00B5CFB04EABA3F59A7383
:107420001860084611464EABA3F2351302461A7097
:107430004EABA3F59C730A461A8012ABF0220021D2
:10744000184610F0BBF94EABA3F59A731B681B7876
:10745000012B09D14EABA3F59C734EAAA2F59C72E9
:10746000128842F480721A8001238DF846304EABA8
:10747000A3F59C731B88ADF844300AAB1C22002195
:10748000184610F09BF94EABA3F58872137843F0C1
:10749000020313704EABA3F58872137823F0080330
:1074A00013704EABA3F58872137843F0100313707A
:1074B00009AB03220021184610F080F94EABA3F56A
:1074C0008A721378012161F3030313704EABA3F5A5
:1074D0008A721378012161F3071313704EABA3F581
:1074E0008A725378012161F3030353704EABA3F505
:1074F0008A725378012161F3071353704EABA3F5E1
:107500008A729378012161F3420393704EABA3F525
:10751000887309AA5A6108AB03220021184610F0AB
:107520004DF94EABA3F58C721378012161F303037F
:1075300013704EABA3F58C721378012161F307131E
:1075400013704EABA3F58C725378012161F30303E2
:1075500053704EABA3F58C725378012161F307137E
:1075600053704EABA3F58C729378012161F3420303
:1075700093704EABA3F58C72937843F00103937034
:1075800003AB14220021184610F018F94EABA3F5F6
:10759000967311AA1A604EABA3F5967308AA5A60A7
:1075A0004EABA3F59673F0221A814EABA3F59673FA
:1075B00000225A814EABA3F59673F0229A814EAB0E
:1075C000A3F5967312AA1A614EABA3F59A731B68C2
:1075D00018894EABA3F235131B784EAAA2F59A7206
:1075E0000633DB001268134403AA0AA9FFF71EFD45
:1075F000034618464FB05DF804FB000010B58EB08E
:1076000001900091019B002B7DD0009B002B7AD034
:107610003E4B02AC0FCB84E80F000198FFF786FDCC
:1076200003468DF83630019B9DF83620DA70019BB9
:107630004FF6FF72DA80009B1A68019B5A61019B2A
:107640001A1D02AB11461846FFF7FCFC0C900C9B70
:107650000B930B9B002B05D02D4A4FF497710B9881
:1076600009F0FEFF019B1B798DF81A304FF450731F
:10767000ADF818300DF11E0206AB19460120FFF7D8
:10768000D1FC0C900C9B0A930A9B002B05D0204A3E
:107690004FF49A710A9809F0E3FFBDF81E20019B90
:1076A0001A810198FFF70CFE0C900C9B0993099B23
:1076B000002B05D0164A40F23911099809F0D0FF85
:1076C00000238DF8373017E09DF83730114A52F813
:1076D0002330019898470C900C9B0893089B002B33
:1076E00005D00B4A40F23F11089809F0B9FF9DF808
:1076F000373001338DF837309DF837209DF836301C
:107700009A42E1D300E000BF0EB010BD507F0300ED
:10771000E87E0300487E030000B58BB001900B4665
:107720008DF80330019B002B44D01723ADF8223095
:10773000019BDB884FF6FF7293423CD0BDF82230AC
:10774000ADF818300023ADF81A30019B18330793B9
:10775000019BD888019B5B8906AA1946FFF76AFC42
:107760000990164A164BD31ADB081B0443F0030397
:10777000099A144918460EF099FC9DF80330002B25
:1077800019D0019B5B89ADF8083001238DF80A30D0
:107790000023ADF80C300DF122030493019B183344
:1077A0000593019BDB8802AA11461846FFF746FCA9
:1077B000099000E000BF0BB05DF804FBA479030062
:1077C0006C790300607F030010B58CB00390002338
:1077D0000A93039B002B05D0039BDB884FF6FF72B7
:1077E000934201D10E23D2E00398FFF79FFC03469A
:1077F0008DF827309DF82730002B01D10723C6E0F4
:10780000039B93F892309DF82720B3FBF2F101FB24
:1078100002F29B1A8DF826309DF826308DF82F3015
:1078200000238DF82E3000238DF82D3090E09DF848
:1078300026209DF82D3013449DF8272093FBF2F16C
:1078400001FB02F29B1A8DF825309DF82520039B41
:107850001C3253F82230002B72D09DF82520039B58
:10786000063233F83230002B6CD0F023ADF82230E2
:107870009DF82520039B063233F83230ADF81030E6
:1078800001238DF812300023ADF814300DF12203DE
:1078900006939DF82520039B1C3253F82230079352
:1078A000039BDB8804AA11461846FFF7C7FB0A9022
:1078B0000A9B002B19D0374A374BD31ADB081B041D
:1078C00043F00200039B1B7819469DF82520BDF864
:1078D000223001930A9B009313460A462F490EF06B
:1078E00020FC0A9B132B1BD139E0BDF82230F02B72
:1078F00016D0284A284BD31ADB081B0443F0020099
:10790000039B1B781C469DF82530BDF822201146AC
:10791000F02201920091224621490EF002FC1EE065
:107920009DF8253001339DF82720B3FBF2F101FBD0
:1079300002F29B1A8DF82F3001238DF82E3002E0D1
:1079400000BF00E000BF9DF82D3001338DF82D30D1
:107950009DF82D209DF827309A42FFF468AF9DF8DE
:107960002E30002B05D0039B9DF82F2083F892200A
:107970000DE09DF8263001339DF82720B3FBF2F18E
:1079800001FB02F29B1ADAB2039B83F8922018469D
:107990000CB010BDA47903006C790300D47F030000
:1079A00000800300A8DF704700BF1846AADF7047B9
:1079B00000BF1846ACDF704700BF1846AEDF704707
:1079C00000BF184662DF704700BF184600B585B09B
:1079D00001900091009B06330393039B1A88019B3F
:1079E000DB889A420FD1039B5B89002B0BD0019B54
:1079F0001B6B002B07D0019B1B6B009A9088039A8E
:107A00000C320199984700BF05B05DF804FB0000F7
:107A100000B583B001900091019B002B32D0009BF8
:107A2000002B2FD0009B1B88502B26D0502B2BDCFB
:107A3000102B02D0112B10D026E0009B9A88019BBE
:107A40005A80134A134BD31ADB081B0443F0030379
:107A5000114918460EF01CFB17E0019B4FF6FF7210
:107A60005A800B4A0B4BD31ADB081B0443F0030369
:107A70000A4918460EF00CFB07E000990198FFF741
:107A8000A5FF02E000BF00E000BF03B05DF804FB0B
:107A9000A47903006C790300308003004C8003005C
:107AA00000B585B0034602910192ADF80E30029BFD
:107AB000002B56D0019B002B53D02C4A2C4BD31AB1
:107AC000DB081B0443F00300019B1B781A4629497D
:107AD0000EF0ECFA019B1A78029B83F83420019B8C
:107AE0001B78032B1ED0032B28DC012B02D0022B8A
:107AF0000CD023E01D4A1E4BD31ADB081B0443F0B5
:107B000003031D4918460EF0C3FA25E0174A184B27
:107B1000D31ADB081B0443F00303184918460EF080
:107B2000B7FA19E0114A124BD31ADB081B0443F0D1
:107B30000303134918460EF0ABFA0DE00B4A0C4B49
:107B4000D31ADB081B0443F00300019B1B781A4681
:107B50000C490EF0ABFA00BF0121029800F012FCB4
:107B600000E000BF05B05DF804FB00BFA47903008E
:107B70006C7903006C80030090800300A8800300F0
:107B8000BC800300D080030000B593B00190009149
:107B90000BAB1C22002118460FF010FE03AB032292
:107BA000002118460FF00AFE9DF80C30012262F306
:107BB00003038DF80C309DF80C30012262F307139B
:107BC0008DF80C309DF80D30012262F303038DF81F
:107BD0000D309DF80D30012262F307138DF80D3042
:107BE0009DF80E30012262F342038DF80E309DF8AD
:107BF0002C3043F002038DF82C309DF82C3043F0EC
:107C000008038DF82C309DF82C3043F010038DF8CC
:107C10002C3003AB109301238DF8163041F6FF434F
:107C2000ADF8143004AB0322002118460FF0C6FD56
:107C30009DF81030012262F303038DF810309DF897
:107C40001030012262F307138DF810309DF81130C7
:107C5000012262F303038DF811309DF811300122E7
:107C600062F307138DF811309DF81230012262F390
:107C700042038DF812309DF8123023F008038DF87E
:107C800012309DF8123023F010038DF812309DF859
:107C9000123043F001038DF8123006AB142200219C
:107CA00018460FF08BFD05AB069304AB0793082332
:107CB000ADF820300023ADF822300823ADF8243091
:107CC000019B34330A93019B9888019B063306AAD3
:107CD0000BA9FFF76BFE0346184613B05DF804FBD3
:107CE00000B5ADB0019000232B9310AB64220021AE
:107CF00018460FF063FD01238DF8A63041F6F143DD
:107D0000ADF8A43009AB1C22002118460FF056FD37
:107D10009DF8243043F002038DF824309DF8243080
:107D200043F010038DF824309DF82030012262F3D7
:107D300003038DF820309DF82030012262F30713F1
:107D40008DF820309DF82130012262F303038DF875
:107D500021309DF82130012262F307138DF8213084
:107D60009DF82230012262F342038DF8223008ABE5
:107D70000E9307AB0322002118460FF01FFD9DF85C
:107D80001E30012262F342038DF81E309DF81E3032
:107D900043F001038DF81E309DF81C30012262F380
:107DA00003038DF81C309DF81C30012262F3071389
:107DB0008DF81C309DF81D30012262F303038DF80D
:107DC0001D309DF81D30012262F307138DF81D3020
:107DD00002AB1422002118460FF0F0FC29AB0293ED
:107DE00007AB03936423ADF810300023ADF81230D5
:107DF0006423ADF8143010AB0693019B9888019B67
:107E00000E3302AA09A9FFF7D1FD2B902B9B2A93D1
:107E10002A9B002B04D0054AF1212A9809F020FC66
:107E2000002318462DB05DF804FB00BFEC80030072
:107E300000B5ADB0019000232B9310AB642200215C
:107E400018460FF0BBFC01238DF8A63041F6F24333
:107E5000ADF8A43009AB1C22002118460FF0AEFC8F
:107E60009DF8243043F002038DF824309DF824302F
:107E700043F010038DF824309DF82030012262F386
:107E800003038DF820309DF82030012262F30713A0
:107E90008DF820309DF82130012262F303038DF824
:107EA00021309DF82130012262F307138DF8213033
:107EB0009DF82230012262F342038DF8223008AB94
:107EC0000E9307AB0322002118460FF077FC9DF8B4
:107ED0001E30012262F342038DF81E309DF81E30E1
:107EE00043F001038DF81E309DF81C30012262F32F
:107EF00003038DF81C309DF81C30012262F3071338
:107F00008DF81C309DF81D30012262F303038DF8BB
:107F10001D309DF81D30012262F307138DF81D30CE
:107F200002AB1422002118460FF048FC29AB029343
:107F300007AB03936423ADF810300023ADF8123083
:107F40006423ADF8143010AB0693019B9888019B15
:107F5000163302AA09A9FFF729FD2B902B9B2A9320
:107F60002A9B002B05D0054A4FF491712A9809F0FD
:107F700077FB002318462DB05DF804FBEC8003006E
:107F800000B59FB0019000231D9311AB2822002162
:107F900018460FF013FC01238DF86E3041F6F343C1
:107FA000ADF86C300AAB1C22002118460FF006FC1D
:107FB0009DF8283043F002038DF828309DF82830D2
:107FC00043F010038DF828309DF82430012262F32D
:107FD00003038DF824309DF82430012262F3071347
:107FE0008DF824309DF82530012262F303038DF8CB
:107FF00025309DF82530012262F307138DF82530D6
:108000009DF82630012262F342038DF8263009AB39
:108010000F9308AB0322002118460FF0CFFB9DF809
:108020002230012262F342038DF822309DF8223083
:1080300043F001038DF822309DF82030012262F3D5
:1080400003038DF820309DF82030012262F30713DE
:108050008DF820309DF82130012262F303038DF862
:1080600021309DF82130012262F307138DF8213071
:1080700003AB1422002118460FF0A0FB1BAB0393A7
:1080800008AB04932823ADF814300023ADF8163064
:108090002823ADF8183011AB0793019B9888019BFA
:1080A0001E3303AA0AA9FFF781FC1D901D9B1C9398
:1080B0001C9B002B05D0054A40F253111C9809F077
:1080C000CFFA002318461FB05DF804FBEC800300D4
:1080D00000B5D1B050ABA3F59E73186000234F9349
:1080E00011ABEE22002118460FF068FB01238DF83A
:1080F000363141F6F443ADF834310AAB1C2200218D
:1081000018460FF05BFB50ABA3F58C72137843F06D
:108110000203137050ABA3F58C72137843F0100375
:10812000137050ABA3F58E721378012161F3030332
:10813000137050ABA3F58E721378012161F307130E
:10814000137050ABA3F58E725378012161F30303D2
:10815000537050ABA3F58E725378012161F307136E
:10816000537050ABA3F58E729378012161F34203F3
:10817000937050ABA3F58C7309AA5A6108AB032224
:10818000002118460FF01AFB50ABA3F590729378BC
:10819000012161F34203937050ABA3F59072937881
:1081A00043F00103937050ABA3F590721378012153
:1081B00061F30303137050ABA3F5907213780121A0
:1081C00061F30713137050ABA3F59072537801213C
:1081D00061F30303537050ABA3F590725378012100
:1081E00061F30713537003AB1422002118460FF0FC
:1081F000E5FA50ABA3F59A734DAA1A6050ABA3F5FC
:108200009A7308AA5A6050ABA3F59A73EE221A81AA
:1082100050ABA3F59A7300225A8150ABA3F59A7321
:10822000EE229A8150ABA3F59A7311AA1A6150AB52
:10823000A3F59E731B68988850ABA3F59E731B68CB
:10824000263303AA0AA9FFF7B1FB4F904F9B4E9329
:108250004E9B002B05D0054A4FF4C2714E9809F091
:10826000FFF90023184651B05DF804FBEC800300D1
:1082700010B58CB0019000913C4B02AC0FCB84E860
:108280000F00019B002B02D0009B002B0BD1384A22
:10829000384BD31ADB081B0443F001033649184658
:1082A0000DF0F6FE60E0019B4FF6FF725A80009BD6
:1082B0001A68019B1A63019B5A1C02AB11461846AF
:1082C000FFF780FB0B900B9B0A930A9B002B05D0BA
:1082D0002A4A40F2A3110A9809F0C2F9019B5B787F
:1082E0008DF81A3041F6F043ADF818300DF11E024A
:1082F00006AB19460120FFF755FB0B900B9B09932A
:10830000099B002B05D01D4A40F2A911099809F0DC
:10831000A7F9BDF81E20019B9A8000990198FFF7EC
:1083200033FC0B900B9B0893089B002B05D0134A42
:1083300040F2AF11089809F093F90198FFF7D0FCCB
:108340000198FFF775FD0198FFF71AFE0198FFF7F6
:10835000BFFE074A074BD31ADB081B0443F0030395
:10836000074918460DF094FE0CB010BDB081030013
:10837000A47903006C79030054810300EC800300AE
:108380008881030000B58BB001900B468DF8033057
:10839000019B002B3AD0019B5B884FF6FF72934202
:1083A00034D00823ADF81C300023ADF81E30019BFB
:1083B00034330893019B5888019BDB8807AA194630
:1083C000FFF7F8FA09909DF80330002B1FD0099BA6
:1083D000002B1CD10823ADF81A30019BDB88ADF8C7
:1083E000083001238DF80A300023ADF80C300DF170
:1083F0001A030493019B34330593019B5B8802AA03
:1084000011461846FFF7DAFA099000E000BF0BB0FA
:108410005DF804FB00B589B00190019B002B35D0BD
:10842000019B5B884FF6FF7293422FD0019BB3F8FC
:108430002032002B2AD0019BB3F820321A46D200FA
:10844000D31A5B009BB2ADF81A30019BDB8CADF800
:10845000083001238DF80A300023ADF80C300DF1FF
:108460001A030493019B03F596730593019B5B88A4
:1084700002AA11461846FFF7A1FA0790079B002BA6
:1084800005D1019B0022A3F8202200E000BF09B023
:108490005DF804FB72DF704700BF184673DF70475A
:1084A00000BF184676DF704700BF184677DF704779
:1084B00000BF184678DF704700BF18467ADF704764
:1084C00000BF18468FDF704700BF184690DF704727
:1084D00000BF184669DF704700BF184600B589B075
:1084E0009DF80030012262F303038DF800309DF8FF
:1084F0000030012262F307138DF80030079B0693CA
:10850000069B002B04D0224A8A21069809F0A8F87D
:108510004FF45070FFF7CEFF0790079B0593059B24
:10852000002B04D01A4A8E21059809F099F801AB66
:108530000822002118460FF041F90623ADF8043057
:108540000C23ADF806300023ADF808304FF4C873A3
:10855000ADF80A3001AB1846FFF7B0FF0790079B54
:108560000493049B002B04D0094A9821049809F035
:1085700077F8079B0393039B002B04D0044A9921AF
:10858000039809F06DF800BF09B05DF804FB00BF67
:10859000C081030000B583B00021094804F0D4F87D
:1085A0000190019B0093009B002B04D0054AA3215E
:1085B000009809F055F800BF03B05DF804FB00BF58
:1085C00034560020C081030000B583B00190044AF6
:1085D000AD21019809F044F800BF03B05DF804FB39
:1085E000C081030000B585B00190019B1B78002B72
:1085F00010D10A4B1B883B211846FFF753FF03900D
:10860000039B0293029B002B04D0054AC1210298D0
:1086100009F026F800BF05B05DF804FB0455002002
:10862000C081030000B58BB001AB1C2200211846AD
:108630000FF0C4F8002301934FF4A03302934FF4DA
:10864000F023039303238DF810300023ADF812308C
:1086500000238DF814300B4B06930B4B079301ABA3
:10866000184602F005FF0990099B0893089B002B10
:1086700004D0064ADD21089808F0F2FF00BF0BB0D5
:108680005DF804FBE5850200C9850200C081030096
:1086900000B58DB00190009100230B93019B1B88C6
:1086A000562B00F01B81562B00F339813B2B00F039
:1086B000F4803B2B00F33381212B00F0C880212B69
:1086C00000F32D81102B3ED0112B40F02881B24BAE
:1086D0004FF6FF721A80B14B00221A70B04AB14BAC
:1086E000D31ADB081B0443F00303AF4918460DF00F
:1086F000CFFC00238DF82B3010E09DF82B30AB4AD7
:108700004FF4097101FB03F3134403F508730022CE
:108710001A809DF82B3001338DF82B309DF82B30CB
:10872000002BEAD0A248FEF7C7F9FEF74BF89C4AA7
:108730009C4BD31ADB081B0443F003039D491846E6
:108740000DF0A6FCF2E0019B9A88934B1A80934BA4
:1087500001221A70984A03AB92E8030083E80300F1
:108760008D4B1B8803A900221846FFF7AFFE0B9024
:108770000B9B002B11D00B9B112B0ED00B9B082BAE
:108780000BD0874A874BD31ADB081B0443F0020344
:108790000B9A8A4918460DF089FC68238DF82A3017
:1087A0000FE09DF82A301A468549864800F0CEFC35
:1087B0000B900B9B002B09D09DF82A3001338DF8CC
:1087C0002A309DF82A30692BEBD900E000BF0B9BC3
:1087D0000593059B002B05D07B4A40F22311059899
:1087E00008F03EFF00238DF8293010E09DF8293075
:1087F0006E4A4FF4097101FB03F3134403F5087348
:1088000000221A809DF8293001338DF829309DF817
:108810002930002BEAD0624A624BD31ADB081B04D2
:1088200043F00303694918460DF032FCFDF7B0FF31
:108830005F48FEF775F95A4A5A4BD31ADB081B04F6
:1088400043F00303624918460DF022FC6EE0544ADF
:10885000544BD31ADB081B0443F003035D4918464D
:108860000DF016FC5C4B1B88ADF80830019B9B8813
:1088700002AA11461846FFF725FE0B900B9B062B0C
:108880004FD00B9B0693069B002B4AD04E4A4FF4C9
:10889000A071069808F0E4FE43E0404B00221A70F5
:1088A0003F4A404BD31ADB081B0443F003034B49F8
:1088B00018460DF0EDFB019B9B8813211846FFF72E
:1088C000F1FD0B900B9B0793079B002B2BD03E4A8F
:1088D00040F24B11079808F0C3FE24E02F4B002212
:1088E0001A702F4A2F4BD31ADB081B0443F00303E3
:1088F0003B4918460DF0CCFB019B9B881321184681
:10890000FFF7D0FD0B900B9B0893089B002B0CD01E
:108910002D4A4FF4AA71089808F0A2FE05E000BFA6
:1089200004E000BF02E000BF00E000BF00238DF8BC
:1089300028300FE09DF82830942202FB03F31C4AF4
:10894000134401991846FEF74BFC9DF8283001337B
:108950008DF828309DF82830002BEBD000238DF8BF
:10896000273010E09DF827304FF4097202FB03F323
:108970000E4A134401991846FFF74AF89DF827302C
:1089800001338DF827309DF82730002BEAD000BF47
:1089900000BF0DB05DF804FB045500209056002088
:1089A000A47903006C79030030820300285700206B
:1089B0009456002054820300148303006482030051
:1089C0002455002088560020C08103008C820300BB
:1089D000C4820300D08203001C830300E4820300EE
:1089E000FC82030000B58FB00EF0F8FA0D900D9BDD
:1089F0000C930C9B002B05D0654A4FF4BE710C986C
:108A000008F02EFE0023049304AB194601200EF05B
:108A1000FBFB0D900D9B0B930B9B002B05D05C4A31
:108A20004FF4C1710B9808F01BFE01AB0C22002122
:108A300018460EF0C3FE02238DF80430049A01ABF1
:108A400019460120FFF746FD0D900D9B0A930A9BE6
:108A5000002B05D04E4A40F28B110A9808F000FE18
:108A600001AB0C22002118460EF0A8FE01238DF860
:108A7000053000238DF8063000238DF80730049A66
:108A800001AB19464020FFF725FD0D900D9B099382
:108A9000099B002B05D03E4A4FF4CB71099808F092
:108AA000DFFD01AB0C22002118460EF087FE0123EA
:108AB0008DF80430F723ADF80630049A01AB19465F
:108AC0002320FFF707FD0D900D9B0893089B002BBB
:108AD00005D02F4A40F29D11089808F0C1FD01AB66
:108AE0000C22002118460EF069FE01238DF8043097
:108AF0004FF4A073ADF8083001238DF80630049AC6
:108B000001AB19462020FFF7E5FC0D900D9B079364
:108B1000079B002B05D01E4A40F2A511079808F0CC
:108B20009FFD01AB0C22002118460EF047FE0123E9
:108B30008DF8043020238DF80630049A01AB1946D5
:108B40002220FFF7C7FC0D900D9B0693069B002B80
:108B500005D00F4A4FF4D671069808F081FD04AB9A
:108B600018460EF06FFC0D900DF01CFB0346002B19
:108B7000FAD10D9B0593059B002B05D0044A40F2CA
:108B8000B111059808F06CFD00BF0FB05DF804FB53
:108B9000C081030000B585B003468DF807300B4B4C
:108BA0001B7801211846FFF779FC0390039B029381
:108BB000029B002B05D0064A40F2F911029808F0FA
:108BC0004FFD00BF05B05DF804FB00BF0655002057
:108BD000C081030000B5ABB016AB3C2200211846A3
:108BE0000EF0ECFD02238DF8583001238DF85A3039
:108BF00006238DF85B3007AB3C22002118460EF0AF
:108C0000DDFD0323ADF82C30334B0C93334B196847
:108C100016AB334A184602F0E6F92990299B2893AF
:108C2000289B002B05D02F4A40F21221289808F0EB
:108C300017FD2A4B996807AB2B4A184602F0D3F967
:108C40002990299B2793279B002B05D0254A40F28A
:108C50001521279808F004FD01AB182200211846C1
:108C60000EF0ACFD01238DF8193044F25063ADF8DD
:108C7000103001238DF804300023029300238DF877
:108C800018304023039301AB1A4614491748FFF7E5
:108C900001FC2990299B2693269B002B05D0114A85
:108CA0004FF40971269808F0DBFC104B1B78042266
:108CB00019460120FFF7FAFB2990299B2593259B54
:108CC000002B05D0074A4FF40A71259808F0C8FC1C
:108CD00000BF2BB05DF804FB18550020085500209C
:108CE0000C550020C08103001455002006550020BB
:108CF00000B585B00190019B002B0AD0074B43F0D3
:108D000001030393019B9B010293039B02989847E5
:108D100000E000BF05B05DF804FB00BFE084030085
:108D200000B583B00190019B0433184606F078FB30
:108D300000BF03B05DF804FB00B589B00590039255
:108D40001A460B468DF8133013468DF81230002367
:108D50000793059B181D9DF812209DF813109DF890
:108D6000283000931346039A06F00AFE0790079BEB
:108D7000184609B05DF804FB00B587B00390019276
:108D80001A460B468DF80B3013468DF80A30002337
:108D90000593039B181D9DF80A309DF80B10019A4E
:108DA00006F016FE0590059B184607B05DF804FB1B
:108DB00000B583B00190019B002B0AD04FF47A706C
:108DC000FFF796FF019B013B0193019B002BF5D11F
:108DD00000E000BF03B05DF804FB84B00190009197
:108DE000019B0393009B01331A78039B1A70039B2A
:108DF0000133009A12781A7000BF04B0704784B033
:108E000001900091019B0393009B01331A78039B0F
:108E10001A70039B0133009A12781A70009BDA1CB7
:108E2000039B023312781A70009B9A1C039B033336
:108E300012781A70009B5A1D039B043312781A7023
:108E4000009B1A1D039B053312781A7000BF04B0F3
:108E50007047000000B587B06B4600221A605A6068
:108E60009A60DA6012230093112301934FF0CC73C0
:108E7000029303238DF80C3069460023002210482A
:108E800004F07EF80590059B0493049B002B04D00E
:108E90000C4A3E21049808F0E3FB0948FFF740FF25
:108EA000094A0A4BD31ADB081B0443F003030849A1
:108EB00018460DF0EDF800BF07B05DF804FB00BFE9
:108EC0002455002020830300A47903006C7903005B
:108ED0008C83030000B587B003900B468DF80B30F0
:108EE000039B002B01D10E232AE09DF80B30072BAA
:108EF00001D9072324E0039B5B799DF80B209A425C
:108F000001D100231CE076238DF810309DF80B3042
:108F100003F00703DBB28DF81130039B1868039B45
:108F2000197904AA002300930223FFF705FF059097
:108F3000059B002B03D1039B9DF80B205A71059BC9
:108F4000184607B05DF804FB00B583B001900B46EE
:108F5000ADF8023013468DF801300DF10102BDF875
:108F600002100123019800F005F80346184603B0EB
:108F70005DF804FB10B598B00590039202930B4680
:108F8000ADF81230059B002B02D0039B002B01D1C2
:108F90000E2332E0029B002B01D100232DE0029B27
:108FA000402B01D9092328E0BDF812301B0A9BB2DF
:108FB000DBB219460598FFF78DFF1790179B002B22
:108FC00001D0179B19E0BDF81230DBB28DF81830D4
:108FD00006AB0133029A039918460EF0BDFB059BC0
:108FE0001868059B1979029BDBB20133DBB206AA34
:108FF00000240094FFF7A0FE0346184618B010BDE9
:1090000000B585B003900B460192ADF80A30BDF86B
:109010000A100123019A039800F005F80346184648
:1090200005B05DF804FB00B589B00590039202938A
:109030000B46ADF81230059B002B02D0039B002B92
:1090400001D10E2333E0029B002B01D100232EE03F
:10905000BDF812301B0A9BB2DBB219460598FFF728
:1090600039FF0790079B002B01D0079B1FE0BDF83D
:109070001230DBB28DF81B30059B1868059B1979FF
:109080000DF11B02012300930123FFF755FE07900A
:10909000079B002B01D0079B09E0059B1868059BE7
:1090A0001979029BDBB2039AFFF766FE0346184666
:1090B00009B05DF804FB00B58BB0039002910192FA
:1090C000039B002B02D0029B002B01D10E2339E021
:1090D00005AA0E231D210398FFF7A5FF0990099B00
:1090E000002B01D0099B2DE005AB02330622194667
:1090F00002980EF031FB029B981D05AB0833062247
:1091000019460EF029FB029B0C33BDF814201A807F
:10911000019B002B15D0019B02991846FFF76FFEAB
:10912000019B9A1D029B063319461046FFF767FE06
:10913000019B03F10C02029B0C3319461046FFF70A
:109140004CFE002318460BB05DF804FB00B587B059
:109150000390029113468DF80730039B002B02D039
:10916000029B002B01D10E2317E0039B029A1A6089
:10917000039B9DF807201A71039BFF225A7100215F
:109180000398FFF7A7FE0590059B002B01D0059BD8
:1091900003E0039800F006F80346184607B05DF8B0
:1091A00004FB000000B585B0019000238DF80B3062
:1091B000012211210198FFF7C7FE0390039B002BAA
:1091C00001D0039BC3E00A20FFF7F2FD019BFF22C1
:1091D0005A7100210198FFF77DFE0390039B002B3D
:1091E00001D0039BB3E00DF10B031A4675210198E2
:1091F000FFF706FF0390039B002B01D0039BA6E023
:109200009DF80B303B2B0FD0534A544BD31ADB083D
:109210001B0443F001009DF80B301A463B235049D4
:109220000CF055FF0B2392E00F224E210198FFF71F
:109230008BFE0390039B002B01D0039B87E0012052
:10924000FFF7B6FD27224F210198FFF77DFE03901F
:10925000039B002B01D0039B79E0672250210198EA
:10926000FFF772FE0390039B002B01D0039B6EE07F
:109270000DF10B031A464E210198FFF7C1FE039032
:10928000039B002B01D0039B61E09DF80B300F2B5B
:109290000FD0314A314BD31ADB081B0443F00100D5
:1092A0009DF80B301A460F232E490CF010FF0B23AC
:1092B0004DE00DF10B031A464F210198FFF7A0FE78
:1092C0000390039B002B01D0039B40E09DF80B30E3
:1092D000272B0FD0204A214BD31ADB081B0443F065
:1092E00001009DF80B301A4627231F490CF0EFFEB2
:1092F0000B232CE00DF10B031A4650210198FFF7C8
:109300007FFE0390039B002B01D0039B1FE09DF881
:109310000B30672B0FD0104A104BD31ADB081B04FD
:1093200043F001009DF80B301A4667230F490CF0FB
:10933000CEFE0B230BE0084A084BD31ADB081B04B4
:1093400043F003030A4918460CF0A2FE0023184616
:1093500005B05DF804FB00BFA47903006C7903003D
:10936000DC83030010840300448403007C84030036
:10937000B484030000B583B00190019B1B681846BC
:1093800000F094F80346002B04D105494FF4F67021
:1093900000F0A8F84FF0A043184603B05DF804FBB6
:1093A000E884030000B585B00190084611461A46CE
:1093B00003468DF803300B468DF8023013468DF8C6
:1093C000013001AB1846FFF7D5FF03909DF803204D
:1093D0009DF802305B001A439DF801309B001A4350
:1093E0009DF818301B0242EA03019DF81C301B0453
:1093F000019A1943039B02F5E07243F8221000BF63
:1094000005B05DF804FB00B585B00390002301931F
:10941000002300930023012201210398FFF7C2FFDC
:1094200000BF05B05DF804FB00B587B003900B46A4
:109430008DF80B309DF80B30002B0AD103980023D8
:10944000019300230093002300220021FFF7AAFFCD
:109450000AE003AB1846FFF78DFF0590039B01223E
:109460009A40059BC3F8182500BF07B05DF804FBC0
:1094700000B585B0019001AB1846FFF77BFF039064
:10948000019B012202FA03F31946039800F004F845
:1094900000BF05B05DF804FB82B001900091019B14
:1094A000009AC3F8082500BF02B0704784B001904D
:1094B000019B5B09029300230393029B002B03D1C2
:1094C0004FF0FF33039300BF019B03F01F03019391
:1094D000039A019B22FA03F303F00103DBB218465F
:1094E00004B0704700B583B003460091ADF8063074
:1094F000BDF80630009A1946034808F0B1F800BFDD
:1095000003B05DF804FB00BFEFBEADDE00B583B075
:109510004FF4804100200CF0E5FA0190019B00938C
:10952000009B002B04D0054A3B21009808F098F8D6
:109530000CF05AFA00BF03B05DF804FB1885030075
:1095400000B583B00BF092FE0190019B0093009B4D
:10955000002B04D0044A4721009808F081F800BF8E
:1095600003B05DF804FB00BF1885030000B587B0A9
:1095700004F0DCFB034683F00103DBB2002B0AD0CE
:1095800004F070FB0590059B002B04D0414A9E21FE
:10959000059808F065F8404A404BD31ADB081B04D5
:1095A00043F003033E4918460CF072FD01238DF889
:1095B000133000210B20FFF737FF01210A20FFF7AE
:1095C00033FF01210F20FFF72FFF0E20FFF71BFFB6
:1095D00001210E20FFF728FF0E20FFF749FF092089
:1095E000FFF711FF01210920FFF71EFF0920FFF7F8
:1095F0003FFF02238DF8043000238DF805309DF8DD
:10960000063023F001038DF806309DF806309DF8F2
:10961000132062F341038DF806309DF8063023F0E5
:1096200004038DF806309DF8063043F001038DF8F1
:10963000063000238DF8053001AB1A4A19460B207D
:1096400004F080FB0390039B0293029B002B04D049
:10965000104ABB21029808F003F8039B002B0BD0A3
:109660000D4A0E4BD31ADB081B0443F00303039A85
:109670000D4918460CF01AFD0CF094FD0346002B22
:10968000FAD101210B2004F0DBFB00BF07B05DF82D
:1096900004FB00BF18850300A47903006C79030064
:1096A000888503002D9A0200A485030000B585B0CB
:1096B0000190019B002B0AD0074B43F00103039359
:1096C000019B9B010293039B0298984700E000BF17
:1096D00005B05DF804FB00BFF086030000B583B061
:1096E0000190019B002B0AD04FF47A70FFF7DEFF48
:1096F000019B013B0193019B002BF5D100E000BFD2
:1097000003B05DF804FB000010B586B003900023A1
:109710008DF8173023E0164A164BD31ADB081B04CA
:1097200043F003009DF817209DF81730124931F8D7
:1097300013301C469DF81730104951F82330009320
:1097400023460F490CF0D7FC9DF817300A4A002138
:1097500022F813109DF8173001338DF817309DF85B
:109760001730002BD7D000BF00BF06B010BD00BF20
:10977000A47903006C7903004C5900205059002053
:10978000E085030000B587B00190334B1B7883F070
:109790000103DBB2002B59D1304B5B884FF6FF72CF
:1097A000934253D00E23ADF81630BDF81630EE229A
:1097B000B2FBF3F3ADF81430284BB3F82032BDF808
:1097C00014209A4209D82548FEF724FE234BB3F80B
:1097D0002032BDF814209A423AD9204BB3F82032F7
:1097E000BDF8162012FB03F3ADF81230BDF81230AD
:1097F00003F59473194A1344043300221946184898
:10980000FFF759FC0390039B002B0CD0154A164B15
:10981000D31ADB081B0443F00203039A13491846CA
:109820000CF044FC15E00D4BB3F8203201339AB232
:109830000A4BA3F82022094BB3F82032BDF81420BC
:109840009A4206D80548FEF7E5FD02E000BF00E0B9
:1098500000BF07B05DF804FB905600202857002099
:1098600088560020A47903006C7903001486030055
:1098700000B585B008F0A4FA0390039B0293029B05
:10988000002B04D0144AD021029807F0E9FE134AB5
:109890000121134808F0D2FA0390039B0193019B26
:1098A000002B04D00C4AD821019807F0D9FE0D4AAC
:1098B00001210D4808F0C2FA0390039B0093009B1E
:1098C000002B04D0044ADB21009807F0C9FE00BF3A
:1098D00005B05DF804FB00BF2C86030085970200ED
:1098E000DC85030009970200D885030000B597B016
:1098F0002E4B129312AB19462D48FDF77FFE002325
:1099000011932C4B119300238DF857301CE09DF8D8
:109910005730294A4FF4097101FB03F313449DF8B2
:1099200057201A709DF857304FF4097202FB03F369
:10993000214A134411AA11461846FEF799FC9DF8D6
:10994000573001338DF857309DF85730002BDED05B
:1099500001AB4022002118460DF030FF01AB174942
:10996000184602F036FB01AB08331549184602F0E1
:1099700030FB01AB20331249184602F02AFB0123C9
:109980008DF8403001AB184602F0F0F91490149BAA
:109990001393139B002B05D00A4A40F21911139818
:1099A00007F05EFE00BF17B05DF804FB29720200ED
:1099B00094560020A17A02002857002090860300C8
:1099C0009C8603002C86030000B585B0144B002252
:1099D0004FF4A471184608F06BFA0390039B0293AE
:1099E000029B002B05D00F4A40F22911029807F084
:1099F00037FE0D4B00224FF48041184608F058FA0C
:109A00000390039B0193019B002B05D0054A40F274
:109A10002D11019807F024FE00BF05B05DF804FB8E
:109A2000585500202C8603003855002000B583B01F
:109A300001900B468DF803300F4B1B78002B17D08D
:109A4000019B0B2B14D10D48FDF77EFA0B4BB3F89D
:109A50009030F02B06D1094B0022A3F89020074844
:109A6000FDF7B2FE064B1B8801339AB2044B1A80F5
:109A700000BF03B05DF804FB905600209456002010
:109A80004C59002000B583B00120FCF7B3FE05203F
:109A9000FFF724FEFCF774FFFCF78CFF00238DF822
:109AA000073033E09DF80730942202FB03F31C4A91
:109AB000134400930098FCF797FF0A20FFF70EFE6F
:109AC0000098FCF7C5FF0098FCF78EFF0A20FFF70F
:109AD00005FE0098FCF7F0FF0098FDF755F8009898
:109AE000FDF73CF90098FDF7A1F90A20FFF7F6FD14
:109AF000009B0022A3F890200CF054FB0346002B9F
:109B0000FAD19DF8073001338DF807309DF8073002
:109B1000002BC7D00023184603B05DF804FB00BF3C
:109B20009456002000B585B000238DF80A30FFF769
:109B3000EDFCFFF79DFEFFF703FDFFF717FDFCF7B8
:109B4000B9FEFEF74FFFFEF7C9FCFEF723FDFFF756
:109B5000CDFEFFF73FF8FEF765FDFFF77BF90CF050
:109B600021FB0346002BFAD10523039368238DF8CC
:109B70000B301DE09DF80B301A462C492C48FFF79E
:109B8000E5FA0390039B002B0DD12A4A2A4BD31AE6
:109B9000DB081B0443F003039DF80B2027491846FC
:109BA0000CF084FA08E09DF80B3001338DF80B308F
:109BB0009DF80B30692BDDD9039B0193019B002B92
:109BC00005D01F4A40F2F511019807F049FDFFF753
:109BD00059FF184A184BD31ADB081B0443F0030340
:109BE000184918460CF054FAFFF7EEFE05E020BFC6
:109BF0000CF0D8FA0346002BFAD1134B1B78002B3C
:109C0000F5D19DF80A301846FEF7C4FF05E020BFE5
:109C10000CF0C8FA0346002BFAD10B4B1B7883F0EB
:109C20000103DBB2002BF2D1E7E700BF245500208F
:109C300088560020A47903006C790300A8860300ED
:109C40002C860300C48603009056002084B0019047
:109C50000B468DF8033013468DF802300023039332
:109C6000019B032B3CD89DF80230012B0BD19DF8B2
:109C70000330012B04D1019BDBB20E33DBB200E0D9
:109C800000238DF802309DF80330022B0FD0022BF9
:109C900023DC002B16D0012B1FD11449019A134647
:109CA0005B0013440B449DF802201A701AE00F4920
:109CB000019A13465B0013440B4401339DF80220C4
:109CC0001A700FE00949019A13465B0013440B44D4
:109CD00002339DF802201A7004E00723039301E089
:109CE00007230393039B184604B070475459002080
:109CF00000B583B0012200210020FFF7A7FF0190EB
:109D0000019B002B04D0019B072B01D0019B1CE081
:109D1000072202210120FFF799FF0190019B002BF0
:109D200004D0019B072B01D0019B0EE004220221ED
:109D30000020FFF78BFF0190019B002B04D0019BBB
:109D4000072B01D0019B00E00023184603B05DF80B
:109D500004FB00B583B0012202210020FFF776FF4B
:109D60000190019B002B04D0019B072B01D0019B8C
:109D70001CE0072202210120FFF768FF0190019BF0
:109D8000002B04D0019B072B01D0019B0EE00A227F
:109D900000210020FFF75AFF0190019B002B04D007
:109DA000019B072B01D0019B00E00023184603B064
:109DB0005DF804FB00B585B001900091019B1B8804
:109DC000102B02D0112B18D02FE01A4B1B68002B40
:109DD0000DD1FFF78DFF0390039B002B07D0164B8F
:109DE0001B68002B03D0144B1B6803989847114B3A
:109DF0001B6801330F4A136017E00E4B1B68013BD1
:109E00000C4A13600B4B1B68002B0DD1FFF7A1FF11
:109E10000390039B002B07D0074B1B68002B03D03C
:109E2000054B1B680398984700BF00BF05B05DF85D
:109E300004FB00BF6459002060590020BFF34F8F1E
:109E400000BF064BDB6803F4E0620449044B134394
:109E5000CB60BFF34F8F00BF00BFFDE700ED00E018
:109E60000400FA0582B01D4B1B68B3F1FF3F0AD115
:109E70001B4B1B68DBB201931A4B1B681B0903F0D9
:109E80000F03009305E0154B1B680193164B1B68ED
:109E90000093019B062B1DD1009B033B042B17D87D
:109EA00001A252F823F000BFBD9E0200C19E020035
:109EB000C59E0200C99E0200CD9E020001230AE059
:109EC000012308E0012306E0012304E0012302E06E
:109ED000012300E00023184602B070473001001053
:109EE000E00F00F0E80F00F03401001082B0174BD3
:109EF0001B68DBB20193164B1B681B0903F00F03B1
:109F00000093019B062B1DD1009B033B042B17D80C
:109F100001A252F823F000BF2D9F0200319F0200E2
:109F2000359F0200399F02003D9F020001230AE095
:109F3000002308E0002306E0002304E0002302E001
:109F4000002300E00023184602B07047E00F00F045
:109F5000E80F00F082B01D4B1B68B3F1FF3F0AD140
:109F60001B4B1B68DBB201931A4B1B681B0903F0E8
:109F70000F03009305E0154B1B680193164B1B68FC
:109F80000093019B062B1DD1009B033B042B17D88C
:109F900001A252F823F000BFAD9F0200B19F020062
:109FA000B59F0200B99F0200BD9F020001230AE095
:109FB000012308E0012306E0012304E0012302E07D
:109FC000012300E00023184602B070473001001062
:109FD000E00F00F0E80F00F03401001082B0174BE2
:109FE0001B68DBB20193164B1B681B0903F00F03C0
:109FF0000093019B062B1DD1009B033B042B17D81C
:10A0000001A252F823F000BF1DA0020021A002000F
:10A0100025A0020029A002002DA0020001230AE0D1
:10A02000002308E0002306E0002304E0002302E010
:10A03000002300E00023184602B07047E00F00F054
:10A04000E80F00F082B01D4B1B68B3F1FF3F0AD14F
:10A050001B4B1B68DBB201931A4B1B681B0903F0F7
:10A060000F03009305E0154B1B680193164B1B680B
:10A070000093019B062B1DD1009B033B042B17D89B
:10A0800001A252F823F000BF9DA00200A1A002008F
:10A09000A5A00200A9A00200ADA0020001230AE0D1
:10A0A000012308E0012306E0012304E0012302E08C
:10A0B000012300E00023184602B070473001001071
:10A0C000E00F00F0E80F00F03401001082B0174BF1
:10A0D0001B68DBB20193164B1B681B0903F00F03CF
:10A0E0000093019B062B1DD1009B033B042B17D82B
:10A0F00001A252F823F000BF0DA1020011A102003D
:10A1000015A1020019A102001DA1020001230AE00D
:10A11000002308E0002306E0002304E0002302E01F
:10A12000002300E00023184602B07047E00F00F063
:10A13000E80F00F082B0174B1B68DBB20193164B9F
:10A140001B681B0903F00F030093019B062B1DD115
:10A15000009B033B042B17D801A252F823F000BF49
:10A1600075A1020079A102007DA1020081A1020077
:10A1700085A1020001230AE0002308E0002306E095
:10A18000002304E0002302E0002300E0002318463F
:10A1900002B07047E00F00F0E80F00F082B01D4BF6
:10A1A0001B68B3F1FF3F0AD11B4B1B68DBB2019365
:10A1B0001A4B1B681B0903F00F03009305E0154BB6
:10A1C0001B680193164B1B680093019B062B1DD146
:10A1D000009B033B042B17D801A252F823F000BFC9
:10A1E000F5A10200F9A10200FDA1020001A20200F6
:10A1F00005A2020000230AE0002308E0012306E094
:10A20000012304E0012302E0012300E000231846BB
:10A2100002B0704730010010E00F00F0E80F00F0CE
:10A220003401001082B01D4B1B68B3F1FF3F0AD10F
:10A230001B4B1B68DBB201931A4B1B681B0903F015
:10A240000F03009305E0154B1B680193164B1B6829
:10A250000093019B062B1DD1009B033B042B17D8B9
:10A2600001A252F823F000BF7DA2020081A20200E9
:10A2700085A2020089A202008DA2020001230AE049
:10A28000012308E0012306E0012304E0012302E0AA
:10A29000012300E00023184602B07047300100108F
:10A2A000E00F00F0E80F00F03401001082B01D4B09
:10A2B0001B68B3F1FF3F0AD11B4B1B68DBB2019354
:10A2C0001A4B1B681B0903F00F03009305E0154BA5
:10A2D0001B680193164B1B680093019B062B1DD135
:10A2E000009B033B042B17D801A252F823F000BFB8
:10A2F00005A3020009A302000DA3020011A302009E
:10A3000015A3020001230AE0012308E0012306E06F
:10A31000012304E0012302E0012300E000231846AA
:10A3200002B0704730010010E00F00F0E80F00F0BD
:10A330003401001082B0154B1B680193144B1B684D
:10A340000093019B062B1DD1009B033B042B17D8C8
:10A3500001A252F823F000BF6DA3020071A3020016
:10A3600075A3020079A302007DA3020000230AE086
:10A37000002308E0002306E0012304E0012302E0BB
:10A38000012300E00023184602B07047300100109E
:10A390003401001082B0154B1B680193144B1B68ED
:10A3A0000093019B062B1DD1009B033B042B17D868
:10A3B00001A252F823F000BFCDA30200D1A30200F6
:10A3C000D5A30200D9A30200DDA3020000230AE006
:10A3D000002308E0002306E0002304E0012302E05C
:10A3E000012300E00023184602B07047300100103E
:10A3F0003401001008B5FFF7CDFF0346002B07D04E
:10A400004FF010234FF08042D3F80832C2F858358D
:10A4100000BF08BD00BF044BD3F80034002BFAD0B6
:10A4200000BF00BF704700BF00E0014000B583B02F
:10A430000190054A019BC2F80435FFF7EBFF00BF0E
:10A4400003B05DF804FB00BF00E00140024B034A8B
:10A450001A6000BF704700BF785500200090D003FD
:10A4600008B5FFF7FFFC0346002B06D0934B1B6893
:10A470001B0A934A03F01F031360FFF737FD0346DF
:10A48000002B02D08F4B904A1A60FFF763FD034602
:10A49000002B06D08D4B1B685B0B8D4A03F0070326
:10A4A0001360FFF79BFD0346002B05D0894BDB684B
:10A4B000884A23F08073D360FFF7C4FD0346002B66
:10A4C0000ED04FF080430022C3F80C214FF08043A0
:10A4D0000022C3F810214FF080430022C3F8382532
:10A4E000FFF7F4FD0346002B02D07B4B03221A60DA
:10A4F000FFF720FE0346002B0BD0784B05221A6095
:10A50000774B01221A60774B00221A60764B3F226C
:10A510001A60FFF743FE0346002B76D04FF08053BE
:10A52000724AD3F80434C2F820354FF080536F4A92
:10A53000D3F80834C2F824354FF080536B4AD3F86F
:10A540000C34C2F828354FF08053684AD3F81034E1
:10A55000C2F82C354FF08053644AD3F81434C2F853
:10A5600030354FF08053614AD3F81834C2F834358F
:10A570004FF080535D4AD3F81C34C2F840354FF099
:10A5800080535A4AD3F82034C2F844354FF08053F0
:10A59000564AD3F82434C2F848354FF08053534A12
:10A5A000D3F82834C2F84C354FF080534F4AD3F8D3
:10A5B0002C34C2F850354FF080534C4AD3F8303425
:10A5C000C2F854354FF08053484AD3F83434C2F8B7
:10A5D00060354FF08053454AD3F83834C2F86435BB
:10A5E0004FF08053414AD3F83C34C2F868354FF0FD
:10A5F00080533E4AD3F84034C2F86C354FF0805354
:10A600003A4AD3F84434C2F87035FFF70BFE0346DC
:10A61000002B05D0364B1B68364A03F04F031360FE
:10A62000FFF744FE0346002B0DD04FF08043D3F8D4
:10A63000003403F00103002B05D04FF080436FF08E
:10A640000102C3F80024FFF775FE0346002B05D076
:10A65000294B1B68284A43F480631360274BD3F8C7
:10A660008830264A43F47003C2F88830BFF34F8F16
:10A6700000BFBFF36F8F00BFFFF7BCFE4FF010238A
:10A68000D3F80C3203F00103012B13D10120FFF7A3
:10A69000CDFE4FF01023D3F80C324FF0102223F0F0
:10A6A0000103C2F80C32FFF7B5FE0020FFF7BEFE33
:10A6B000FFF7C4FBFFF7CAFE00BF08BD240300106C
:10A6C0004035014074C007400DF0ADBA440200109F
:10A6D0003C050040F0ED00E0A005004010560040B1
:10A6E00088560040185600401456004000C00040F4
:10A6F00058020010E40E00403C17004000ED00E05E
:10A700006DDF704700BF184679DF704700BF1846FD
:10A710007DDF704700BF184664DF704700BF1846F2
:10A7200082B003460091ADF80630BDF80630DAB2CB
:10A73000009B1A70BDF806301B0A9AB2009B0133C9
:10A74000D2B21A700223184602B0704700B589B021
:10A75000039002911346ADF80630029B1B8803F16B
:10A760000902BDF806309A4201D90C2353E004AB2C
:10A770001846FFF7C5FF0790079B0693069B002B23
:10A7800001D0069B47E0029B1B881A46039B13449B
:10A7900008221A70029B1B8801339AB2029B1A800E
:10A7A000029B1B881A46039B13441B221A70029BB0
:10A7B0001B8801339AB2029B1A80029B1B881A469F
:10A7C000039B981804AB0133062219460CF0C4FF12
:10A7D000029B1B8806339AB2029B1A809DF81030A8
:10A7E00023F00103DBB2002B07D1029B1B881A4622
:10A7F000039B134400221A7006E0029B1B881A4632
:10A80000039B134401221A70029B1B8801339AB2E6
:10A81000029B1A800023184609B05DF804FB00B5BE
:10A8200089B0039002910192ADF80230039B1B782E
:10A83000012B05D1039B5B78002B01D1072391E00D
:10A84000019B1B889A1CBDF802309A420ED8039BCC
:10A850001B78012B0CD1019B1B881A46039B5B784C
:10A8600013449A1CBDF802309A4201D90C2379E0B6
:10A87000019B1B88BDF80220D31A9BB2023BADF8A6
:10A880001C30BDF81C30ADF81230019B1B88023320
:10A89000029A13440DF1120211461846FFF738FFD1
:10A8A0000690069B0593059B002B01D0059B59E064
:10A8B000039B1B78022B06D0039B5B781A46BDF8DE
:10A8C00012309A4209D3BDF81230BDF81C209A42CA
:10A8D00003D309238DF81F3016E008238DF81F30AD
:10A8E000039B1B78012B0BD1039B5B781A46BDF8A9
:10A8F0001C30934204D3039B5B78ADF8123003E025
:10A90000BDF81C30ADF81230BDF81230FE2B01D965
:10A910000C2327E0BDF81230DAB2019B1B881946E0
:10A92000029B0B440132D2B21A70019B1B88013387
:10A930009AB2019B1A80019B1B881A46029B134402
:10A940009DF81F201A70019B1B8801339AB2019B4E
:10A950001A80019B1A88BDF8123013449AB2019BE9
:10A960001A800023184609B05DF804FB00B589B0D1
:10A97000039002911346ADF80630029B1B881A1D06
:10A98000BDF806309A4201D90C233AE00DF11603C6
:10A990001846FFF7B9FE0790079B0693069B002B0E
:10A9A00001D0069B2DE0029B1B881A46039B134493
:10A9B00003221A70029B1B8801339AB2029B1A80F1
:10A9C000029B1B881A46039B134419221A70029B90
:10A9D0001B8801339AB2029B1A80BDF81620029B95
:10A9E0001B881946039B0B4419461046FFF798FE37
:10A9F00003461A46029B1B8813449AB2029B1A8094
:10AA00000023184609B05DF804FB84B0029101925E
:10AA10001A4603468DF80F301346ADF80C30019BF3
:10AA20001B88DA1CBDF80C309A4201D90C2328E0AF
:10AA3000019B1B881A46029B134402221A70019B39
:10AA40001B8801339AB2019B1A80019B1B881A460E
:10AA5000029B134401221A70019B1B8801339AB296
:10AA6000019B1A80019B1B881A46029B13449DF888
:10AA70000F201A70019B1B8801339AB2019B1A8028
:10AA80000023184604B0704784B0029101921A4620
:10AA900003468DF80F301346ADF80C30019B1B8830
:10AAA000DA1CBDF80C309A4201D90C2328E0019B36
:10AAB0001B881A46029B134402221A70019B1B88B2
:10AAC00001339AB2019B1A80019B1B881A46029B94
:10AAD00013440A221A70019B1B8801339AB2019B0E
:10AAE0001A80019B1B881A46029B13449DF80F2075
:10AAF0001A70019B1B8801339AB2019B1A800023B4
:10AB0000184604B0704700B58FB0039001930B4610
:10AB10008DF80B3013468DF80A3000238DF8333052
:10AB2000109B1B88ADF8303000230D9370E0039B21
:10AB30005A680D9B9B001A4405AB106818600DF114
:10AB40001B0105AB00221846FFF7E6FD0A900A9BA1
:10AB50000993099B002B01D0099B7BE09DF81B30DA
:10AB60009DF80A209A4250D19DF83330002B01D035
:10AB7000002300E002238DF82330109B1B881A4627
:10AB80009DF81B301A449DF823301A44BDF8443018
:10AB90009A4201DD0C235DE09DF8333083F0010320
:10ABA000DBB2002B16D0109B1B8801339AB2109B8E
:10ABB0001A80109B1B881A46019B13449DF80B209A
:10ABC0001A70109B1B8801339AB2109B1A800123C4
:10ABD0008DF83330109B1B881A46019B1A440DF1E7
:10ABE0001B0105AB1846FFF797FD0A900A9B0793D8
:10ABF000079B002B01D0079B2CE0109B1B889DF826
:10AC00001B2013449AB2109B1A800D9B01330D93A5
:10AC1000039B1B881A460D9B934288DB9DF83330BB
:10AC2000002B16D0109B1A88BDF83030D31A9BB277
:10AC3000013BADF82E30BDF82E30FF2B01D90C238F
:10AC400008E0BDF83030019A1344BDF82E20D2B28E
:10AC50001A70002318460FB05DF804FB00B58BB0E6
:10AC6000059003930B468DF8133013468DF8123080
:10AC70009DF81310BDF8343001930C9B0093039B97
:10AC800002220598FFF73FFF0990099B0893089B54
:10AC9000002B01D0089B14E09DF81210BDF8343051
:10ACA00001930C9B0093039B10220598FFF72BFF49
:10ACB0000990099B0793079B002B01D0079B00E09D
:10ACC000002318460BB05DF804FB82B00190019B95
:10ACD0001B88052B0AD9019B1B88B3F5486F07D940
:10ACE000019B1B884FF6FF72934201D0072325E09A
:10ACF000019B5B88052B0AD9019B5B88B3F5486FE4
:10AD000007D9019B5B884FF6FF72934201D007235E
:10AD100014E0019B1B884FF6FF7293420DD0019BFC
:10AD20005B884FF6FF72934207D0019B1A88019B04
:10AD30005B889A4201D9072300E00023184602B03D
:10AD4000704700B587B0039002910192ADF80230D0
:10AD5000019B1B889A1DBDF802309A4201D90C2331
:10AD60004BE00398FFF7B1FF0590059B0493049B0C
:10AD7000002B01D0049B40E0019B1B881A46029BDC
:10AD8000134405221A70019B1B8801339AB2019B60
:10AD90001A80019B1B881A46029B134412221A70C8
:10ADA000019B1B8801339AB2019B1A80039B1A886E
:10ADB000019B1B881946029B0B4419461046FFF75E
:10ADC000AFFC03461A46019B1B8813449AB2019BB1
:10ADD0001A80039B5A88019B1B881946029B0B44CF
:10ADE00019461046FFF79CFC03461A46019B1B8838
:10ADF00013449AB2019B1A800023184607B05DF8ED
:10AE000004FB00B587B0039002910192ADF80230C7
:10AE1000039B9B8802330593019B1B881A46059B65
:10AE200013449A1CBDF802309A4201D90C2353E016
:10AE3000059BFE2B01D90C234EE0059BDAB2019B4A
:10AE40001B881946029B0B440132D2B21A70019B37
:10AE50001B8801339AB2019B1A80019B1B881A46FA
:10AE6000029B1344FF221A70019B1B8801339AB284
:10AE7000019B1A80039B1A88019B1B881946029B21
:10AE80000B4419461046FFF74BFC03461A46019B3C
:10AE90001B8813449AB2019B1A80039B9B88002B4A
:10AEA00019D0039B9B68002B01D1072314E0019B61
:10AEB0001B881A46029B9818039B9968039B9B88E2
:10AEC0001A460CF049FC019B1A88039B9B8813448B
:10AED0009AB2019B1A800023184607B05DF804FB64
:10AEE00000B589B0039002910192ADF80230039B46
:10AEF0009B6A002B01D1072371E000238DF81F30DE
:10AF000065E0039B996A9DF81F2013465B0013447C
:10AF10009B000B440693069B9B8802330593059B7D
:10AF2000FE2B01D90C235AE0059BDAB2019B1B884A
:10AF30001946029B0B440132D2B21A70019B1B8846
:10AF400001339AB2019B1A80019B1B881A46029B0F
:10AF5000134416221A70019B1B8801339AB2019B7D
:10AF60001A80069B1A88019B1B881946029B0B447A
:10AF700019461046FFF7D4FB03461A46019B1B886F
:10AF800013449AB2019B1A80069B9B88002B19D010
:10AF9000069B9B68002B01D1072320E0019B1B88A7
:10AFA0001A46029B9818069B9968069B9B881A462E
:10AFB0000CF0D2FB019B1A88069B9B8813449AB223
:10AFC000019B1A809DF81F3001338DF81F30039BC1
:10AFD00093F82C309DF81F209A4292D300231846F4
:10AFE00009B05DF804FB00B595B00590049103929B
:10AFF00000231393039B1B88ADF84A30039B002268
:10B000001A80059B93F82D30002B0ED0BDF84A30E6
:10B010001A4603990498FFF799FB1390139B119319
:10B02000119B002B01D0119BD8E0059B9B78002B36
:10B030000ED0BDF84A301A4603990498FFF796FCE3
:10B040001390139B1093109B002B01D0109BC5E015
:10B05000059BDB78002B10D0059BDB7858B2BDF840
:10B060004A30039A0499FFF7D0FC1390139B0F9377
:10B070000F9B002B01D00F9BB0E0059B5B68002B62
:10B0800011D0059B5B6893F90000BDF84A30039A24
:10B090000499FFF7F9FC1390139B0E930E9B002B62
:10B0A00001D00E9B9AE0059B1B89002B14D0059BB9
:10B0B00003F10800BDF84A300193039B0093049B01
:10B0C00006220221FFF7CAFD1390139B0D930D9BDF
:10B0D000002B01D00D9B81E0059B1B8A002B14D017
:10B0E000059B03F11000BDF84A300193039B0093C8
:10B0F000049B07220321FFF7B1FD1390139B0C93D0
:10B100000C9B002B01D00C9B68E0059B1B8B002B3C
:10B1100014D0059B03F11800BDF84A300193039B3E
:10B120000093049B15221421FFF798FD1390139BA5
:10B130000B930B9B002B01D00B9B4FE0059B1B6AD5
:10B14000002B0FD0059B186ABDF84A30039A04996A
:10B15000FFF7F7FD1390139B0A930A9B002B01D076
:10B160000A9B3BE0059B5B6A002B0FD0059B586A4E
:10B17000BDF84A30039A0499FFF743FE1390139BDE
:10B180000993099B002B01D0099B27E0059B93F8AD
:10B190002C30002B0ED0BDF84A30039A0499059844
:10B1A000FFF79EFE1390139B0893089B002B01D082
:10B1B000089B13E0059B1B78002B0ED0BDF84A308E
:10B1C000039A04990598FFF72AFB1390139B0793A2
:10B1D000079B002B01D0079B00E0139B184615B07E
:10B1E0005DF804FB75DF704700BF184676DF7047D7
:10B1F00000BF18467ADF704700BF18467BDF7047F4
:10B2000000BF184684B00346ADF806300023039310
:10B2100016E00F49039A13469B0013449B000B440E
:10B220001B88BDF806209A4207D1039A13469B005B
:10B2300013449B00064A134406E0039B0133039327
:10B24000039B002BE5D00023184604B0704700BFD5
:10B250008859002082B001900B46ADF80230019B66
:10B26000BDF802201A80019B00221A72019B054939
:10B2700003F10A020B4603CB1060516000BF02B01D
:10B28000704700BFB859002082B00190019B4FF673
:10B29000FF721A8000BF02B0704788B0039002911D
:10B2A00011461A460B46ADF806301346ADF8043089
:10B2B000039B9B881A46BDF8063013440793039BF3
:10B2C0009B881946039B9B88BDF80620934228BFA4
:10B2D00013469BB2CB1A0693039BDB881A46BDF834
:10B2E000043013440593039BDB881946039BDB88DA
:10B2F000BDF80420934228BF13469BB2CB1A049397
:10B30000029B5A88039B1B889A4205D3029B5A884A
:10B31000039B5B889A4201D900231CE0029B9B8817
:10B320001A46069B934205D8029B9B881A46079BA8
:10B33000934201D200230EE0029BDB881A46049B55
:10B34000934205D8029BDB881A46059B934201D2A3
:10B35000002300E00123184608B0704700B583B011
:10B360000190064B9B69002B03D0044B9B6901980D
:10B37000984700BF03B05DF804FB00BF9C59002054
:10B3800000B585B003460091ADF80630BDF8063033
:10B3900000991846FFF726FF0390039B002B05D06A
:10B3A000039B112B02D00398FFF7D8FF039B002BC0
:10B3B0000CBF01230023DBB2184605B05DF804FB87
:10B3C00000B589B00190019B0793079B9BB218467B
:10B3D000FFF718FF0690069B002B42D0069B1A7AB7
:10B3E000224B1B7B9A4215D2079B9AB2069B0A33CB
:10B3F00019461046FFF7C4FF03468DF813309DF839
:10B400001330002B2DD0069B1B7A0133DAB2069B3A
:10B410001A7226E0069B00221A72144B1B7C002B2A
:10B420000FD0079B9BB23B211846FFF7DFFE05902C
:10B43000059B002B05D0059B082B02D00598FFF734
:10B440008DFF0A4B5B69002B0BD000238DF80C306D
:10B45000079B9BB2ADF80E30044B5B6903AA104604
:10B46000984700BF09B05DF804FB00BF9C5900205D
:10B4700030B587B00190019B002B01D10E2353E022
:10B480002B4A019B14461D460FCD0FC495E80700BB
:10B4900084E80700264B274A1A60019B1B68002B93
:10B4A00011D0019B1B681846FFF7A4FE0490049B73
:10B4B000002B01D0049B37E0019B1A681D4B1068DC
:10B4C000516803C308E01B48FFF798FE0490049BF3
:10B4D000002B01D0049B27E00023059320E0059A70
:10B4E00013469B0013449B00134A13440393039891
:10B4F000FFF7CAFE059B5B01104A1A44039B5A6082
:10B50000039B04330E4A0021184606F097FC049072
:10B51000049B002B01D0032306E0059B0133059318
:10B52000059B002BDBD00023184607B030BD00BFC1
:10B530009C590020B85900208859002068590020E3
:10B54000C1B3020000B587B003460091ADF80630E4
:10B55000009B5B7A002B1AD1009B1B7A002B03D136
:10B56000164B5B68059302E0144B9B680593009BA8
:10B570005B68BDF806200599184606F099FC049012
:10B58000049B002B16D00498FFF7E8FE12E0009B06
:10B5900000221A72094B5B69002B0BD001238DF836
:10B5A0000C30BDF80630ADF80E30044B5B6903AAD1
:10B5B0001046984700BF07B05DF804FB9C59002077
:10B5C00000B585B00190019BDB7B8DF80F30019BAE
:10B5D0009B88ADF80C309DF80F30012B2CD14FF625
:10B5E000FF70FFF70FFE0290029B002B03D1042097
:10B5F000FFF7B4FE21E0BDF80C3019460298FFF7C2
:10B6000029FE029B03F10A00019B03F110014FF692
:10B61000FF7340F2F312FFF740FE03461A46029B07
:10B620005A72074BDB89002B07D1BDF80C30029909
:10B630001846FFF787FF00E000BF05B05DF804FB88
:10B640009C59002000B587B00190019B9B88ADF804
:10B650001630BDF816301846FFF7D4FD0490049B51
:10B66000002B0ED0049B5B68184606F079FC039013
:10B67000039B002B02D00398FFF770FE0498FFF79E
:10B6800003FE00BF07B05DF804FB000000B587B003
:10B690000190019B06330593059B1A88194BDB89A2
:10B6A0009A422BD1059B5B89022B27D1019B9B885A
:10B6B000ADF81230BDF812301846FFF7A3FD039025
:10B6C000039B002B1AD0059B0C33184600F06FFC2F
:10B6D0000346002B06D0BDF8123003991846FFF739
:10B6E00031FF0BE0039B5B68184606F039FC0290C3
:10B6F000029B002B02D00298FFF730FE00BF07B07C
:10B700005DF804FB9C59002000B585B00190019BB9
:10B710009B88ADF80E30BDF80E301846FFF772FD6D
:10B720000290029B002B15D0029B03F10A00019BA3
:10B7300003F108014FF6FF7340F2F312FFF7ADFD7E
:10B7400003461A46029B5A72BDF80E3002991846FB
:10B75000FFF7F8FE00BF05B05DF804FB00B583B04D
:10B7600001900091019B1B88502B12D0502B18DCAC
:10B77000122B12D0122B14DC102B02D0112B04D060
:10B780000FE00198FFF71CFF0CE00198FFF75AFF4C
:10B7900008E00198FFF77AFF04E00198FFF7B4FF93
:10B7A00000E000BF00BF03B05DF804FB30B58FB010
:10B7B0000190009100230293009B002B1AD00023DC
:10B7C0000D9314E06B460D99184608F068FA03468D
:10B7D000002B09D0029B5A1C02920D9A92B25B0078
:10B7E00038336B4423F82C2C0D9B01330D930D9BA8
:10B7F000132BE7D9019B1D4602AC0FCC0FC50FCC14
:10B800000FC594E8070085E8070001980FB030BD28
:10B8100000B583B00346ADF80630BDF80630132BF3
:10B8200001D900230CE0BDF806301946064808F09F
:10B8300005FABDF806301946044808F0FFF901235F
:10B84000184603B05DF804FBC8590020C459002015
:10B8500000B585B00346ADF80630002303930DE034
:10B86000039B9B00094A13440433BDF8062011468C
:10B87000184608F0FBF9039B01330393039B1D2B30
:10B88000EED900BF00BF05B05DF804FBC059002031
:10B8900000B583B00346ADF80630BDF80630194652
:10B8A000034808F0E3F900BF03B05DF804FB00BFF4
:10B8B000C859002030B59BB0184B9B68DB431893E8
:10B8C000164B5A6818AB1146184608F047FA189AF2
:10B8D0006B4611461846FFF769FF0DAC6D460FCD5C
:10B8E0000FC40FCD0FC495E8070084E807000023BC
:10B8F00019930BE0199B5B0068336B4433F8303CC1
:10B900001846FFF7A5FF199B013319930D9B199A50
:10B910009A42EFD300BF00BF1BB030BDC05900201A
:10B9200000B583B001900B46ADF8023013468DF898
:10B9300001309DF80130002B06D0BDF802301946C9
:10B94000019808F07BF905E0BDF80230194601982E
:10B9500008F08CF900BF03B05DF804FB00B585B0BA
:10B9600001900091019B9B88ADF80E30019B1B88D4
:10B97000103B0A2B00F2838001A252F823F000BF93
:10B98000ADB90200E9B902007FBA02007FBA020035
:10B990007FBA02007FBA02007FBA02007FBA0200BB
:10B9A0007FBA020053BA0200F5B90200FFF782FF26
:10B9B000BDF80E301846FFF72BFF034683F0010356
:10B9C000DBB2002B05D0304AF021042005F048FE00
:10B9D00052E0019BDB7B022B4ED1BDF80E301946A5
:10B9E0002A4808F02BF947E0BDF80E301846FFF75B
:10B9F0004FFF44E0019B1B7AC3F30313DBB28DF8C6
:10BA00000D309DF80D30032B8CBF01230023DAB2DB
:10BA1000BDF80E3019461E48FFF782FF9DF80D3025
:10BA2000022B8CBF01230023DAB2BDF80E30194679
:10BA30001848FFF775FF9DF80D30012B8CBF0123CF
:10BA40000023DAB2BDF80E3019461348FFF768FF3D
:10BA500015E0019B1B7A002B10D1019B5B7AC3F38D
:10BA6000C0038DF80C309DF80C20BDF80E3019463F
:10BA70000748FFF755FF01E000BF00E000BF00BF2F
:10BA800005B05DF804FB00BFF8860300CC59002028
:10BA9000D8590020D4590020D059002082B0034644
:10BAA0000091ADF80630BDF80630DAB2009B1A708E
:10BAB000BDF806301B0A9AB2009B0133D2B21A704D
:10BAC0000223184602B07047A8DF704700BF18462F
:10BAD00000B585B001900091009B002B14BF01239D
