:020000022000DC
:106000000000012019620200016202000362020026
:10601000056202000762020009620200000000003F
:106020000000000000000000000000000B62020001
:106030000D620200000000000F6202001162020007
:1060400055C402001362020075D102004DE6020041
:1060500081EB02001362020071D002006DD50200D4
:106060001362020013620200136202001362020054
:106070001362020013620200136202001362020044
:10608000136202002118030013620200136202006F
:106090001362020013620200DD5F0300136202005C
:1060A0001362020013620200136202001362020014
:1060B00013620200136202000000000000000000F2
:1060C00013620200136202001362020013620200F4
:1060D000136202001362020013620200000000005B
:1060E00000000000000000000000000000000000B0
:1060F00000000000000000000000000000000000A0
:10610000000000000000000000000000000000008F
:10611000000000000000000000000000000000007F
:10612000000000000000000000000000000000006F
:10613000000000000000000000000000000000005F
:10614000000000000000000000000000000000004F
:10615000000000000000000000000000000000003F
:10616000000000000000000000000000000000002F
:10617000000000000000000000000000000000001F
:10618000000000000000000000000000000000000F
:1061900000000000000000000000000000000000FF
:1061A00000000000000000000000000000000000EF
:1061B00000000000000000000000000000000000DF
:1061C00000000000000000000000000000000000CF
:1061D00000000000000000000000000000000000BF
:1061E00000000000000000000000000000000000AF
:1061F000000000000000000000000000000000009F
:10620000FEE7FEE7FEE7FEE7FEE7FEE7FEE7FEE766
:10621000FEE7FEE700F002B8FFF7FCBF0F484FF0C3
:106220000701884385460E4880470E48016841F4BF
:1062300070010160BFF34F8FBFF36F8F00F01AB88A
:1062400009480A490A4A884207D0521A05D00378F9
:1062500001300B700131013AF9D170470000012083
:10626000E18B020088ED00E060670300582C0020FD
:106270006C2C002039493A480A1A02D0072291436F
:106280008D46384938480A1A06D00722914381F3CF
:106290000988022282F3148834483549354A00F0CF
:1062A0003EF835483549364A00F039F83548364920
:1062B000364A00F034F836483649374A00F02FF8AD
:1062C00036483749374A00F02AF837483749384ABC
:1062D00000F025F837483849384A00F020F83848A7
:1062E0003849002200F033F837483849002200F0DE
:1062F0002EF837483749091A10F0A2F8364A904765
:1063000024482549884205D00268043003B49047E8
:1063100003BCF7E700200021304A9047FEE788429F
:1063200014D0521A12D003460B43134303242342C2
:1063300006D1036804300B600431043AF9D1704788
:10634000037801300B700131013AF9D1704788426E
:1063500002D002700130FAE770470000000001200F
:1063600000E000200000012000000120E89603006A
:106370006C2C0020342D0020E0630200E06302005A
:1063800024660300E89603006C2C00206C2C00208F
:106390007467030074670300746703007467030085
:1063A0007467030074670300746703007467030075
:1063B000E5960300B0970300342D0020482D0020FF
:1063C0004C2D0020D43E0020482D00204C2D0020D4
:1063D000D43E0020D45E00204162020015830200FA
:1063E00000B585B00190019B002B0AD0074B43F00C
:1063F00001030393019B9B010293039B029898471F
:1064000000E000BF05B05DF804FB00BF2069030099
:1064100000B583B00190019B0433184607F020FFBC
:1064200000BF03B05DF804FB00B58FB0039002918C
:10643000009313468DF8073000230D93029B0993B8
:106440009DF807300A93009B0B939DF840300C9306
:10645000039B043309A90022184608F04FF80D9059
:106460000D9B18460FB05DF804FB00B583B001909A
:10647000019B002B0AD04FF47A70FFF7B1FF019B0C
:10648000013B0193019B002BF5D100E000BF03B05D
:106490005DF804FB00B583B00190019B1B681846B2
:1064A00000F04CF80346002B04D105494FF4F67078
:1064B00001F08EF84FF0A043184603B05DF804FBDE
:1064C0007467030000B585B0019001AB1846FFF773
:1064D000E1FF0390019B012202FA03F3194603989E
:1064E00000F018F800BF05B05DF804FB00B585B0FA
:1064F000019001AB1846FFF7CDFF0390019B0122ED
:1065000002FA03F31946039800F00EF800BF05B035
:106510005DF804FB82B001900091019B009AC3F8E2
:10652000082500BF02B0704782B001900091019B26
:10653000009AC3F80C2500BF02B0704784B00190E8
:10654000019B5B09029300230393029B002B03D161
:106550004FF0FF33039300BF019B03F01F03019330
:10656000039A019B22FA03F303F00103DBB21846FE
:1065700004B0704782B001900091034B01221A7061
:1065800000BF02B0704700BF552D002008B5084875
:10659000FFF73EFF074A084BD31ADB081B0443F002
:1065A0000303064918460EF0ABFC00BF08BD00BF50
:1065B00010690300D866030098660300246803008E
:1065C00010B588B003468DF80730344B03AC0FCBC1
:1065D00084E80F009DF80730082B29D801A252F853
:1065E00023F000BF0966020011660200196602006E
:1065F0003166020021660200316602003166020047
:1066000031660200296602004FF00063059310E036
:106610004FF0805305930CE04FF00053059308E0D2
:106620004FF08043059304E04FF00043059300E0F2
:1066300000BF02238DF8103001238DF818300C2391
:106640008DF80E300D238DF80C300E238DF80D30A3
:106650000F238DF80F3000238DF8113003A900238C
:106660000F4A104805F06CFC0790079B002B04D0E4
:106670000D4A9321079809F057FF0C4A0C4BD31A87
:10668000DB081B0443F003039DF807200949184663
:106690000EF044FC00BF08B010BD00BF146803003A
:1066A0007565020010690300A4670300D866030043
:1066B000986603003C6803002DE9F04F8DB002AFEF
:1066C0006B467B60002387F827300B2387F8263042
:1066D00097F82630023387F8253097F8256033463F
:1066E000013B3B62F3B200229A4693464FF0000210
:1066F0004FF000034FEACB0343EA5A734FEACA0252
:10670000F3B20022984691464FF000024FF000038A
:106710004FEAC90343EA58734FEAC80233460733C6
:10672000DB08DB00ADEB030D02ABFB6197F82560E6
:106730003346013BBB61F3B200221C4615464FF0C5
:1067400000024FF00003EB0043EA5473E200F3B29F
:106750000022184611464FF000024FF00003CB0014
:1067600043EA5073C20033460733DB08DB00ADEB6E
:10677000030D02AB7B614123FB74002387F82730B4
:106780000EE097F82730FA690021D15497F82730A6
:106790007A690021D15497F82730013387F82730E0
:1067A00097F8272097F825309A42EAD3FB69FA7CBC
:1067B0001A7097F82630013BDAB2FB695A70FB6910
:1067C000023397F826201E4918460FF05BFE1D4B3A
:1067D00000221A7097F826300233DAB297F8263082
:1067E0000233DBB200937B69F9691748FFF71CFE9F
:1067F000F860FB68002B04D0144AB521F86809F052
:1068000093FE0A20FFF731FE00E020BF0D4B1B78FE
:10681000DBB283F00103DBB2002BF6D10C4A0D4B47
:10682000D31ADB081B0443F003030B4918460EF090
:1068300067FBD7F804D000BF2C37BD46BDE8F08F0A
:106840006C2C0020552D002010690300A467030064
:10685000D8660300986603005868030000B585B049
:1068600004238DF80B30124B00221A700DF10A032D
:106870000DF10B010122009201220E48FFF7D4FD19
:106880000390039B002B06D00B4AC721039809F005
:106890004BFE00E020BF064B1B78DBB283F0010308
:1068A000DBB2002BF6D100BF00BF05B05DF804FBE2
:1068B000552D002010690300A467030000B585B0C2
:1068C00002238DF80B30134B00221A700DF10A03CE
:1068D0000DF10B010122009201220F48FFF7A4FDE8
:1068E0000390039B002B06D00C4ADB21039809F090
:1068F0001BFE00E020BF074B1B78DBB283F00103D7
:10690000DBB2002BF6D10A20FFF7AFFD00BF05B0C8
:106910005DF804FB552D002010690300A4670300F7
:1069200000B585B008238DF80B30124B00221A7089
:106930000DF10A030DF10B010122009201220E4814
:10694000FFF772FD0390039B002B06D00B4AEF214B
:10695000039809F0E9FD00E020BF064B1B78DBB28D
:1069600083F00103DBB2002BF6D100BF00BF05B0FE
:106970005DF804FB552D002010690300A467030097
:1069800000B585B011238DF80B30134B00221A701F
:106990000DF10A030DF10B010122009201220F48B3
:1069A000FFF742FD0390039B002B07D00C4A4FF4E6
:1069B0008171039809F0B8FD00E020BF064B1B78F9
:1069C000DBB283F00103DBB2002BF6D100BF00BFC6
:1069D00005B05DF804FB00BF552D002010690300D1
:1069E000A467030000B585B010238DF80B30134B5E
:1069F00000221A700DF10A030DF10B010122009221
:106A000001220F48FFF710FD0390039B002B07D0D6
:106A10000C4A4FF48B71039809F086FD00E020BF0B
:106A2000064B1B78DBB283F00103DBB2002BF6D1FF
:106A300000BF00BF05B05DF804FB00BF552D00206E
:106A400010690300A467030008B51020FFF74EFD8E
:106A50000A20FFF70AFD00BF08BD08B51020FFF7A8
:106A600031FD4FF47A70FFF700FD00BF08BD000054
:106A700000B589B053238DF81F3020238DF81030D6
:106A800000238DF8113000238DF81230324B002294
:106A90001A7002AB04A90622009202222F48FFF7C7
:106AA000C3FC0690069B002B07D02D4A40F24311F1
:106AB000069809F039FD00E020BF274B1B78DBB2B8
:106AC00083F00103DBB2002BF6D10A20FFF7CDFCE7
:106AD0009DF80B308DF817309DF817209DF81F306A
:106AE0009A420DD11F4A204BD31ADB081B0443F0F6
:106AF00003039DF817201D4918460EF00FFA27E0F2
:106B0000184A194BD31ADB081B0443F003009DF805
:106B100008301A469DF8093019469DF80A3000934E
:106B20000B4613490EF01FFA0E4A0F4BD31ADB081F
:106B30001B0443F003009DF80B301A469DF80C30FF
:106B400019469DF80D3000930B460A490EF00BFADA
:106B500000BF09B05DF804FB552D0020106903004B
:106B6000A4670300D8660300986603008C680300DE
:106B7000A8680300DC68030000B585B003901F4BD4
:106B800000221A70092300931D4B002200211D488A
:106B9000FFF74AFC00E020BF184B1B78DBB283F004
:106BA0000103DBB2002BF6D1154B1B781A46144BB0
:106BB0005B781344124A92781344C02B1AD1039B7A
:106BC0005B8F1033039A1344063303220E49184691
:106BD0000FF058FC039B5B8F2833039A1344032266
:106BE0000A4918460FF04EFC039B5B8F03339AB2A1
:106BF000039B5A8700BF05B05DF804FB552D0020AC
:106C00004C2D0020106903004F2D0020522D002034
:106C1000A8DF704700BF1846ACDF704700BF1846BA
:106C2000AEDF704700BF184600B585B001900091F7
:106C3000019B1B7D83F00103DBB2002B2AD1009B5B
:106C400006330393039B1A88019B5B899A4224D1E4
:106C5000039B5B89022B20D1019B1B68002B1BD05F
:106C6000039B0C33184604F0B2FA0346002B03D002
:106C700000238DF8083002E001238DF80830009BD6
:106C80009B88ADF80A30019B1B6802AA1146019847
:106C9000984702E000BF00E000BF05B05DF804FBCC
:106CA00000B585B001900091009B002B0DD0019B99
:106CB000002B0AD0009B0393019B1B88502B06D10D
:106CC00001990398FFF7B0FF02E000BF00E000BFAA
:106CD00005B05DF804FB00B593B001900091009BF6
:106CE0001B7BADF80A3008AB2022002118460FF0BC
:106CF000FBFB42F61923ADF820300223ADF8243017
:106D00000223ADF826300DF10A030A93019B1A7D88
:106D10009DF82D3062F304138DF82D309DF82D3041
:106D200043F002038DF82D30009B9B7B8DF83330B0
:106D3000009B5B7B8DF83130019B9888019B9A1DED
:106D400008AB194604F0DAFA1190119B002B01D020
:106D5000119B2EE0009B9B68002B26D06423ADF88E
:106D6000423003AB1422002118460FF0BDFB42F65F
:106D70000813ADF80C30009BDB7B8DF81230BDF8AA
:106D80004230ADF81630BDF81630ADF81A3002AB0F
:106D90000793019BD888019B03F10E0203AB1946B0
:106DA00004F0BEFB1190119B03E0019B0022DA81ED
:106DB0000023184613B05DF804FB00B587B00190BE
:106DC0000091019B002B02D0009B002B01D10E23D0
:106DD00026E0009B1A68019B1A60009B1A79019BB0
:106DE0001A75019BFF221A8201238DF80E3041F69D
:106DF0000F03ADF80C30019B1A1D03AB194601209F
:106E0000FFF706FF0590059B0493049B002B01D020
:106E1000049B05E000990198FFF75DFF0590059B35
:106E2000184607B05DF804FB00B585B001900B462D
:106E3000ADF80230BDF8023001991846FFF7F0FEB8
:106E40000390039B184605B05DF804FB00B597B0AE
:106E500001900B46ADF802301346ADF80030019BAF
:106E6000002B01D10E238BE000231593019B1A8A7E
:106E7000BDF802309A4200F0828012AB0822002155
:106E800018460FF031FB0223ADF848300023ADF86F
:106E90004A300DF102031393019BDB8812AA1946B5
:106EA0004FF6FF70FFF7B8FE1590159B002B08D129
:106EB000BDF80220019B1A82019B1B7D002B5CD038
:106EC00001E0159B5CE00EAB1022002118460FF08C
:106ED0000BFB019BDB88ADF8383001238DF83A308D
:106EE000BDF84A30ADF83C3012AB1093139B1193B0
:106EF000BDF800304FF6FE72934235D103AB184611
:106F000003F0C8FE0023149329E0149B5B00583360
:106F10006B4433F8483C184603F092FE0346022BBC
:106F20001AD1159B002B0CD1149B5B0058336B447A
:106F300033F8482C0EAB11461846FFF775FF159035
:106F40000AE0149B5B0058336B4433F8482C0EABBB
:106F500011461846FFF768FF149B01331493039BF7
:106F6000149A9A42D1D30AE0BDF800200EAB114624
:106F70001846FFF759FF159001E008231593159B5C
:106F8000184617B05DF804FBA8DF704700BF18462D
:106F9000AADF704700BF1846AEDF704700BF184633
:106FA00062DF704700BF184682B001900091009BDD
:106FB0001B88102B02D0112B05D009E0009B9A886A
:106FC000019B5A8004E0019B4FF6FF725A8000BF7C
:106FD00000BF02B07047000000B599B001900023D7
:106FE000179310AB1222002118460FF07DFA0123EF
:106FF0008DF856304EF6F163ADF8543009AB1C22D3
:10700000002118460FF070FA9DF8243043F0020377
:107010008DF824309DF8243023F008038DF82430B7
:107020009DF82030012262F303038DF820309DF893
:107030002030012262F307138DF820309DF82130B3
:10704000012262F303038DF821309DF821300122E3
:1070500062F307138DF821309DF82230012262F38C
:1070600042038DF8223008AB0E939DF8243043F094
:1070700010038DF8243007AB0322002118460FF0CF
:1070800033FA9DF81E30012262F342038DF81E3060
:107090009DF81E3043F001038DF81E309DF81C3022
:1070A000012262F303038DF81C309DF81C3001228D
:1070B00062F307138DF81C309DF81D30012262F336
:1070C00003038DF81D309DF81D30012262F3071374
:1070D0008DF81D3002AB1422002118460FF004FA7F
:1070E00015AB029307AB03931223ADF810300023C6
:1070F000ADF812301223ADF8143010AB0693019B9B
:107100009888019B063302AA09A9FFF741FF17904F
:10711000179B1693169B002B04D0054A5A211698EC
:1071200009F002FA0023184619B05DF804FB00BF0D
:107130003069030000B599B001900023179310AB9C
:107140001222002118460FF0CFF901238DF8563096
:107150004EF6F263ADF8543009AB1C2200211846FC
:107160000FF0C2F99DF8243043F002038DF824306B
:107170009DF8243023F008038DF824309DF820304A
:10718000012262F303038DF820309DF820300122A4
:1071900062F307138DF820309DF82130012262F34D
:1071A00003038DF821309DF82130012262F307138B
:1071B0008DF821309DF82230012262F342038DF8D0
:1071C000223008AB0E939DF8243043F010038DF865
:1071D000243007AB0322002118460FF085F99DF8F3
:1071E0001E30012262F342038DF81E309DF81E30DE
:1071F00043F001038DF81E309DF81C30012262F32C
:1072000003038DF81C309DF81C30012262F3071334
:107210008DF81C309DF81D30012262F303038DF8B8
:107220001D309DF81D30012262F307138DF81D30CB
:1072300002AB1422002118460FF056F915AB029349
:1072400007AB03931223ADF810300023ADF81230D2
:107250001223ADF8143010AB0693019B9888019B64
:107260000E3302AA09A9FFF793FE1790179B1693F6
:10727000169B002B04D0054A8521169809F054F975
:107280000023184619B05DF804FB00BF3069030005
:1072900010B58CB001901C4B03AC0FCB84E80F00F1
:1072A000019A03AB11461846FFF77AFE0B900B9B31
:1072B0000A930A9B002B04D0144A95210A9809F0DE
:1072C00033F9019B1B788DF81E304EF6F063ADF854
:1072D0001C300DF1220207AB19460120FFF754FEC6
:1072E0000B900B9B0993099B002B04D0074A9B2111
:1072F000099809F019F90198FFF76EFE0198FFF758
:1073000019FF00BF0CB010BDA06903003069030075
:1073100000B589B00190019B5B884FF6FF729342E4
:107320001AD01223ADF81A30019BDB88ADF8083073
:1073300001238DF80A300023ADF80C300DF11A034B
:107340000493019B16330593019B5B8802AA1146A7
:107350001846FFF721FE0790079B132B0BD1084A15
:10736000084BD31ADB081B0443F00303079A0649B2
:1073700018460DF0D3FD00BF09B05DF804FB00BF57
:10738000D866030098660300B069030076DF704793
:1073900000BF184677DF704700BF18467ADF704796
:1073A00000BF18467CDF704700BF1846B0DF70474B
:1073B00000BF184669DF704700BF184666DF704798
:1073C00000BF184600B585B00190019B002B0AD084
:1073D000074B43F001030393019B9B010293039B23
:1073E0000298984700E000BF05B05DF804FB00BFBD
:1073F000006C030000B583B00190019B1B68184628
:1074000000F0A1F80346002B04D105494FF4F670B3
:1074100000F0DEF84FF0A043184603B05DF804FB1F
:10742000D469030000B585B00190084611461A469C
:1074300003468DF803300B468DF8023013468DF865
:10744000013001AB1846FFF7D5FF03909DF80320EC
:107450009DF802305B001A439DF801309B001A43EF
:107460009DF818301B0242EA03019DF81C301B04F2
:10747000019A1943039B02F5E07243F8221000BF02
:1074800005B05DF804FB00B587B003900B468DF89E
:107490000B309DF80B30002B0AD103980023019389
:1074A00000230093002300220021FFF7BBFF0AE026
:1074B00003AB1846FFF79EFF0590039B01229A40FD
:1074C000059BC3F8182500BF07B05DF804FB00B5A5
:1074D00085B0019001AB1846FFF78CFF0390019B2C
:1074E000012202FA03F31946039800F018F800BFCE
:1074F00005B05DF804FB00B585B0019001AB1846FE
:10750000FFF778FF0390019B012202FA03F319466B
:10751000039800F00EF800BF05B05DF804FB82B0E0
:1075200001900091019B009AC3F8082500BF02B0AA
:10753000704782B001900091019B009AC3F80C251E
:1075400000BF02B0704784B00190019B5B090293B9
:1075500000230393029B002B03D14FF0FF330393CF
:1075600000BF019B03F01F030193039A019B22FAC2
:1075700003F303F00103DBB2184604B0704700B513
:1075800083B00190019B002B0AD04FF47A70FFF773
:1075900019FF019B013B0193019B002BF5D100E0FA
:1075A00000BF03B05DF804FB00B583B0019000910B
:1075B000019B002B01D1054B01930099019806F026
:1075C00001F90346184603B05DF804FBFC6B0300A9
:1075D00000B583B003460091ADF80630BDF8063023
:1075E000009A1946034808F09FFF00BF03B05DF8FA
:1075F00004FB00BFEFBEADDE82B00190024B002263
:107600001A8000BF02B07047BC2D002000B583B0C7
:107610000120FFF75CFF06F07BFA0190019B0093CD
:10762000009B002B05D0054A40F21711009808F086
:107630007BFF00BF03B05DF804FB00BF046A0300DA
:1076400000B583B00190FFF7E1FF00BF03B05DF824
:1076500004FB000000B585B009F016FB0390039B06
:107660000293029B002B05D0154A4FF496710298A5
:1076700008F05AFF134A0121134809F043FB039015
:10768000039B0193019B002B05D00D4A40F2391159
:10769000019808F049FF0D4A01210D4809F032FB1D
:1076A0000390039B0093009B002B05D0044A4FF4EA
:1076B0009F71009808F038FF00BF05B05DF804FB2B
:1076C000046A0300F9750200F86B030041760200BA
:1076D000F46B030000B587B09DF80030012262F31F
:1076E00003038DF800309DF80030012262F3071388
:1076F0008DF800306B460A221B491846FFF752FEF0
:107700000590059B0493049B002B05D0174A40F27B
:107710005B11049808F008FF01AB0822002118460D
:107720000EF0E2FE0623ADF804301023ADF806306B
:107730000023ADF808304FF4C873ADF80A3001AB40
:107740001846FFF72BFE0590059B0393039B002B28
:1077500005D0064A4FF4B471039808F0E5FE00BF67
:1077600007B05DF804FB00BF6C6A0300046A030005
:1077700000B583B00021094804F066F90190019B2F
:107780000093009B002B05D0054A4FF4B871009878
:1077900008F0CAFE00BF03B05DF804FBC02D002056
:1077A000046A030000B599B02D48FFF771FD11ABD5
:1077B0001022002118460EF097FE0023119301239A
:1077C0008DF848300023139364238DF85030012343
:1077D0008DF8513001238DF8523001238DF853304C
:1077E00011AB19461F48FFF7E8FA1790179B16933D
:1077F000169B002B05D01C4A40F29711169808F0F2
:1078000093FE01AB4022002118460EF06DFE01AB45
:107810001649184603F0EDFC01AB0833144918462D
:1078200003F0E7FC01AB20331249184603F0E1FCFA
:1078300001238DF8403001AB184603F0A3FB1790ED
:10784000179B1593159B002B05D0074A40F2A111F9
:10785000159808F069FE00BF19B05DF804FB00BF81
:10786000582D0020A42D0020046A0300786A03002C
:10787000846A0300906A030000B585B00190019B03
:107880001B78002B11D10B4B1B883B211846FFF7AF
:107890007DFD0390039B0293029B002B05D0064ABB
:1078A0004FF4DA71029808F03FFE00BF05B05DF8B2
:1078B00004FB00BFB82C0020046A030000B583B0AD
:1078C0000190054A4FF4DF71019808F02DFE00BFCA
:1078D00003B05DF804FB00BF046A030000B58BB081
:1078E00001AB1C22002118460EF0FEFD002301937F
:1078F0004FF4A03302934FF4F023039303238DF846
:1079000010300023ADF8123000238DF814300C4BEA
:1079100006930C4B079301AB184602F063FE0990E7
:10792000099B0893089B002B05D0074A4FF4EA7186
:10793000089808F0F9FD00BF0BB05DF804FB00BF2C
:1079400079780200BD780200046A030000B585B0B2
:10795000144B00224FF48041184609F00DFA0390B1
:10796000039B0293029B002B05D00F4A4FF4F17149
:10797000029808F0D9FD0D4B00224FF4A0311846B3
:1079800009F0FAF90390039B0193019B002B05D0AA
:10799000054A4FF4F671019808F0C6FD00BF05B026
:1079A0005DF804FB982C0020046A0300782C00206A
:1079B00000B583B003468DF807309DF80730002BE3
:1079C0000DD0032B0DD1094A094BD31ADB081B0438
:1079D00043F00303074918460DF092FA02E000BF96
:1079E00000E000BF00BF03B05DF804FBD8660300F1
:1079F00098660300A06A030000B583B0019000916F
:107A00000949019804F04CF808490198FFF748F932
:107A100001990748FFF7C8FA019800F00BF800BF7A
:107A200003B05DF804FB00BFC02D0020A42D002092
:107A3000582D002010B590B0019000230F93019BAA
:107A40001B88572B00F30B813B2B0ADA112B49D0F3
:107A5000112B00F30481012B00F0B380102B54D0C4
:107A6000FDE03B3B1C2B00F2FA8001A252F823F010
:107A70003F7B02005F7C02005F7C02005F7C0200B3
:107A80005F7C02005F7C02005F7C02005F7C020082
:107A90005F7C02005F7C02005F7C02005F7C020072
:107AA0005F7C02005F7C02005F7C02005F7C020062
:107AB0005F7C02005F7C02005F7C02005F7C020052
:107AC0005F7C02005F7C0200E97B02005F7C0200B9
:107AD0005F7C02005F7C02005F7C0200817B020011
:107AE0005F7C0200634A644BD31ADB081B0443F03B
:107AF0000303624918460DF003FA614B00221A7025
:107B0000FEF7ACFE00F0FEF9B0E0FEF73FFD02200C
:107B1000FEF756FDFEF7D2FE564A574BD31ADB0846
:107B20001B0443F00303574918460DF0E9F9019B84
:107B30009A88554B1A80524B01221A7096E04D4A92
:107B40004D4BD31ADB081B0443F003034F4918467F
:107B50000DF0D6F9019B9B8813211846FFF716FC00
:107B60000F90474B00221A700F9B0C930C9B002B1D
:107B700077D0474A40F261210C9808F0D5FC70E0BC
:107B80003C4A3D4BD31ADB081B0443F00303414935
:107B900018460DF0B5F9019B9B8813211846FFF795
:107BA000F5FB0F900F9B0E930E9B002B05D0384AD0
:107BB00040F269210E9808F0B7FC314B00221A7090
:107BC00054E0019B9B8800211846FFF7F7FB0F90BC
:107BD0000F9B0B930B9B002B45D02D4A40F27A2133
:107BE0000B9808F0A1FC3EE0019B07AC0633186837
:107BF00059689A68DB680FC49DF81C30002B34D09C
:107C00009DF82430042B07D09DF82430062B03D098
:107C10009DF82430052B28D19DF81C30022B03D170
:107C200002238DF80C3002E001238DF80C304FF464
:107C3000C173ADF81030019B9B8803AA114618460A
:107C4000FFF7B4FB0F900F9B0D930D9B002B0CD0F7
:107C50000F4A4FF424710D9808F066FC05E000BF50
:107C600004E000BF02E000BF00E000BF00BF10B0B2
:107C700010BD00BFD866030098660300B46A030015
:107C8000942D0020C46A0300B82C0020D46A03009D
:107C9000046A0300EC6A030000B58FB00EF0BEF872
:107CA0000D900D9B0C930C9B002B05D0634A4FF459
:107CB0002B710C9808F038FC0023049304AB194690
:107CC00001200EF0C1F90D900D9B0B930B9B002B27
:107CD00005D05A4A40F2B1210B9808F025FC01ABBF
:107CE0000C22002118460EF0FFFB02238DF8043011
:107CF000049A01AB19460120FFF75CFB0D900D9B28
:107D00000A930A9B002B05D04C4A40F2BA210A98EC
:107D100008F00AFC01AB0C22002118460EF0E4FB2F
:107D200001238DF8053000238DF8063000238DF8EF
:107D30000730049A01AB19464020FFF73BFB0D903A
:107D40000D9B0993099B002B05D03C4A40F2C221B0
:107D5000099808F0E9FB01AB0C22002118460EF04F
:107D6000C3FB01238DF804301723ADF80630049AC5
:107D700001AB19462320FFF71DFB0D900D9B0893C7
:107D8000089B002B05D02D4A40F2C921089808F025
:107D9000CBFB01AB0C22002118460EF0A5FB012302
:107DA0008DF804304FF4A073ADF8083001238DF83E
:107DB0000630049A01AB19462020FFF7FBFA0D901C
:107DC0000D9B0793079B002B05D01C4A40F2D12145
:107DD000079808F0A9FB01AB0C22002118460EF011
:107DE00083FB01238DF8043020238DF80630049A9C
:107DF00001AB19462220FFF7DDFA0D900D9B06938B
:107E0000069B002B05D00D4A4FF43671069808F0FA
:107E10008BFB04AB18460EF00BFA0D900D9B0593EF
:107E2000059B002B05D0054A40F2DD21059808F09E
:107E30007BFB00BF0FB05DF804FB00BF046A0300CA
:107E400000B5AFB001ABAC22002118460EF04CFBE0
:107E500002238DF8043001238DF8063006238DF8B7
:107E600007300323ADF81430144B069301238DF82B
:107E70007C3001238DF880304FF49673239344F2C5
:107E8000506324930E4B2A9301AB19460D4802F020
:107E900047F82D902D9B2C932C9B002B05D00A4A44
:107EA00040F203312C9808F03FFB0121054802F015
:107EB0002AF800BF2FB05DF804FB00BFBC2C0020E7
:107EC000B1790200D42D0020046A030000B583B00C
:107ED0004FF4804100200CF03DFD0190019B009388
:107EE000009B002B05D0064A40F20D31009808F0A7
:107EF0001BFB0CF0B1FC00BF03B05DF804FB00BF3E
:107F0000046A030000B583B00F4A104BD31ADB0894
:107F10001B0443F003030E4918460CF0F1FF032144
:107F20000C4802F0D5F80190019B0093009B002BB8
:107F300005D0094A40F21631009808F0F5FA00BF62
:107F400003B05DF804FB00BFD86603009866030029
:107F5000146B0300D42D0020046A030000B587B021
:107F60000190019B1B78002B66D1019B5B6804216B
:107F7000184605F029FD0490049B0393039B002BF6
:107F800005D02F4A40F23531039808F0CDFA2D4A3A
:107F90002D4BD31ADB081B0443F003032B4A126852
:107FA0002B4918460CF0BAFF0023059314E0254A2C
:107FB000254BD31ADB081B0443F00300019B5A68CE
:107FC000059B5B001344B3F900301A4621490CF0BD
:107FD000A5FF059B01330593059B032BE7DD019B63
:107FE0005B680633B3F900309AB21B4B5A821A4BC6
:107FF0005B8A4FF6FE7219461748FEF727FF04907A
:10800000049B002B10D0049B082B0DD0049B132B3A
:108010000AD0049B43F20142934205D0084A40F241
:108020004331049808F080FA084B1B680133074A73
:1080300013600120FFF75FFA00BF07B05DF804FB93
:10804000046A0300D866030098660300A02D002090
:108050002C6B03004C6B0300A42D002000B589B0ED
:1080600001238DF80F3002238DF80C3002238DF898
:108070000D3006238DF80E30214A6B4607CA03C324
:108080001A7003AB1F491846FFF78EFA0790079B3B
:108090000693069B002B05D01B4A40F259310698E7
:1080A00008F042FA6B461946002005F0FBFB0790EA
:1080B000079B0593059B002B05D0134A4FF457717E
:1080C000059808F031FA114BD3F818350F4A43F0F0
:1080D0008073C2F8183504210D4805F075FC07902F
:1080E000079B0493049B002B05D0074A40F26331A1
:1080F000049808F019FA00BF09B05DF804FB00BF4E
:10810000586B03005D7F0200046A030000700040AA
:10811000982D002000B583B001900B468DF80330F8
:108120000D4B1B78002B12D00C48FEF725FD0C4B95
:108130001B8801339AB20A4B1A80084B5B8F122BB3
:1081400005D1064B00225A870448FFF7E1F800BF2B
:1081500003B05DF804FB00BF942D0020582D0020D3
:10816000BC2D002000B587B00023059304F0E0FD8E
:10817000034683F00103DBB2002B02D004F074FD50
:10818000059000210B20FFF77EF901211020FFF759
:108190007AF9374A374BD31ADB081B0443F005033F
:1081A000059A354918460CF0B9FE0CF01BFF034642
:1081B000002BFAD1059B0493049B002B05D02F4A7A
:1081C00040F29931049808F0AFF901238DF80F308F
:1081D00002238DF8043000238DF805309DF8063019
:1081E00023F001038DF806309DF806309DF80F202E
:1081F00062F341038DF806309DF8063023F0040346
:108200008DF806309DF8063043F001038DF80630F6
:1082100000238DF8053001AB194A19460B2004F0F4
:1082200093FD0590124A134BD31ADB081B0443F04D
:108230000503059A134918460CF070FE0CF0D2FEA7
:108240000346002BFAD1059B0293029B002B05D01D
:108250000A4A40F2A131029808F066F901210B2088
:1082600004F0F0FDFEF7F0FB00BF07B05DF804FB83
:10827000D866030098660300646B0300046A030079
:1082800015810200846B030000B589B003468DF8A8
:1082900007301A4A1A4BD31ADB081B0443F00303B6
:1082A000184918460CF02CFE174A03AB07CA03C343
:1082B0001A709DF80730082B02D908238DF8073073
:1082C000124B93F8543019469DF8073020336B4415
:1082D00013F9143C1A460120FFF75CF80790079B3E
:1082E0000693069B002B05D0094A40F2B33106984D
:1082F00008F01AF900BF09B05DF804FBD866030066
:1083000098660300A86B0300CC6B0300D42D0020FB
:10831000046A030008B5FFF7D9FDFFF79BF9FFF7E3
:10832000BBFCFFF7D7F9FFF723FAFFF789FD082019
:10833000FFF7AAFFFFF736FAFFF7D0FAFFF712FFB1
:10834000FEF782FBFEF789FB0120FEF739F90520D5
:10835000FFF715F9FEF714FBFEF7AEF9FEF7E0FAAA
:10836000FEF786FBFEF73EFBFEF778FA0A20FFF7E2
:1083700006F9114B00225A87FFF770FE0F4A104B87
:10838000D31ADB081B0443F005030E4918460CF012
:10839000B7FDFFF7DBFAFFF7B5FD0CF023FE034650
:1083A000002BFAD1084B00221A8020BF0CF01AFED5
:1083B0000346002BFAD1F8E7582D0020D8660300B9
:1083C00098660300D86B0300BC2D002084B0019098
:1083D0000B468DF8033013468DF8023000230393CB
:1083E000019B032B3CD89DF80230012B0BD19DF84B
:1083F0000330012B04D1019BDBB20E33DBB200E072
:1084000000238DF802309DF80330022B0FD0022B91
:1084100023DC002B16D0012B1FD11449019A1346DF
:108420005B0013440B449DF802201A701AE00F49B8
:10843000019A13465B0013440B4401339DF802205C
:108440001A700FE00949019A13465B0013440B446C
:1084500002339DF802201A7004E00723039301E021
:1084600007230393039B184604B07047083200208B
:1084700000B583B0012200210020FFF7A7FF019083
:10848000019B002B04D0019B072B01D0019B1CE01A
:10849000072202210120FFF799FF0190019B002B89
:1084A00004D0019B072B01D0019B0EE00422022186
:1084B0000020FFF78BFF0190019B002B04D0019B54
:1084C000072B01D0019B00E00023184603B05DF8A4
:1084D00004FB00B583B0012202210020FFF776FFE4
:1084E0000190019B002B04D0019B072B01D0019B25
:1084F0001CE0072202210120FFF768FF0190019B89
:10850000002B04D0019B072B01D0019B0EE00A2217
:1085100000210020FFF75AFF0190019B002B04D09F
:10852000019B072B01D0019B00E00023184603B0FC
:108530005DF804FB00B585B001900091019B1B889C
:10854000102B02D0112B18D02FE01A4B1B68002BD8
:108550000DD1FFF78DFF0390039B002B07D0164B27
:108560001B68002B03D0144B1B6803989847114BD2
:108570001B6801330F4A136017E00E4B1B68013B69
:108580000C4A13600B4B1B68002B0DD1FFF7A1FFAA
:108590000390039B002B07D0074B1B68002B03D0D5
:1085A000054B1B680398984700BF00BF05B05DF8F6
:1085B00004FB00BF1832002014320020BFF34F8F9D
:1085C00000BF064BDB6803F4E0620449044B13432D
:1085D000CB60BFF34F8F00BF00BFFDE700ED00E0B1
:1085E0000400FA0582B01D4B1B68B3F1FF3F0AD1AE
:1085F0001B4B1B68DBB201931A4B1B681B0903F072
:108600000F03009305E0154B1B680193164B1B6885
:108610000093019B062B1DD1009B033B042B17D815
:1086200001A252F823F000BF3D86020041860200FD
:1086300045860200498602004D86020001230AE0B9
:10864000012308E0012306E0012304E0012302E006
:10865000012300E00023184602B0704730010010EB
:10866000E00F00F0E80F00F03401001082B0174B6B
:108670001B68DBB20193164B1B681B0903F00F0349
:108680000093019B062B1DD1009B033B042B17D8A5
:1086900001A252F823F000BFAD860200B1860200AD
:1086A000B5860200B9860200BD86020001230AE0F9
:1086B000002308E0002306E0002304E0002302E09A
:1086C000002300E00023184602B07047E00F00F0DE
:1086D000E80F00F082B01D4B1B68B3F1FF3F0AD1D9
:1086E0001B4B1B68DBB201931A4B1B681B0903F081
:1086F0000F03009305E0154B1B680193164B1B6895
:108700000093019B062B1DD1009B033B042B17D824
:1087100001A252F823F000BF2D870200318702002A
:1087200035870200398702003D87020001230AE0F5
:10873000012308E0012306E0012304E0012302E015
:10874000012300E00023184602B0704730010010FA
:10875000E00F00F0E80F00F03401001082B0174B7A
:108760001B68DBB20193164B1B681B0903F00F0358
:108770000093019B062B1DD1009B033B042B17D8B4
:1087800001A252F823F000BF9D870200A1870200DA
:10879000A5870200A9870200AD87020001230AE035
:1087A000002308E0002306E0002304E0002302E0A9
:1087B000002300E00023184602B07047E00F00F0ED
:1087C000E80F00F082B01D4B1B68B3F1FF3F0AD1E8
:1087D0001B4B1B68DBB201931A4B1B681B0903F090
:1087E0000F03009305E0154B1B680193164B1B68A4
:1087F0000093019B062B1DD1009B033B042B17D834
:1088000001A252F823F000BF1D8802002188020057
:1088100025880200298802002D88020001230AE031
:10882000012308E0012306E0012304E0012302E024
:10883000012300E00023184602B070473001001009
:10884000E00F00F0E80F00F03401001082B0174B89
:108850001B68DBB20193164B1B681B0903F00F0367
:108860000093019B062B1DD1009B033B042B17D8C3
:1088700001A252F823F000BF8D8802009188020007
:1088800095880200998802009D88020001230AE071
:10889000002308E0002306E0002304E0002302E0B8
:1088A000002300E00023184602B07047E00F00F0FC
:1088B000E80F00F082B0174B1B68DBB20193164B38
:1088C0001B681B0903F00F030093019B062B1DD1AE
:1088D000009B033B042B17D801A252F823F000BFE2
:1088E000F5880200F9880200FD8802000189020073
:1088F0000589020001230AE0002308E0002306E0C6
:10890000002304E0002302E0002300E000231846D7
:1089100002B07047E00F00F0E80F00F082B01D4B8E
:108920001B68B3F1FF3F0AD11B4B1B68DBB20193FD
:108930001A4B1B681B0903F00F03009305E0154B4E
:108940001B680193164B1B680093019B062B1DD1DE
:10895000009B033B042B17D801A252F823F000BF61
:1089600075890200798902007D89020081890200EF
:108970008589020000230AE0002308E0012306E0C5
:10898000012304E0012302E0012300E00023184654
:1089900002B0704730010010E00F00F0E80F00F067
:1089A0003401001082B01D4B1B68B3F1FF3F0AD1A8
:1089B0001B4B1B68DBB201931A4B1B681B0903F0AE
:1089C0000F03009305E0154B1B680193164B1B68C2
:1089D0000093019B062B1DD1009B033B042B17D852
:1089E00001A252F823F000BFFD890200018A0200B3
:1089F000058A0200098A02000D8A020001230AE0AA
:108A0000012308E0012306E0012304E0012302E042
:108A1000012300E00023184602B070473001001027
:108A2000E00F00F0E80F00F03401001082B01D4BA1
:108A30001B68B3F1FF3F0AD11B4B1B68DBB20193EC
:108A40001A4B1B681B0903F00F03009305E0154B3D
:108A50001B680193164B1B680093019B062B1DD1CD
:108A6000009B033B042B17D801A252F823F000BF50
:108A7000858A0200898A02008D8A0200918A02009A
:108A8000958A020001230AE0012308E0012306E0A1
:108A9000012304E0012302E0012300E00023184643
:108AA00002B0704730010010E00F00F0E80F00F056
:108AB0003401001082B0154B1B680193144B1B68E6
:108AC0000093019B062B1DD1009B033B042B17D861
:108AD00001A252F823F000BFED8A0200F18A0200E1
:108AE000F58A0200F98A0200FD8A020000230AE0EA
:108AF000002308E0002306E0012304E0012302E054
:108B0000012300E00023184602B070473001001036
:108B10003401001082B0154B1B680193144B1B6885
:108B20000093019B062B1DD1009B033B042B17D800
:108B300001A252F823F000BF4D8B0200518B0200BE
:108B4000558B0200598B02005D8B020000230AE066
:108B5000002308E0002306E0002304E0012302E0F4
:108B6000012300E00023184602B0704730010010D6
:108B70003401001008B5FFF7CDFF0346002B07D0E6
:108B80004FF010234FF08042D3F80832C2F8583526
:108B900000BF08BD00BF044BD3F80034002BFAD04F
:108BA00000BF00BF704700BF00E0014000B583B0C8
:108BB0000190054A019BC2F80435FFF7EBFF00BFA7
:108BC00003B05DF804FB00BF00E00140024B034A24
:108BD0001A6000BF704700BFC82C00200090D0036F
:108BE00008B5FFF7FFFC0346002B06D0964B1B6829
:108BF0001B0A964A03F01F031360FFF737FD034675
:108C0000002B02D0924B934A1A60FFF763FD034694
:108C1000002B06D0904B1B685B0B904A03F00703B8
:108C20001360FFF79BFD0346002B05D08C4BDB68E0
:108C30008B4A23F08073D360FFF7C4FD0346002BFB
:108C40000ED04FF080430022C3F80C214FF0804338
:108C50000022C3F810214FF080430022C3F83825CA
:108C6000FFF7F4FD0346002B02D07E4B03221A606F
:108C7000FFF720FE0346002B0BD07B4B05221A602A
:108C80007A4B01221A607A4B00221A60794B3F22FC
:108C90001A60FFF743FE0346002B76D04FF0805357
:108CA000754AD3F80434C2F820354FF08053724A25
:108CB000D3F80834C2F824354FF080536E4AD3F805
:108CC0000C34C2F828354FF080536B4AD3F8103477
:108CD000C2F82C354FF08053674AD3F81434C2F8E9
:108CE00030354FF08053644AD3F81834C2F8343525
:108CF0004FF08053604AD3F81C34C2F840354FF02F
:108D000080535D4AD3F82034C2F844354FF0805385
:108D1000594AD3F82434C2F848354FF08053564AA4
:108D2000D3F82834C2F84C354FF08053524AD3F868
:108D30002C34C2F850354FF080534F4AD3F83034BA
:108D4000C2F854354FF080534B4AD3F83434C2F84C
:108D500060354FF08053484AD3F83834C2F8643550
:108D60004FF08053444AD3F83C34C2F868354FF092
:108D70008053414AD3F84034C2F86C354FF08053E9
:108D80003D4AD3F84434C2F87035FFF70BFE034672
:108D9000002B05D0394B1B68394A03F04F03136091
:108DA000FFF744FE0346002B0DD04FF08043D3F86D
:108DB000003403F00103002B05D04FF080436FF027
:108DC0000102C3F80024FFF775FE0346002B05D00F
:108DD0002C4B1B682B4A43F4806313602A4BD3F857
:108DE0008830294A43F47003C2F88830BFF34F8FAC
:108DF00000BFBFF36F8F00BFFFF7BCFE4FF0102323
:108E0000D3F80032002B05DB4FF01023D3F80432E7
:108E1000002B15DA0120FFF7C9FE4FF010231522B1
:108E2000C3F80022FFF7B6FE4FF010231522C3F857
:108E30000422FFF7AFFE0020FFF7B8FEFFF7BEFBEE
:108E4000FFF7C4FE00BF08BD2403001040350140F9
:108E500074C007400DF0ADBA440200103C0500405C
:108E6000F0ED00E0A005004010560040885600409C
:108E7000185600401456004000C000405802001030
:108E8000E40E00403C17004000ED00E06DDF70474D
:108E900000BF184679DF704700BF18467DDF704776
:108EA00000BF184664DF704700BF184682B0034613
:108EB0000091ADF80630BDF80630DAB2009B1A70AA
:108EC000BDF806301B0A9AB2009B0133D2B21A7069
:108ED0000223184602B0704700B589B00390029192
:108EE0001346ADF80630029B1B8803F10902BDF85A
:108EF00006309A4201D90C2353E004AB1846FFF721
:108F0000C5FF0790079B0693069B002B01D0069B8D
:108F100047E0029B1B881A46039B134408221A70E1
:108F2000029B1B8801339AB2029B1A80029B1B880A
:108F30001A46039B13441B221A70029B1B880133A1
:108F40009AB2029B1A80029B1B881A46039B9818B0
:108F500004AB0133062219460DF094FA029B1B88DC
:108F600006339AB2029B1A809DF8103023F0010359
:108F7000DBB2002B07D1029B1B881A46039B1344CC
:108F800000221A7006E0029B1B881A46039B1344BA
:108F900001221A70029B1B8801339AB2029B1A802D
:108FA0000023184609B05DF804FB00B589B00390B2
:108FB00002910192ADF80230039B1B78012B05D181
:108FC000039B5B78002B01D1072391E0019B1B8859
:108FD0009A1CBDF802309A420ED8039B1B78012BD5
:108FE0000CD1019B1B881A46039B5B7813449A1C87
:108FF000BDF802309A4201D90C2379E0019B1B880D
:10900000BDF80220D31A9BB2023BADF81C30BDF86C
:109010001C30ADF81230019B1B880233029A1344B6
:109020000DF1120211461846FFF738FF0690069B15
:109030000593059B002B01D0059B59E0039B1B78F2
:10904000022B06D0039B5B781A46BDF812309A4279
:1090500009D3BDF81230BDF81C209A4203D309236E
:109060008DF81F3016E008238DF81F30039B1B7806
:10907000012B0BD1039B5B781A46BDF81C30934241
:1090800004D3039B5B78ADF8123003E0BDF81C30CD
:10909000ADF81230BDF81230FE2B01D90C2327E0B9
:1090A000BDF81230DAB2019B1B881946029B0B44B3
:1090B0000132D2B21A70019B1B8801339AB2019B14
:1090C0001A80019B1B881A46029B13449DF81F209F
:1090D0001A70019B1B8801339AB2019B1A80019B75
:1090E0001A88BDF8123013449AB2019B1A800023EB
:1090F000184609B05DF804FB00B589B003900291F1
:109100001346ADF80630029B1B881A1DBDF80630C9
:109110009A4201D90C233AE00DF116031846FFF7E5
:10912000B9FE0790079B0693069B002B01D0069B78
:109130002DE0029B1B881A46039B134403221A70DE
:10914000029B1B8801339AB2029B1A80029B1B88E8
:109150001A46039B134419221A70029B1B88013381
:109160009AB2029B1A80BDF81620029B1B881946F2
:10917000039B0B4419461046FFF798FE03461A4618
:10918000029B1B8813449AB2029B1A800023184644
:1091900009B05DF804FB84B0029101921A460346BF
:1091A0008DF80F301346ADF80C30019B1B88DA1C8C
:1091B000BDF80C309A4201D90C2328E0019B1B8892
:1091C0001A46029B134402221A70019B1B8801332A
:1091D0009AB2019B1A80019B1B881A46029B13447A
:1091E00001221A70019B1B8801339AB2019B1A80DD
:1091F000019B1B881A46029B13449DF80F201A708E
:10920000019B1B8801339AB2019B1A8000231846E8
:1092100004B0704784B0029101921A4603468DF85B
:109220000F301346ADF80C30019B1B88DA1CBDF8DB
:109230000C309A4201D90C2328E0019B1B881A4666
:10924000029B134402221A70019B1B8801339AB2BD
:10925000019B1A80019B1B881A46029B13440A2219
:109260001A70019B1B8801339AB2019B1A80019BE3
:109270001B881A46029B13449DF80F201A70019B0D
:109280001B8801339AB2019B1A800023184604B050
:10929000704700B58FB0039001930B468DF80B30EB
:1092A00013468DF80A3000238DF83330109B1B884D
:1092B000ADF8303000230D9370E0039B5A680D9B8E
:1092C0009B001A4405AB106818600DF11B0105AB3B
:1092D00000221846FFF7E6FD0A900A9B0993099BB6
:1092E000002B01D0099B7BE09DF81B309DF80A20E4
:1092F0009A4250D19DF83330002B01D0002300E07A
:1093000002238DF82330109B1B881A469DF81B30D2
:109310001A449DF823301A44BDF844309A4201DDC6
:109320000C235DE09DF8333083F00103DBB2002BAA
:1093300016D0109B1B8801339AB2109B1A80109B89
:109340001B881A46019B13449DF80B201A70109B32
:109350001B8801339AB2109B1A8001238DF8333099
:10936000109B1B881A46019B1A440DF11B0105AB8B
:109370001846FFF797FD0A900A9B0793079B002B5F
:1093800001D0079B2CE0109B1B889DF81B201344E9
:109390009AB2109B1A800D9B01330D93039B1B887F
:1093A0001A460D9B934288DB9DF83330002B16D074
:1093B000109B1A88BDF83030D31A9BB2013BADF830
:1093C0002E30BDF82E30FF2B01D90C2308E0BDF85C
:1093D0003030019A1344BDF82E20D2B21A70002307
:1093E00018460FB05DF804FB00B58BB005900393F1
:1093F0000B468DF8133013468DF812309DF813107C
:10940000BDF8343001930C9B0093039B0222059816
:10941000FFF73FFF0990099B0893089B002B01D0A1
:10942000089B14E09DF81210BDF8343001930C9B9A
:109430000093039B10220598FFF72BFF0990099BCF
:109440000793079B002B01D0079B00E000231846E1
:109450000BB05DF804FB82B00190019B1B88052BCB
:109460000AD9019B1B88B3F5486F07D9019B1B885C
:109470004FF6FF72934201D0072325E0019B5B88E2
:10948000052B0AD9019B5B88B3F5486F07D9019B6F
:109490005B884FF6FF72934201D0072314E0019BD3
:1094A0001B884FF6FF7293420DD0019B5B884FF6ED
:1094B000FF72934207D0019B1A88019B5B889A42F6
:1094C00001D9072300E00023184602B0704700B519
:1094D00087B0039002910192ADF80230019B1B8886
:1094E0009A1DBDF802309A4201D90C234BE0039833
:1094F000FFF7B1FF0590059B0493049B002B01D05F
:10950000049B40E0019B1B881A46029B13440522E2
:109510001A70019B1B8801339AB2019B1A80019B30
:109520001B881A46029B134412221A70019B1B8847
:1095300001339AB2019B1A80039B1A88019B1B88F6
:109540001946029B0B4419461046FFF7AFFC034631
:109550001A46019B1B8813449AB2019B1A80039BF5
:109560005A88019B1B881946029B0B4419461046DA
:10957000FFF79CFC03461A46019B1B8813449AB2D2
:10958000019B1A800023184607B05DF804FB00B564
:1095900087B0039002910192ADF80230039B9B8843
:1095A00002330593019B1B881A46059B13449A1CA2
:1095B000BDF802309A4201D90C2353E0059BFE2BE3
:1095C00001D90C234EE0059BDAB2019B1B8819469A
:1095D000029B0B440132D2B21A70019B1B880133EB
:1095E0009AB2019B1A80019B1B881A46029B134466
:1095F000FF221A70019B1B8801339AB2019B1A80CB
:10960000039B1A88019B1B881946029B0B44194631
:109610001046FFF74BFC03461A46019B1B88134478
:109620009AB2019B1A80039B9B88002B19D0039B45
:109630009B68002B01D1072314E0019B1B881A466D
:10964000029B9818039B9968039B9B881A460CF011
:1096500019FF019B1A88039B9B8813449AB2019BB4
:109660001A800023184607B05DF804FB00B589B0E6
:10967000039002910192ADF80230039B9B6A002B8C
:1096800001D1072371E000238DF81F3065E0039BB3
:10969000996A9DF81F2013465B0013449B000B44FE
:1096A0000693069B9B8802330593059BFE2B01D9ED
:1096B0000C235AE0059BDAB2019B1B881946029BDA
:1096C0000B440132D2B21A70019B1B8801339AB24B
:1096D000019B1A80019B1B881A46029B1344162289
:1096E0001A70019B1B8801339AB2019B1A80069B5A
:1096F0001A88019B1B881946029B0B441946104689
:10970000FFF7D4FB03461A46019B1B8813449AB209
:10971000019B1A80069B9B88002B19D0069B9B6897
:10972000002B01D1072320E0019B1B881A46029BD6
:109730009818069B9968069B9B881A460CF0A2FE17
:10974000019B1A88069B9B8813449AB2019B1A803E
:109750009DF81F3001338DF81F30039B93F82C3098
:109760009DF81F209A4292D30023184609B05DF855
:1097700004FB00B595B00590049103920023139368
:10978000039B1B88ADF84A30039B00221A80059B7F
:1097900093F82D30002B0ED0BDF84A301A460399AD
:1097A0000498FFF799FB1390139B1193119B002BC7
:1097B00001D0119BD8E0059B9B78002B0ED0BDF803
:1097C0004A301A4603990498FFF796FC1390139BAE
:1097D0001093109B002B01D0109BC5E0059BDB78FC
:1097E000002B10D0059BDB7858B2BDF84A30039AA5
:1097F0000499FFF7D0FC1390139B0F930F9B002B42
:1098000001D00F9BB0E0059B5B68002B11D0059B3E
:109810005B6893F90000BDF84A30039A0499FFF79A
:10982000F9FC1390139B0E930E9B002B01D00E9B03
:109830009AE0059B1B89002B14D0059B03F10800BF
:10984000BDF84A300193039B0093049B062202213A
:10985000FFF7CAFD1390139B0D930D9B002B01D0B6
:109860000D9B81E0059B1B8A002B14D0059B03F107
:109870001000BDF84A300193039B0093049B07221C
:109880000321FFF7B1FD1390139B0C930C9B002B4E
:1098900001D00C9B68E0059B1B8B002B14D0059B13
:1098A00003F11800BDF84A300193039B0093049B19
:1098B00015221421FFF798FD1390139B0B930B9B1C
:1098C000002B01D00B9B4FE0059B1B6A002B0FD098
:1098D000059B186ABDF84A30039A0499FFF7F7FD13
:1098E0001390139B0A930A9B002B01D00A9B3BE029
:1098F000059B5B6A002B0FD0059B586ABDF84A3068
:10990000039A0499FFF743FE1390139B0993099B55
:10991000002B01D0099B27E0059B93F82C30002BEE
:109920000ED0BDF84A30039A04990598FFF79EFEC1
:109930001390139B0893089B002B01D0089B13E006
:10994000059B1B78002B0ED0BDF84A30039A049972
:109950000598FFF72AFB1390139B0793079B002B97
:1099600001D0079B00E0139B184615B05DF804FB7F
:1099700086B0039001921A460B46ADF80A301346A2
:109980008DF80930039B002B02D0019B002B01D1E5
:1099900000235BE00023ADF816300CE0BDF8163074
:1099A000039A13441B781A46BDF8163013449BB231
:1099B0000133ADF81630BDF816305A1CBDF80A3028
:1099C0009A420FDA019B1B88BDF816209A42E5D314
:1099D000BDF816300133039A13441B789DF8092013
:1099E0009A42DBD1BDF81620BDF80A309A4201D365
:1099F00000232BE0BDF816300233ADF81430BDF86B
:109A00001630039A13441B78002B07D0BDF816308C
:109A1000039A13441B78013B9BB200E00023ADF88E
:109A20001230BDF81230002B08D0BDF81420BDF85C
:109A300012301A44BDF80A309A4201DD002305E0D5
:109A4000019BBDF814201A80BDF81230184606B0EC
:109A5000704700B585B001900B46ADF80230134653
:109A60008DF801300023ADF80C309DF8013003AAC9
:109A7000BDF802100198FFF77BFF0346ADF80E30EA
:109A8000BDF80E30002B01D1002304E0BDF80C30EE
:109A90001A46019B1344184605B05DF804FB72DFBB
:109AA000704700BF184673DF704700BF184682B08A
:109AB0000190019B93F83034184602B0704784B08F
:109AC0000190002303930AE0019A039B13441B783F
:109AD000002B01D0012306E0039B01330393039B7A
:109AE000052BF1D90023184604B0704782B0034615
:109AF0008DF807309DF807305A1C074B83FB021383
:109B00005910D317C91A0B469B000B44D11ACBB27C
:109B1000184602B0704700BF6766666682B0019063
:109B20000091009BDB7B012B04D1009B9A88019B59
:109B3000A3F8242400BF02B0704700B585B001909F
:109B40000091019B002283F82E24009B9A88019BA0
:109B5000B3F824349A4216D1019B1B7983F0010398
:109B6000DBB2002B0FD00121019800F0B1FA039075
:109B7000039B002B07D0019B9B6B002B03D0019B09
:109B80009B6B0398984700BF05B05DF804FB00B5D8
:109B900085B001900091009B1B88262B1ED1009B55
:109BA0001B7A012B03D0009B1B7A022B17D1019B40
:109BB0009B781846FFF79AFF03461946019800F074
:109BC00087FA0390039B002B09D0019B9B6B002B12
:109BD00005D0019B9B6B0398984700E000BF05B040
:109BE0005DF804FB00B585B001900B468DF803309D
:109BF000019B03F227431846FFF761FF03468DF8E8
:109C00000F309DF80330013B032B33D801A252F8EB
:109C100023F000BF259C0200499C02005D9C0200CD
:109C2000699C0200019B9B79002B0DD0019B93F84E
:109C3000243083F00103DBB2002B05D09DF80F30F8
:109C4000002B01D0012316E0019BDB79002B05D00E
:109C50009DF80F30002B01D002230CE0019B1B7AF2
:109C6000002B01D0032306E0019B5B7A002B01D07F
:109C7000042300E00023184605B05DF804FB00BF94
:109C800082B001900091019B012283F83120019B59
:109C90000022C3F82024019B03F22642009B5A6055
:109CA000009B00229A60009B02221A70009B802277
:109CB0009A810023184602B0704782B0019000914B
:109CC000019B022283F83120019B93F82430002B62
:109CD00003D0009B07221A7002E0009B03221A7037
:109CE000019B1B699AB2009B9A81019B0022C3F8D9
:109CF0002024019B03F22642009B5A60019BDA68F4
:109D0000009B9A600023184602B0704700B583B0EC
:109D10000190019B5B79002B0FD0019B93F82E34AF
:109D200083F00103DBB2002B07D00198FFF7BFFEE1
:109D30000346002B01D0012300E0002303F00103C0
:109D4000DBB2184603B05DF804FB00B585B00190A6
:109D50000B468DF80330019BD3F81004019BB3F838
:109D6000143401221946FFF774FE0390039B002B65
:109D700003D0039B9DF803201A70019B03F154004C
:109D8000019B03F58261019B3C331A46FFF787FE76
:109D90000346184605B05DF804FB00B585B0019098
:109DA0000091019B5A69009B9A60019B9B699AB242
:109DB000009B9A81019B93F82430002B04D0019BD7
:109DC000062283F83C2003E0019B012283F83C201B
:109DD0000198FFF79BFF0346002B13D0009B022244
:109DE0001A7504210198FFF7B0FF0390039B0293BB
:109DF000029B002B01D0029B0FE0019B052283F800
:109E0000312003E0019B032283F83120019B03F5FD
:109E10008262019BC3F820240023184605B05DF838
:109E200004FB00B585B001900091019BDA69009BAD
:109E30009A60019B1B6A9AB2009B9A81019B93F8DE
:109E40002430002B04D0019B062283F83C2003E041
:109E5000019B012283F83C200198FFF757FF03463E
:109E6000002B13D0009B02221A7504210198FFF7E2
:109E70006CFF0390039B0293029B002B01D0029B7B
:109E80000FE0019B062283F8312003E0019B0422AE
:109E900083F83120019B03F58262019BC3F82024E3
:109EA0000023184605B05DF804FB82B00190019BC9
:109EB0009B78002B06D0019B93F82030002B01D01B
:109EC00000230AE0019B9B6A042B03D0019B5B6A81
:109ED000042B01D1002300E00123184602B0704793
:109EE00084B00190019B93F82430002B03D0EE2323
:109EF000ADF80E3002E01F23ADF80E30BDF80E3085
:109F0000184604B0704782B001900B468DF80330BC
:109F1000019B9DF8032083F8302000BF02B07047FA
:109F200030B587B001900091009B002B02D0019BBF
:109F3000002B01D10E23B8E0009B78331846FFF7C1
:109F4000B4FF034683F00103DBB2002B01D00723EB
:109F5000ABE0019B00229A70019A009B141D03F153
:109F600078050FCD0FC40FCD0FC495E8070084E826
:109F70000700019B002283F83020009BD3F8A42027
:109F8000019B5A63009BD3F8A820019B9A63019B15
:109F90004FF6FF72A3F82424019B03F58262019B14
:109FA000C3F82024019B03F2264307220021184610
:109FB0000CF09AFA019B1B7883F00103DBB2002BB3
:109FC00003D0019BFF2283F85420019B03F155022B
:109FD000019BC3F810240198FFF782FF03461A463D
:109FE000019BA3F814240098019B03F15501019BE8
:109FF00003F214431A46FFF7BCFB0590059B04933C
:10A00000049B002B01D0049B4FE0019B03F2312203
:10A01000019BC3F818240198FFF762FF03461A4614
:10A02000019BA3F81C24009B03F13C00019BD3F887
:10A030001814019B03F21C431A46FFF79AFB059084
:10A04000059B0393039B002B01D0039B2DE0019BF9
:10A05000012283F85120019B9B699AB2019BA3F8CE
:10A060004820019B012283F83C20019B00221A64B6
:10A07000019B002283F85020019B5A69019B5A647E
:10A08000019B03F15400019B3C331A460021FFF76A
:10A0900006FD0590059B0293029B002B01D0029BBD
:10A0A00003E0019B01221A70059B184607B030BDE2
:10A0B00082B00190019B1B68012B03D0019B1B68A0
:10A0C000022B01D1012300E00023184602B07047A3
:10A0D00000B585B001900B468DF80330019B1B78CD
:10A0E00083F00103DBB2002B01D0082309E1019BBF
:10A0F0009DF803209A70019B03F22643072200215A
:10A1000018460CF0F1F9019B9B79002B03D0019BC1
:10A110009B78012B0FD0019BDB79002B03D0019B97
:10A120009B78012B07D0019BDB79002B14D0019B7E
:10A130009B78022B10D1019B5B6B002B08D0019BFD
:10A14000012283F82D24019B5B6B0820984703E0D4
:10A15000019B002283F82D249DF8033019460198B5
:10A16000FFF740FD03461A46019B9A70019B5B6B0B
:10A17000002B20D0019B9B78032B03D0019B9B7865
:10A18000042B18D1019B5B79002B14D0019B93F811
:10A190002E3483F00103DBB2002B0CD0019B002294
:10A1A00083F83024019B012283F82F24019B5B6BF1
:10A1B0000720984703E0019B002283F82F24019B8E
:10A1C0003C331822002118460CF08EF9019B012225
:10A1D00083F83C20019B2C331846FFF769FF0346A8
:10A1E000002B06D0019BDB6ADAB2019B83F8512079
:10A1F00003E0019B012283F85120019B93F8243056
:10A20000002B12D0019B28331846FFF751FF03465D
:10A21000002B06D0019B9B6ADAB2019B83F8522087
:10A2200003E0019B012283F85220019B002283F866
:10A230005020019B9B78042B31D801A252F823F0C7
:10A2400095A2020055A2020065A2020075A20200BA
:10A2500085A20200019B3C3319460198FFF710FDCF
:10A2600003901DE0019B3C3319460198FFF725FD43
:10A27000039015E0019B3C3319460198FFF78DFDD3
:10A2800003900DE0019B3C3319460198FFF7C9FD8F
:10A29000039005E0019B002283F8312000E000BF1D
:10A2A000019B9B78002B20D0019B03F15400019B64
:10A2B000D3F82014019B3C331A46FFF7F0FB0390C0
:10A2C000039B002B01D0039B1BE0019B93F85420C0
:10A2D000019B93F8303019461046FFF7E4FB0390DA
:10A2E000039B002B01D0039B0BE0019B5B6B002BBE
:10A2F00006D0019B5B6B019A92F83120104698477B
:10A300000023184605B05DF804FB00BF00B585B01A
:10A3100001900091009B0393019B1B88262B10D07A
:10A32000262B13DC102B02D0112B05D00EE0019947
:10A330000398FFF7F3FB0AE001990398FFF7FDFB91
:10A3400005E001990398FFF722FC00E000BF00BF81
:10A3500005B05DF804FB75DF704700BF184676DF77
:10A36000704700BF18467ADF704700BF18467BDF92
:10A37000704700BF1846000084B00346ADF80630B1
:10A380000023039316E00F49039A13469B001344DE
:10A390009B000B441B88BDF806209A4207D1039A04
:10A3A00013469B0013449B00064A134406E0039B9C
:10A3B00001330393039B002BE5D00023184604B020
:10A3C000704700BF4032002082B001900B46ADF8CC
:10A3D0000230019BBDF802201A80019B00221A72F4
:10A3E000019B054903F10A020B4603CB1060516043
:10A3F00000BF02B0704700BF7032002082B00190F1
:10A40000019B4FF6FF721A8000BF02B0704788B000
:10A410000390029111461A460B46ADF806301346DA
:10A42000ADF80430039B9B881A46BDF806301344F0
:10A430000793039B9B881946039B9B88BDF80620C6
:10A44000934228BF13469BB2CB1A0693039BDB882B
:10A450001A46BDF8043013440593039BDB88194664
:10A46000039BDB88BDF80420934228BF13469BB2B0
:10A47000CB1A0493029B5A88039B1B889A4205D3EC
:10A48000029B5A88039B5B889A4201D900231CE0F7
:10A49000029B9B881A46069B934205D8029B9B8889
:10A4A0001A46079B934201D200230EE0029BDB88F1
:10A4B0001A46049B934205D8029BDB881A46059BEB
:10A4C000934201D2002300E00123184608B07047F0
:10A4D00000B583B00190064B9B69002B03D0044B61
:10A4E0009B690198984700BF03B05DF804FB00BF6B
:10A4F0005432002000B585B003460091ADF8063017
:10A50000BDF8063000991846FFF725FF0390039B1E
:10A51000002B05D0039B112B02D00398FFF7D8FF27
:10A52000039B002B0CBF01230023DBB2184605B0B0
:10A530005DF804FB00B589B00190019B0793079B70
:10A540009BB21846FFF718FF0690069B002B42D0DF
:10A55000069B1A7A224B1B7B9A4215D2079B9AB212
:10A56000069B0A3319461046FFF7C4FF03468DF8D1
:10A5700013309DF81330002B2DD0069B1B7A01332E
:10A58000DAB2069B1A7226E0069B00221A72144B5E
:10A590001B7C002B0FD0079B9BB23B211846FFF77B
:10A5A000DEFE0590059B002B05D0059B082B02D0F5
:10A5B0000598FFF78DFF0A4B5B69002B0BD000233A
:10A5C0008DF80C30079B9BB2ADF80E30044B5B69E5
:10A5D00003AA1046984700BF09B05DF804FB00BF0E
:10A5E0005432002030B587B00190019B002B01D17F
:10A5F0000E2353E02B4A019B14461D460FCD0FC47A
:10A6000095E8070084E80700264B274A1A60019B5B
:10A610001B68002B11D0019B1B681846FFF7A3FE97
:10A620000490049B002B01D0049B37E0019B1A6827
:10A630001D4B1068516803C308E01B48FFF797FEE5
:10A640000490049B002B01D0049B27E0002305937A
:10A6500020E0059A13469B0013449B00134A1344C1
:10A6600003930398FFF7CAFE059B5B01104A1A4447
:10A67000039B5A60039B04330E4A0021184606F0E0
:10A6800041FB0490049B002B01D0032306E0059BB3
:10A6900001330593059B002BDBD00023184607B040
:10A6A00030BD00BF54320020703200204032002004
:10A6B0002032002035A5020000B587B00346009186
:10A6C000ADF80630009B5B7A002B1AD1009B1B7AF9
:10A6D000002B03D1164B5B68059302E0144B9B687B
:10A6E0000593009B5B68BDF806200599184606F0A7
:10A6F00043FB0490049B002B16D00498FFF7E8FE60
:10A7000012E0009B00221A72094B5B69002B0BD0F0
:10A7100001238DF80C30BDF80630ADF80E30044B37
:10A720005B6903AA1046984700BF07B05DF804FBB9
:10A730005432002000B585B00190019BDB7B8DF881
:10A740000F30019B9B88ADF80C309DF80F30012B2A
:10A750002CD14FF6FF70FFF70FFE0290029B002BEB
:10A7600003D10420FFF7B4FE21E0BDF80C301946F8
:10A770000298FFF729FE029B03F10A00019B03F1F7
:10A7800010014FF6FF7340F2F312FFF740FE03464D
:10A790001A46029B5A72074BDB89002B07D1BDF882
:10A7A0000C3002991846FFF787FF00E000BF05B0A4
:10A7B0005DF804FB5432002000B587B00190019B86
:10A7C0009B88ADF81630BDF816301846FFF7D4FD5B
:10A7D0000490049B002B0ED0049B5B68184606F087
:10A7E00023FB0390039B002B02D00398FFF770FE1E
:10A7F0000498FFF703FE00BF07B05DF804FB0000FC
:10A8000000B587B00190019B06330593059B1A881C
:10A81000194BDB899A422BD1059B5B89022B27D1EF
:10A82000019B9B88ADF81230BDF812301846FFF737
:10A83000A3FD0390039B002B1AD0059B0C331846F5
:10A8400000F0C5FC0346002B06D0BDF8123003997A
:10A850001846FFF731FF0BE0039B5B68184606F0D4
:10A86000E3FA0290029B002B02D00298FFF730FE21
:10A8700000BF07B05DF804FB5432002000B585B07E
:10A880000190019B9B88ADF80E30BDF80E30184644
:10A89000FFF772FD0290029B002B15D0029B03F183
:10A8A0000A00019B03F108014FF6FF7340F2F31217
:10A8B000FFF7ADFD03461A46029B5A72BDF80E30F3
:10A8C00002991846FFF7F8FE00BF05B05DF804FBDB
:10A8D00000B583B001900091019B1B88502B12D0D2
:10A8E000502B18DC122B12D0122B14DC102B02D0A0
:10A8F000112B04D00FE00198FFF71CFF0CE001982A
:10A90000FFF75AFF08E00198FFF77AFF04E001988B
:10A91000FFF7B4FF00E000BF00BF03B05DF804FB29
:10A9200030B58FB00190009100230293009B002B63
:10A930001AD000230D9314E06B460D99184608F0C9
:10A9400012F90346002B09D0029B5A1C02920D9A61
:10A9500092B25B0038336B4423F82C2C0D9B0133EF
:10A960000D930D9B132BE7D9019B1D4602AC0FCC19
:10A970000FC50FCC0FC594E8070085E807000198C4
:10A980000FB030BD00B583B00346ADF80630BDF85A
:10A990000630132B01D900230CE0BDF80630194610
:10A9A000064808F0AFF8BDF806301946044808F02C
:10A9B000A9F80123184603B05DF804FB803200209B
:10A9C0007C32002000B585B00346ADF80630002388
:10A9D00003930DE0039B9B00094A13440433BDF825
:10A9E00006201146184608F0A5F8039B013303938F
:10A9F000039B1D2BEED900BF00BF05B05DF804FB23
:10AA00007832002000B583B00346ADF80630BDF8BB
:10AA100006301946034808F08DF800BF03B05DF812
:10AA200004FB00BF8032002030B59BB0184B9B6800
:10AA3000DB431893164B5A6818AB1146184608F0BA
:10AA4000F1F8189A6B4611461846FFF769FF0DACEE
:10AA50006D460FCD0FC40FCD0FC495E8070084E8F5
:10AA60000700002319930BE0199B5B0068336B44CC
:10AA700033F8303C1846FFF7A5FF199B01331993B3
:10AA80000D9B199A9A42EFD300BF00BF1BB030BD97
:10AA90007832002000B583B001900B46ADF802304B
:10AAA00013468DF801309DF80130002B06D0BDF81B
:10AAB00002301946019808F025F805E0BDF802308B
:10AAC0001946019808F036F800BF03B05DF804FBA2
:10AAD00000B585B001900091019B9B88ADF80E30C8
:10AAE000019B1B88103B0A2B00F2838001A252F8C5
:10AAF00023F000BF21AB02005DAB0200F3AB02000C
:10AB0000F3AB0200F3AB0200F3AB0200F3AB0200C5
:10AB1000F3AB0200F3AB0200C7AB020069AB02006B
:10AB2000FFF782FFBDF80E301846FFF72BFF0346F4
:10AB300083F00103DBB2002B05D0304AF021042062
:10AB400005F0F2FC52E0019BDB7B022B4ED1BDF8FD
:10AB50000E3019462A4807F0D5FF47E0BDF80E3001
:10AB60001846FFF74FFF44E0019B1B7AC3F3031322
:10AB7000DBB28DF80D309DF80D30032B8CBF012317
:10AB80000023DAB2BDF80E3019461E48FFF782FFE7
:10AB90009DF80D30022B8CBF01230023DAB2BDF8E3
:10ABA0000E3019461848FFF775FF9DF80D30012B40
:10ABB0008CBF01230023DAB2BDF80E3019461348CA
:10ABC000FFF768FF15E0019B1B7A002B10D1019B5A
:10ABD0005B7AC3F3C0038DF80C309DF80C20BDF8F0
:10ABE0000E3019460748FFF755FF01E000BF00E0AF
:10ABF00000BF00BF05B05DF804FB00BF086C030098
:10AC000084320020903200208C32002088320020D4
:10AC100000B583B00346ADF80630BDF80630132BFF
:10AC200001D9002306E0BDF806301946034807F0B5
:10AC30009AFF0346184603B05DF804FB7C320020FF
:10AC400000B585B00346ADF8063000238DF80F300F
:10AC5000BDF806301846FFF7DBFF0346002B11D086
:10AC6000BDF8063019460A4807F07DFF03468DF807
:10AC70000E309DF80E30002B01D0022300E001239E
:10AC80008DF80F309DF80F30184605B05DF804FBC5
:10AC90008032002000B583B00190054B5A68019BBB
:10ACA00011461846FFF73CFE019803B05DF804FB1F
:10ACB0007832002082B003460091ADF80630BDF82E
:10ACC0000630DAB2009B1A70BDF806301B0A9AB241
:10ACD000009B0133D2B21A700223184602B07047AB
:10ACE000A8DF704700BF184600B585B001900091FD
:10ACF000009B002B14BF01230023DBB20393039BB3
:10AD0000002B04D1354A4D21002005F00DFC019B9C
:10AD1000002B14BF01230023DBB20293029B002B04
:10AD200004D12E4A4E21002005F0FEFB009BD3E902
:10AD30000023D2B2019B1A70009BD3E900014FF0AF
:10AD400000024FF00003020A42EA01620B0A019975
:10AD50000131D3B20B70009BD3E900014FF0000228
:10AD60004FF00003020C42EA01420B0C0199023140
:10AD7000D3B20B70009BD3E900014FF000024FF0FB
:10AD80000003020E42EA01220B0E01990331D3B2F5
:10AD90000B70009BD3E900014FF000024FF000035D
:10ADA0000A00002301990431D3B20B70009B9A680A
:10ADB000019B0533D2B21A70009B9B681A0A019B53
:10ADC0000633D2B21A70009B9B681A0C019B0733A2
:10ADD000D2B21A7000BF05B05DF804FB6C6C0300C2
:10ADE00000B587B00190009100238DF81730009BCB
:10ADF000002B14BF01230023DBB20493049B002B20
:10AE000004D1314A6521002005F08EFB019B002B07
:10AE100014BF01230023DBB20393039B002B04D157
:10AE2000294A6621002005F07FFB9DF817305A1C47
:10AE30008DF817201A46019B1344009A12781A7055
:10AE4000009B58889DF81730019A13441946FFF764
:10AE500031FF03461A469DF8173013448DF817301A
:10AE6000009B98889DF81730019A13441946FFF704
:10AE700021FF03461A469DF8173013448DF817300A
:10AE8000009BD8889DF81730019A13441946FFF7A4
:10AE900011FF03461A469DF8173013448DF81730FA
:10AEA0009DF81730072B0CBF01230023DBB2029360
:10AEB000029B002B04D1044A6E21002005F034FBD4
:10AEC00000BF07B05DF804FB6C6C030000B58FB0E9
:10AED000029111461A460346ADF80E300B46ADF806
:10AEE0000C3013468DF80730029B002B14BF012352
:10AEF0000023DBB20D930D9B002B04D11F4A84214C
:10AF0000002005F011FBBDF80C30002B14BF01230D
:10AF10000023DBB20C930C9B002B04D1174A852134
:10AF2000002005F001FB04AB2022002118460BF0A5
:10AF3000DBFABDF80E30ADF81030BDF80C30ADF8CE
:10AF40001430BDF80C30ADF81630029B06939DF816
:10AF50001D3043F002038DF81D309DF807308DF849
:10AF60002130074B1B8804A9109A184600F0C6F937
:10AF7000034618460FB05DF804FB00BF6C6C03007D
:10AF8000F432002000B58BB0039001238DF82230FD
:10AF900041F60A03ADF8203008AB764A1946012085
:10AFA000FFF79EFE0990099B002B01D0099BDDE075
:10AFB000039B1B88002B12D0039B5968039B1A88A4
:10AFC000039B93F83C306C48009042F62920FFF731
:10AFD0007DFF0990099B002B01D0099BC6E0039BD4
:10AFE0001B89002B12D0039BD968039B1A89039BF2
:10AFF00093F83C306148009042F62420FFF766FF4A
:10B000000990099B002B01D0099BAFE0039B1B8A91
:10B01000002B12D0039B5969039B1A8A039B93F858
:10B020003C305748009042F62520FFF74FFF09902B
:10B03000099B002B01D0099B98E0039B1B8B002BE5
:10B0400012D0039BD969039B1A8B039B93F83C3066
:10B050004C48009042F62720FFF738FF0990099BE3
:10B06000002B01D0099B81E0039B1B8C002B12D08D
:10B07000039B596A039B1A8C039B93F83C3042480C
:10B08000009042F62620FFF721FF0990099B002B34
:10B0900001D0099B6AE0039B1B8D002B12D0039B00
:10B0A000D96A039B1A8D039B93F83C303748009074
:10B0B00042F62820FFF70AFF0990099B002B01D0D8
:10B0C000099B53E0039B1B6B002B17D0039B1A6B50
:10B0D00006AB11461846FFF707FE039B93F83C307A
:10B0E00006A92B4A0092082242F62320FFF7EEFE23
:10B0F0000990099B002B01D0099B37E0039B5B6BF8
:10B10000002B16D0039B5B6B1968039B5B6B1B7951
:10B110001846039B93F83C301E4A0092024642F6C2
:10B120002A20FFF7D3FE0990099B002B01D0099B31
:10B130001CE0039B9B6B002B17D0039B9A6B04AB0B
:10B1400011461846FFF74CFE039B93F83C3004A9C8
:10B15000114A0092072242F65020FFF7B7FE0990ED
:10B16000099B002B01D0099B00E0002318460BB07F
:10B170005DF804FBF4320020F83200200033002098
:10B180000833002010330020183300202033002023
:10B1900028330020303300203833002082B0019063
:10B1A000019B1B781AB2019B01331B781BB21B0257
:10B1B0001BB213431BB29BB2184602B07047AADF02
:10B1C000704700BF1846ABDF704700BF184600B598
:10B1D00085B001900198FFF7E1FF0346ADF80E300E
:10B1E000BDF80E3003F00103DBB2184605B05DF880
:10B1F00004FB00B583B00190009100980BF02BF98F
:10B2000003469AB2019B1A80019B009A5A6000BFC4
:10B2100003B05DF804FB000082B0034600918DF896
:10B220000730009A137823F00F031370009A1378F5
:10B2300023F0F00313709DF80730052B5BD801A2B3
:10B2400052F823F05DB2020073B202008DB2020028
:10B25000A7B20200C1B20200DBB20200009A13786A
:10B2600023F00F031370009A137823F0F003137088
:10B2700040E0009A1378012161F303031370009AF0
:10B280001378012161F30713137033E0009A1378E8
:10B29000012161F303031370009A1378022161F313
:10B2A0000713137026E0009A1378012161F303035A
:10B2B0001370009A1378032161F30713137019E0D8
:10B2C000009A1378022161F303031370009A137834
:10B2D000012161F3071313700CE0009A1378022127
:10B2E00061F303031370009A1378022161F30713CB
:10B2F000137000BF00BF00BF02B0704700B595B02B
:10B30000034602910192ADF80E30029B9B78002B10
:10B3100003D101238DF81E3003E0029B9B788DF84A
:10B320001E30029B1B88ADF81C3006AB03220021A7
:10B3300018460BF0D9F8029B5B7C06AA114618460A
:10B34000FFF76AFF029B9A7C06AB01331946104651
:10B35000FFF762FF029BDA7B9DF81A3062F3C303AA
:10B360008DF81A30029B1A7C9DF81A3062F3041390
:10B370008DF81A30029B1A7B9DF81A3062F3000395
:10B380008DF81A30029B1B7D002B01D0022200E0B9
:10B3900001229DF81A3062F342038DF81A300DAB8A
:10B3A0001C22002118460BF09FF8029B5B7B03F0E8
:10B3B0001003DBB2002B06D1029B5B7B03F0200362
:10B3C000DBB2002B24D004AB0322002118460BF083
:10B3D0008BF8029BDA7C04AB013319461046FFF769
:10B3E0001BFF9DF81030012262F303038DF810302B
:10B3F0009DF81030012262F307138DF810309DF88C
:10B400001230012262F342038DF8123004AB129322
:10B41000029B5B7B8DF83430029B9B7B8DF8353033
:10B4200008AB1422002118460BF05EF807AB089316
:10B4300006AB0993029B9B88ADF82C30029B9B685E
:10B44000002B06D0029BDB88ADF82830029B9B685E
:10B450000C93029B9B69002B4FD005AB032200216C
:10B4600018460BF041F8029B9B691B88ADF83C30F5
:10B47000029B9B695B88ADF83E30029B9B695B68D1
:10B480000E9305AB1193029B9B691B7B05AA11468A
:10B490001846FFF7C1FE029B9B695A7B05AB01333F
:10B4A00019461046FFF7B8FE029B9B699A7A9DF8F1
:10B4B000163062F3C3038DF81630029B9B69DA7A6B
:10B4C0009DF8163062F304138DF81630029B9B69C9
:10B4D0001A7A9DF8163062F300038DF81630029B3D
:10B4E0009B699B7B002B01D0022200E001229DF88A
:10B4F000163062F342038DF81630029BDB69002B95
:10B5000002D0029BDB69109308AA0DA9BDF80E00BA
:10B51000019BFFF754FE0346184615B05DF804FB87
:10B5200000B58DB0034602910192ADF80E3007AB25
:10B530001422002118460AF0D7FF029B9B78002BAB
:10B5400003D101238DF81A3003E0029B9B788DF81C
:10B550001A30029B1B88ADF8183006AB0793029B8C
:10B560009B7905AA11461846FFF756FE029BDA7929
:10B5700005AB013319461046FFF74EFE029BDA7801
:10B580009DF8163062F3C3038DF81630029B1A79CA
:10B590009DF8163062F304138DF81630029B5A7929
:10B5A0009DF8163062F300038DF81630029B1B7A6B
:10B5B000002B01D0022200E001229DF8163062F338
:10B5C00042038DF8163005AB0893029B5B89ADF8FA
:10B5D0002430029B9B89ADF82630029BDB89ADF8B5
:10B5E0002830029B1B690B9307A9BDF80E30019A06
:10B5F0001846FFF7E8FD034618460DB05DF804FB5A
:10B6000090DF704700BF1846A5DF704700BF18469F
:10B61000B5DF704700BF184682B00190019B17222A
:10B620001A80019B17225A80019B00221A71019BEC
:10B6300000225A71019B1B229A71019B1B22DA7115
:10B6400000BF02B07047000030B589B003460A461B
:10B65000ADF806301346ADF80430BDF80430ADF84F
:10B660001430BDF80430ADF816300023ADF81830B2
:10B670000023ADF81A3003AB00221A609A8003AAA7
:10B6800005A9BDF806301846FFF7BAFF0790079BDB
:10B69000002B39D01E4A1F4BD31ADB081B0443F082
:10B6A0000104BDF80650079808F04EFE03462A46EE
:10B6B0001949204609F043FCBDF80C30002B03D19A
:10B6C000BDF80E30002B0ED0114A124BD31ADB08F6
:10B6D0001B0443F00100BDF80C301A46BDF80E30D3
:10B6E0000E4909F02CFCBDF81030002B0CD0084A94
:10B6F000084BD31ADB081B0443F00103BDF81020EC
:10B700000749184609F00AFC079B184609B030BDE6
:10B710000067030098660300E86C0300346D0300C3
:10B72000746D030010B586B001900091009B9B885A
:10B73000ADF80E30BDF80E30DB00019A134406332D
:10B740000593019B1A79059B9A71009BDB7B012B6A
:10B7500002D0022B05D009E0019B1A88059B1A80B4
:10B7600004E0019B5A88059B1A8000BF059B1A883C
:10B77000059B5B889A4226D9059B1A88BDF80E3036
:10B7800011461846FFF740FF0490049B002B03D19D
:10B79000059B01225A7116E0049B112B03D1059BD6
:10B7A00001221A710FE0114A114BD31ADB081B0456
:10B7B00043F00104049808F0C7FD03461A460D49FA
:10B7C000204609F0ABFB059B9A79059BDB799A42F1
:10B7D00008D9059B9B791A46BDF80E3011461846CC
:10B7E000FFF732FF00BF06B010BD00BF00670300C7
:10B7F00098660300CC6D030000B583B00190009102
:10B80000009B9B88DB00019A134406331846FFF720
:10B8100003FF00BF03B05DF804FB00B587B00190E3
:10B820000091009B9B88ADF81630009B5B89ADF8BA
:10B830001430BDF81630DB00019A1344063304932C
:10B84000049B1B88BDF81420934228BF13469AB26C
:10B85000049B5A80049B5B88172B38BF17239AB22E
:10B86000049B5A80019B1B69002B15D0049B5B79BC
:10B87000002B11D040F67723ADF80830BDF8163014
:10B88000ADF80A30049B5B88ADF80C30019B1B6956
:10B8900002AA114601989847049B00225A71049B02
:10B8A00000221A7100BF07B05DF804FB10B588B024
:10B8B00001900091009B9B88ADF81A30009BDB88BB
:10B8C000ADF81830BDF81A30DB00019A1344063386
:10B8D0000593BDF81830172B38BF1723ADF8183073
:10B8E000059B1B88BDF81820934228BF13469AB2C7
:10B8F000059B5A80059B00221A71059B1A88BDF88A
:10B900001A3011461846FFF783FE0790079B002B5D
:10B910000FD0174A174BD31ADB081B0443F001045E
:10B92000079808F011FD03461A461349204609F00E
:10B93000F5FA059B5B79002B16D1019B1B69002B47
:10B9400013D040F67723ADF80C30BDF81A30ADF8BF
:10B950000E30059B5B88ADF81030019B1B6903AA74
:10B9600011460198984700E000BF08B010BD00BF25
:10B970000067030098660300006E030030B591B0C5
:10B9800001900091009B04AC1D1D0FCD0FC40FCD85
:10B990000FC495E8070084E80700BDF81030ADF843
:10B9A0003E30BDF81420BDF83E30D1B2019ADB0024
:10B9B00013440A465A73019B1B69002B19D002AB32
:10B9C00000221A609A804DF67A23ADF80830BDF84F
:10B9D0003E30ADF80A30BDF83E30019ADB0013442A
:10B9E0005B7B8DF80C30019B1B6902AA1146019804
:10B9F000984700BF11B030BD00B587B001900091ED
:10BA0000009B04330593059B1B88DB00019A1344BC
:10BA100006330493059B9B888DF80F30049B9B791C
:10BA20009DF80F20934228BF13468DF80E30059BDA
:10BA30001B889DF80E2092B211461846FFF704FEAF
:10BA400000BF07B05DF804FB00B585B00190009120
:10BA5000019B002B01D10E231DE0019B009A1A616E
:10BA6000019B17221A80019B17225A80019B1B22DF
:10BA70001A71002303930AE0039BDB00019A13442D
:10BA800006331846FFF7C8FD039B01330393039B5E
:10BA9000002BF1D00023184605B05DF804FB000030
:10BAA00010B586B001900091009B0593019B9B8887
:10BAB000ADF81230BDF81230002B40F09880019B99
:10BAC0001B88552B48D0552B55DC242B32DC102BF2
:10BAD00051DB103B142B4ED801A252F823F000BFCB
