:020000022000DC
:106000000000012019620200016202000362020026
:10601000056202000762020009620200000000003F
:106020000000000000000000000000000B62020001
:106030000D620200000000000F6202001162020007
:106040003DD70200136202005DE40200E9EE0200A7
:1060500049FE02001362020059E3020013620200CB
:106060001362020013620200136202001362020054
:106070001362020013620200136202001362020044
:1060800013620200E92A0300136202001362020095
:1060900013620200136202002D73030013620200F8
:1060A0001362020013620200136202001362020014
:1060B00013620200136202000000000000000000F2
:1060C00013620200136202001362020013620200F4
:1060D000136202001362020013620200000000005B
:1060E00000000000000000000000000000000000B0
:1060F00000000000000000000000000000000000A0
:10610000000000000000000000000000000000008F
:10611000000000000000000000000000000000007F
:10612000000000000000000000000000000000006F
:10613000000000000000000000000000000000005F
:10614000000000000000000000000000000000004F
:10615000000000000000000000000000000000003F
:10616000000000000000000000000000000000002F
:10617000000000000000000000000000000000001F
:10618000000000000000000000000000000000000F
:1061900000000000000000000000000000000000FF
:1061A00000000000000000000000000000000000EF
:1061B00000000000000000000000000000000000DF
:1061C00000000000000000000000000000000000CF
:1061D00000000000000000000000000000000000BF
:1061E00000000000000000000000000000000000AF
:1061F000000000000000000000000000000000009F
:10620000FEE7FEE7FEE7FEE7FEE7FEE7FEE7FEE766
:10621000FEE7FEE700F002B8FFF7FCBF0F484FF0C3
:106220000701884385460E4880470E48016841F4BF
:1062300070010160BFF34F8FBFF36F8F00F01AB88A
:1062400009480A490A4A884207D0521A05D00378F9
:1062500001300B700131013AF9D170470000012083
:1062600041A7020088ED00E05C7C0300F0500020B4
:106270000451002039493A480A1A02D007229143B2
:106280008D46384938480A1A06D00722914381F3CF
:106290000988022282F3148834483549354A00F0CF
:1062A0003EF835483549364A00F039F83548364920
:1062B000364A00F034F836483649374A00F02FF8AD
:1062C00036483749374A00F02AF837483749384ABC
:1062D00000F025F837483849384A00F020F83848A7
:1062E0003849002200F033F837483849002200F0DE
:1062F0002EF837483749091A11F029FB364A9047DA
:1063000024482549884205D00268043003B49047E8
:1063100003BCF7E700200021304A9047FEE788429F
:1063200014D0521A12D003460B43134303242342C2
:1063300006D1036804300B600431043AF9D1704788
:10634000037801300B700131013AF9D1704788426E
:1063500002D002700130FAE770470000000001200F
:1063600000E00020000001200000012090B00300A8
:10637000045100202C520020E0630200E063020080
:10638000307B030090B00300045100200451002032
:10639000707C0300707C0300707C0300707C030041
:1063A000707C0300707C0300707C0300707C030031
:1063B0008DB00300B8B103002C52002040520020E1
:1063C00044520020A46C002040520020445200207F
:1063D000A46C0020A48C002041620200759E020083
:1063E00000B585B00190019B002B0AD0074B43F00C
:1063F00001030393019B9B010293039B029898471F
:1064000000E000BF05B05DF804FB00BF607E030044
:1064100000B58FB003900291009313468DF80730BA
:1064200000230D93029B09939DF807300A93009B6C
:106430000B939DF840300C93039B043309A9002271
:10644000184608F0A9FC0D900D9B18460FB05DF89A
:1064500004FB00B583B00190019B002B0AD04FF4E0
:106460007A70FFF7BDFF019B013B0193019B002B5D
:10647000F5D100E000BF03B05DF804FB00B583B0C8
:106480000190019B1B68184600F04CF80346002B56
:1064900004D105494FF4F67002F0B0FF4FF0A0436D
:1064A000184603B05DF804FB707C030000B585B0AE
:1064B000019001AB1846FFF7E1FF0390019B012219
:1064C00002FA03F31946039800F018F800BF05B06C
:1064D0005DF804FB00B585B0019001AB1846FFF7ED
:1064E000CDFF0390019B012202FA03F319460398A2
:1064F00000F00EF800BF05B05DF804FB82B001901B
:106500000091019B009AC3F8082500BF02B07047B4
:1065100082B001900091019B009AC3F80C2500BF46
:1065200002B0704784B00190019B5B090293002385
:106530000393029B002B03D14FF0FF33039300BF63
:10654000019B03F01F030193039A019B22FA03F3BB
:1065500003F00103DBB2184604B0704700B589B000
:1065600003460A468DF80F3013468DF80E3006AB01
:1065700000210A461A800A469A7005AB00210A4695
:106580001A800A469A709DF80F3043F04003DBB240
:106590008DF8183000238DF819309DF80E308DF8E5
:1065A0001A30114B00221A7005AB06A90322009283
:1065B00003220E48FFF72CFF0790079B002B06D005
:1065C0000B4A312107980BF013F900E020BF064B6E
:1065D0001B78DBB283F00103DBB2002BF6D100BFE6
:1065E00000BF09B05DF804FB4D520020447E03005B
:1065F000A07C030000B589B003468DF80F3006ABD0
:1066000000210A461A800A469A7005AB00210A4604
:106610001A800A469A709DF80F3043F02003DBB2CF
:106620008DF8183000238DF8193000238DF81A30BA
:10663000114B00221A7005AB06A903220092032217
:106640000E48FFF7E5FE0790079B002B06D00C4A8B
:10665000432107980BF0CCF800E020BF064B1B78D5
:10666000DBB283F00103DBB2002BF6D19DF81630CC
:10667000184609B05DF804FB4D520020447E03002B
:10668000A07C030082B003468DF807309DF80730E8
:10669000082B01D1402300E0FF23184602B07047C9
:1066A00082B001900091034B01221A7000BF02B02A
:1066B000704700BF4D52002010B588B003468DF8DA
:1066C0000730344B03AC0FCB84E80F009DF8073044
:1066D000082B29D801A252F823F000BF016702005D
:1066E00009670200116702002967020019670200AA
:1066F000296702002967020029670200216702005A
:106700004FF00063059310E04FF0805305930CE0C9
:106710004FF00053059308E04FF08043059304E0E9
:106720004FF00043059300E000BF02238DF81030C6
:1067300001238DF818300C238DF80E300D238DF8C1
:106740000C300E238DF80D300F238DF80F30002301
:106750008DF8113003A900230F4A104806F0E6FB1C
:106760000790079B002B04D00D4AB02107980BF02F
:106770003FF80C4A0C4BD31ADB081B0443F003030D
:106780009DF80720094918460FF058FD00BF08B0D2
:1067900010BD00BF107D0300A1660200447E03000F
:1067A000A07C0300DC7B0300A47B0300387D030096
:1067B00010B586B00B238DF8133000238DF81230FE
:1067C00000238DF8113000238DF81030FF238DF851
:1067D0000F30002305935FE0059BDBB201338DF89A
:1067E0001230374A059B13441B788DF811309DF801
:1067F00012301846FFF7FEFE03468DF810309DF864
:1068000012301846FFF73EFF03468DF80F309DF813
:1068100010209DF811305340DAB29DF80F3013402C
:10682000DBB2002B24D0274A274BD31ADB081B04EA
:1068300043F001009DF812109DF811409DF81030B2
:106840009DF80F200192009323460A461F490FF03E
:1068500030FD0FF06FFD0346002BFAD100230293A9
:10686000029B002B04D11A4ACA2100200AF0C0FF63
:106870009DF81230082B0CD1124A134BD31ADB08A7
:106880001B0443F003039DF81020124918460FF033
:10689000D5FC059B013305939DF81330059A9A4268
:1068A0009ADB084A084BD31ADB081B0443F00303A6
:1068B000094918460FF0B4FC00BF06B010BD00BF78
:1068C00004510020DC7B0300A47B0300547D030003
:1068D000A07C03009C7D0300C87D030000B583B04D
:1068E00000238DF807300B238DF8063000238DF838
:1068F000073010E09DF807300133DAB29DF8073019
:106900000A49CB5C19461046FFF728FE9DF8073070
:1069100001338DF807309DF807209DF806309A4224
:10692000E8D300BF00BF03B05DF804FB04510020B2
:1069300000B585B008238DF80B30134B00221A7078
:106940000DF10A030DF10B010122009201220F4803
:10695000FFF75EFD0390039B002B07D00C4A4FF41A
:10696000937103980AF044FF00E020BF064B1B78A8
:10697000DBB283F00103DBB2002BF6D100BF00BF16
:1069800005B05DF804FB00BF4D520020447E0300BB
:10699000A07C030000B585B011238DF80B30134B9C
:1069A00000221A700DF10A030DF10B010122009271
:1069B00001220F48FFF72CFD0390039B002B07D00B
:1069C0000C4A40F2391103980AF012FF00E020BF90
:1069D000064B1B78DBB283F00103DBB2002BF6D150
:1069E00000BF00BF05B05DF804FB00BF4D520020A2
:1069F000447E0300A07C030000B585B010238DF811
:106A00000B30134B00221A700DF10A030DF10B012C
:106A10000122009201220F48FFF7FAFC0390039B2A
:106A2000002B07D00C4A40F2611103980AF0E0FEF7
:106A300000E020BF064B1B78DBB283F00103DBB222
:106A4000002BF6D100BF00BF05B05DF804FB00BF0E
:106A50004D520020447E0300A07C030008B51020A6
:106A6000FFF738FD0A20FFF7F4FC00BF08BD08B5AA
:106A70001020FFF71BFD4FF47A70FFF7EAFC00BF10
:106A800008BD000000B589B073238DF81E300020CA
:106A9000FFF7B0FD03468DF81F309DF81F30522BD5
:106AA00050D09DF81F30532B4CD09DF81F30732BC6
:106AB00048D0202304930023ADF8143002AB002209
:106AC0001A609A80384B00221A7002AB04A9062281
:106AD000009202223548FFF79BFC0690069B002B94
:106AE00007D0334A40F28F1106980AF081FE00E089
:106AF00020BF2D4B1B78DBB283F00103DBB2002BF0
:106B0000F6D19DF80A30522B07D09DF80A30532B4E
:106B100003D09DF80A30732B04D19DF80A308DF80C
:106B20001F300FE09DF80B30522B07D09DF80B3033
:106B3000532B03D09DF80B30732B03D19DF80B30F2
:106B40008DF81F309DF81F30522B03D1194B0622B0
:106B50001A7019E09DF81F30732B03D09DF81F3079
:106B6000532B03D1134B09221A700DE0124A134B19
:106B7000D31ADB081B0443F003039DF81F201049C0
:106B800018460FF05BFB0CE00B4A0C4BD31ADB08EA
:106B90001B0443F003039DF81F200A4918460FF019
:106BA0004DFB09B05DF804FB4D520020447E03000C
:106BB000A07C03000F510020DC7B0300A47B0300BA
:106BC000F87D0300207E030000B585B003901C4BC8
:106BD00000221A701B4B1B7800931B4B00220021D4
:106BE0001A48FFF715FC00E020BF154B1B78DBB2FD
:106BF00083F00103DBB2002BF6D1134B1B7803F0BB
:106C0000F003C02B17D10F4B1B78082B13D9039B14
:106C1000B3F806318833039A1344063303220C4930
:106C2000184610F0B5FE039BB3F8063103339AB251
:106C3000039BA3F8062100BF05B05DF804FB00BF6D
:106C40004D5200200F51002044520020447E03008A
:106C50004A52002000B583B003468DF80730FFF795
:106C6000FDFEFFF704FF0520FFF7F3FBFFF792FEA1
:106C70009DF80730002B01D0FFF704FFFFF72EFE31
:106C80009DF80730002B01D0FFF792FDFFF750FE73
:106C9000FFF7B2FE0A20FFF7DCFB074B0022A3F848
:106CA00006210FF047FB0346002BFAD100BF00BFBF
:106CB00003B05DF804FB00BFE8520020A8DF704776
:106CC00000BF1846AADF704700BF1846AEDF704706
:106CD00000BF184662DF704700BF184682B00190BF
:106CE0000091009B1B88102B02D0112B05D009E0CE
:106CF000009B9A88019B5A8004E0019B4FF6FF722B
:106D00005A8000BF00BF02B07047000000B5B3B0AA
:106D100001900023319311AB78220021184610F026
:106D200069FE01238DF8BE304EF6F263ADF8BC303B
:106D30000AAB1C220021184610F05CFE9DF828309A
:106D400043F002038DF828309DF8283023F0080323
:106D50008DF828309DF82430012262F303038DF86A
:106D600024309DF82430012262F307138DF824307B
:106D70009DF82530012262F303038DF825309DF83C
:106D80002530012262F307138DF825309DF8263057
:106D9000012262F342038DF8263009AB0F939DF870
:106DA000283043F010038DF8283008AB032200216F
:106DB000184610F01FFE9DF82230012262F34203B4
:106DC0008DF822309DF8223043F001038DF82230F7
:106DD0009DF82030012262F303038DF820309DF8E6
:106DE0002030012262F307138DF820309DF8213006
:106DF000012262F303038DF821309DF82130012236
:106E000062F307138DF8213003AB142200211846DA
:106E100010F0F0FD2FAB039308AB04937823ADF88B
:106E200014300023ADF816307823ADF8183011ABCC
:106E30000793019B9888019B0E3303AA0AA9FFF7C9
:106E400041FF3190319B3093309B002B04D0054A99
:106E5000702130980AF0CCFC0023184633B05DF85E
:106E600004FB00BF687E030010B58CB001901B4B83
:106E700003AC0FCB84E80F00019A03AB1146184610
:106E8000FFF728FF0B900B9B0A930A9B002B04D063
:106E9000134A80210A980AF0ABFC019B1B788DF8FD
:106EA0001E304EF6F063ADF81C300DF1220207AB38
:106EB00019460120FFF702FF0B900B9B0993099BDA
:106EC000002B04D0064A862109980AF091FC01980B
:106ED000FFF71CFF00BF0CB010BD00BFD87E030041
:106EE000687E030000B589B00190019B5B884FF676
:106EF000FF7293421AD07823ADF81A30019BDB89D8
:106F0000ADF8083001238DF80A300023ADF80C30BD
:106F10000DF11A030493019B8E330593019B5B884B
:106F200002AA11461846FFF7D1FE0790079B132BC4
:106F30000BD1084A084BD31ADB081B0443F00303A8
:106F4000079A064918460FF079F900BF09B05DF8B5
:106F500004FB00BFDC7B0300A47B0300E87E03008E
:106F6000A8DF704700BF1846AADF704700BF184669
:106F7000AEDF704700BF184662DF704700BF18469B
:106F800000B585B001900091009B06330393039BED
:106F90001A88019BDB889A420FD1039B5B89002BE7
:106FA0000BD0019B9B69002B07D0019B9B69009A2A
:106FB0009088039A0C320199984700BF05B05DF89C
:106FC00004FB000000B583B001900091019B002BF1
:106FD00032D0009B002B2FD0009B1B88502B26D03B
:106FE000502B2BDC102B02D0112B10D026E0009B55
:106FF0009A88019B5A80134A134BD31ADB081B044F
:1070000043F00303114918460FF00AF917E0019BFA
:107010004FF6FF725A800B4A0B4BD31ADB081B0446
:1070200043F003030A4918460FF0FAF807E0009905
:107030000198FFF7A5FF02E000BF00E000BF03B02A
:107040005DF804FBDC7B0300A47B03000C7F0300E2
:10705000287F030000B593B001900BAB1C220021E8
:10706000184610F0C7FC03AB03220021184610F0AD
:10707000C1FC9DF80C30012262F303038DF80C3043
:107080009DF80C30012262F307138DF80C309DF847
:107090000D30012262F303038DF80D309DF80D30A1
:1070A000012262F307138DF80D309DF80E30012296
:1070B00062F342038DF80E309DF82C3043F002034A
:1070C0008DF82C309DF82C3043F008038DF82C30CF
:1070D0009DF82C3043F010038DF82C3003AB109347
:1070E00001238DF8163041F6FF43ADF8143004ABA0
:1070F00003220021184610F07DFC9DF8103001227B
:1071000062F303038DF810309DF81030012262F312
:1071100007138DF810309DF81130012262F303033C
:107120008DF811309DF81130012262F307138DF8AC
:1071300011309DF81230012262F342038DF81230B3
:107140009DF8123023F008038DF812309DF81230AC
:1071500023F010038DF812309DF8123043F0010334
:107160008DF8123006AB14220021184610F042FCB4
:1071700005AB069304AB07930823ADF8203000233A
:10718000ADF822300823ADF82430019B1C330A935C
:10719000019B9888019B063306AA0BA9FFF7E4FE22
:1071A0000346184613B05DF804FB000000B5D1B0EB
:1071B00050ABA3F59E73186000234F9311ABF022E0
:1071C0000021184610F016FC01238DF8363150AB23
:1071D000A3F59E731B681B7803F5E75311339BB22D
:1071E000ADF834310AAB1C220021184610F002FC25
:1071F00050ABA3F58C72137843F00203137050ABBD
:10720000A3F58C72137843F01003137009AB0322BB
:107210000021184610F0EEFB50ABA3F58E721378E8
:10722000012161F30303137050ABA3F58E72137841
:10723000012161F30713137050ABA3F58E725378DD
:10724000012161F30303537050ABA3F58E725378A1
:10725000012161F30713537050ABA3F58E7293783D
:10726000012161F34203937050ABA3F58C7309AA1B
:107270005A6108AB03220021184610F0BBFB50AB4B
:10728000A3F590729378012161F34203937050ABA0
:10729000A3F59072937843F00103937050ABA3F57C
:1072A00090721378012161F30303137050ABA3F5BF
:1072B00090721378012161F30713137050ABA3F59B
:1072C00090725378012161F30303537050ABA3F51F
:1072D00090725378012161F30713537003AB1422AA
:1072E0000021184610F086FB50ABA3F59A734DAA07
:1072F0001A6050ABA3F59A7308AA5A6050ABA3F575
:107300009A73F0221A8150ABA3F59A7300225A8126
:1073100050ABA3F59A73F0229A8150ABA3F59A7300
:1073200011AA1A6150ABA3F59E731B68988850ABE5
:10733000A3F59E731B680E3303AA0AA9FFF714FE78
:107340004F904F9B4E934E9B002B04D0044AB42188
:107350004E980AF04DFA0023184651B05DF804FB30
:10736000487F030010B58EB001905A4B03AC0FCB91
:1073700084E80F00019B002B0BD1574A574BD31ABF
:10738000DB081B0443F00103554918460EF048FF83
:107390009DE0019B4FF6FF725A80019B00229A618B
:1073A000019B0022A3F8EC25019B0022A3F8EE2507
:1073B000019B0022A3F8F025019B0022A3F8F225EF
:1073C000019B0022C3F8F425019B1C3308220021F5
:1073D000184610F00FFB019B2433F02200211846C1
:1073E00010F008FB019B03F58A734FF48C720021A7
:1073F000184610F0FFFA019B03F50B734FF47072FF
:107400000021184610F0F6FA364B1B7883F0010382
:10741000DBB2002B12D003AB33491846FFF7ACFDAB
:107420000D900D9B0C930C9B002B04D02F4ADE215A
:107430000C980AF0DDF92B4B01221A702A4B1A78AE
:10744000019B5A70019B5B788DF81E3041F6F0432A
:10745000ADF81C300DF1220207AB19460120FFF7F1
:107460007FFD0D900D9B0B930B9B002B04D01F4AAF
:10747000E7210B980AF0BCF9BDF82220019B9A8005
:107480000198FFF7E7FD0D900D9B0A930A9B002BD7
:1074900004D0164AED210A980AF0AAF90198FFF7DC
:1074A00085FE0D900D9B0993099B002B04D00F4A7C
:1074B000F02109980AF09CF9074A084BD31ADB0817
:1074C0001B0443F003030A4918460EF0A9FE0EB050
:1074D00010BD00BF14800300DC7B0300A47B03000D
:1074E000B87F03004E5200204F520020487F030017
:1074F000EC7F030000B589B00190019B002B43D0C5
:10750000019B5B884FF6FF7293423DD0019BB3F81D
:10751000EC35002B38D0019BB3F8EC351A465200FD
:1075200013449B009BB2ADF81A30019BDB89ADF888
:10753000083001238DF80A300023ADF80C300DF12E
:107540001A030493019B24330593019B5B8802AAD1
:1075500011461846FFF70CFD0790079B002B04D13E
:10756000019B0022A3F8EC250FE0079B132B0CD105
:10757000074A084BD31ADB081B0443F003030649F0
:1075800018460EF04DFE00E000BF09B05DF804FBA8
:10759000DC7B0300A47B03002480030072DF7047C0
:1075A00000BF184673DF704700BF184674DF70478E
:1075B00000BF184676DF704700BF184677DF704778
:1075C00000BF184678DF704700BF18467ADF704763
:1075D00000BF18467CDF704700BF18468FDF70473A
:1075E00000BF184690DF704700BF1846B1DF7047F4
:1075F00000BF184669DF704700BF184600B5AFB03E
:1076000003468DF8073000238DF8B7309DF8B7306A
:107610009B00B8336B444FF4507223F8B02C9DF8A4
:10762000B7309B00B8336B44012203F8AE2C9DF8B1
:10763000B73001338DF8B7309DF8B7309B00B833C1
:107640006B4441F6190223F8B02C9DF8B7309B002B
:10765000B8336B44012203F8AE2C9DF8B7300133E8
:107660008DF8B7309DF8B7309B00B8336B4441F6C6
:107670000A0223F8B02C9DF8B7309B00B8336B4456
:10768000012203F8AE2C9DF8B73001338DF8B730E6
:107690001BAB3C220021184610F0ACF902238DF8F8
:1076A0006C3001238DF86E309DF80730002B01D02F
:1076B000042300E006238DF86F300CAB3C22002140
:1076C000184610F097F99DF8B7309BB2ADF84030EE
:1076D00002AB1193164B1F229A80154B1F229A81E1
:1076E000134B19681BAB134A184603F0F2FD2C909C
:1076F0002C9B2B932B9B002B04D00F4ACA212B9839
:107700000AF076F80A4B99680CAB0C4A184603F05D
:10771000E0FD2C902C9B2A932A9B002B04D0064A38
:10772000CD212A980AF064F800BF2FB05DF804FB61
:10773000385100203C5100205C800300445100205F
:1077400000B587B00190314B1B78002B57D1304BDF
:107750001B884FF6FF72934251D12E4B1B7D022B9B
:107760004FD12D4B1B781846FFF720FF0590059B46
:10777000002B0DD0059B082B0AD0059B0493049B7E
:10778000002B05D0254A40F2331104980AF030F856
:10779000204B00221A750020FFF730FF1D4A2049B8
:1077A0001D48FFF7FBFE0590059B0393039B002BF1
:1077B00005D01A4A40F23B1103980AF019F8164B0B
:1077C0001B7801211846FFF7EDFE0590059B0293FB
:1077D000029B002B05D0114A4FF49F7102980AF0CA
:1077E00007F8104A104BD31ADB081B0443F00303BD
:1077F00042F210720D4918460EF020FD02E000BF63
:1078000000E000BF07B05DF804FB00BFF0530020AC
:107810001051002064520020125100205C800300AF
:1078200038510020DC7B0300A47B0300D4800300DC
:1078300000B589B09DF80430012262F303038DF88E
:1078400004309DF80430012262F307138DF80430F0
:1078500001AB0E2223491846FFF7BCFE0790079B99
:107860000693069B002B05D01F4A4FF4A97106987A
:1078700009F0BEFF4FF45070FFF7A4FE0790079B7E
:107880000593059B002B05D0174A40F2551105982A
:1078900009F0AEFF02AB08220021184610F0AAF84A
:1078A0000623ADF808300C23ADF80A300023ADF8FC
:1078B0000C304FF4C873ADF80E3002AB1846FFF72A
:1078C00085FE0790079B0493049B002B05D0064A76
:1078D00040F25F11049809F08BFF00BF09B05DF81A
:1078E00004FB00BF188103005C80030000B583B077
:1078F0000021094805F09EF80190019B0093009B30
:10790000002B05D0054A4FF4B471009809F070FFC0
:1079100000BF03B05DF804FB505200205C80030000
:1079200000B583B00190054A40F27111019809F049
:107930005FFF00BF03B05DF804FB00BF5C80030085
:1079400000B583B00190019B1B78002B0AD1074A38
:10795000074BD31ADB081B0443F002030549184602
:107960000EF05EFC00BF03B05DF804FBDC7B03009F
:10797000A47B03002881030000B58BB001AB1C225F
:107980000021184610F036F8002301934FF4A0337D
:1079900002934FF4F023039303238DF81030002358
:1079A000ADF8123000238DF814300C4B06930C4BBD
:1079B000079301AB184603F0D1FE0990099B089389
:1079C000089B002B05D0074A40F29D11089809F04A
:1079D0000FFF00BF0BB05DF804FB00BF4179020050
:1079E000217902005C80030000B595B00190009100
:1079F00000231293019B1B88222B71DC102B41DA90
:107A000072E23B3B1C2B00F26F8201A252F823F082
:107A1000717E0200E97E0200E97E0200E97E02003A
:107A2000E97E0200E97E0200E97E0200E97E0200B2
:107A3000E97E0200E97E0200E97E0200E97E0200A2
:107A4000E97E0200E97E0200E97E0200E97E020092
:107A5000E97E0200E97E0200E97E0200E97E020082
:107A6000E97E0200E97E0200E97E0200337E020028
:107A7000E97E0200E97E0200E97E0200AD7E02009E
:107A80003B7D0200103B122B00F22E8201A252F825
:107A900023F000BF3B7B0200ED7A0200E97E02008A
:107AA000E97E0200E97E0200E97E0200E97E020032
:107AB000E97E0200E97E0200E97E0200E97E020022
:107AC000E97E0200E97E0200E97E0200E97E020012
:107AD000E97E0200E97E0200A97D02000B7E020021
:107AE000572B00F301823B2B8BDAFDE19E4B4FF6C7
:107AF000FF721A809D4B00221A709D4A9D4BD31A2B
:107B0000DB081B0443F00300019B1B7A1A469A49C9
:107B10000EF094FBFEF7A2FF01F07EFF974B0022D0
:107B20001A70934A934BD31ADB081B0443F00303E8
:107B3000934918460EF074FBDDE1019B9A888A4B4D
:107B40001A80894B1888002300220021FFF74EFD80
:107B50001290129B002B0DD0129B082B0AD0129B67
:107B60000D930D9B002B05D0864A40F2E7310D980E
:107B700009F03EFE844A03AB92E8030083E8030069
:107B8000794B1B8803A900221846FFF72BFD1290A2
:107B9000129B002B11D0129B112B0ED0129B082B85
:107BA0000BD0734A734BD31ADB081B0443F0020358
:107BB000129A764918460EF041FB0020FFF74AF86A
:107BC0006B4A6C4BD31ADB081B0443F00303704968
:107BD00018460EF025FB00F0F9FB68216D4801F016
:107BE00033F91290129B0C930C9B002B05D0654A25
:107BF00040F221410C9809F0FBFD0121654800F09D
:107C0000BFFE1290129B0B930B9B002B05D05D4A7D
:107C100040F223410B9809F0EBFD0222C8215D4898
:107C200000F04CFF1290129B0A930A9B002B05D088
:107C3000544A40F225410A9809F0DAFD0023012256
:107C40000121544801F031F81290129B0993099BCD
:107C5000002B05D04B4A40F22741099809F0C8FD96
:107C600069214D4801F0F0F81290129B0893089B8F
:107C7000002B05D0434A40F22A41089809F0B8FD8C
:107C80000221454800F07CFE1290129B0793079B4F
:107C9000002B05D03B4A40F22C41079809F0A8FD83
:107CA00028220A213C4800F009FF1290129B0693FB
:107CB000069B002B05D0334A40F22E41069809F06E
:107CC00097FD002301220121334800F0EEFF1290BE
:107CD000129B0593059B002B05D02A4A4FF4866121
:107CE000059809F085FD224A224BD31ADB081B04B4
:107CF00043F00303294918460EF092FA1F4B002265
:107D00001A7001F03FFE1A4A1A4BD31ADB081B0403
:107D100043F00303224918460EF082FA134B012266
:107D20001A70134A134BD31ADB081B0443F00303E6
:107D30001C4918460EF074FADDE0019B9B79ADF802
:107D400046300023ADF84E3006E001F015FEBDF8D8
:107D50004E300133ADF84E30BDF84E20BDF8463000
:107D60009A42F2D3C7E000BF10510020F053002028
:107D7000DC7B0300A47B030070810300E45F002030
:107D80008C8103005C800300188303009C81030046
:107D9000C4810300BC520020D0520020F0810300B7
:107DA0003C8203005482030000238DF80830002336
:107DB0008DF80930584A594BD31ADB081B0443F09D
:107DC0000303574918460EF02BFA019B9B8802AA21
:107DD00011461846FFF702FC1290129B002B00F090
:107DE0008580129B112B00F08180129B082B7DD087
:107DF000494A4A4BD31ADB081B0443F00203129A88
:107E0000484918460EF01AFA70E0019B5A7A464B20
:107E10001A70414A414BD31ADB081B0443F003009C
:107E2000019B5B7A1A46019B9B7A40490EF017FA38
:107E300061E0019B9888002300220021FFF7D6FB18
:107E40001290129B0F930F9B002B05D0384A40F2E3
:107E500071410F9809F0CCFC2F4A304BD31ADB0844
:107E60001B0443F00303334918460EF0D9F942E0EE
:107E7000294A2A4BD31ADB081B0443F003032E497B
:107E800018460EF0CDF9019B9B8813211846FFF789
:107E900091FB1290129B0E930E9B002B28D0244A2C
:107EA00040F27E410E9809F0A3FC21E01A4A1B4BD8
:107EB000D31ADB081B0443F00303204918460EF0D5
:107EC000AFF9019B9B8813211846FFF773FB1290B3
:107ED000129B1093109B002B0CD0154A40F28A4144
:107EE000109809F085FC05E000BF04E000BF02E047
:107EF00000BF00E000BF01991148FEF7EFFE0199B5
:107F00001048FFF75FF801990F48FFF75BF800BFD3
:107F100015B05DF804FB00BFDC7B0300A47B03000D
:107F2000608203007C82030013510020A8820300BA
:107F30005C800300C4820300E88203000083030026
:107F4000E8520020F4530020EC59002000B58FB017
:107F50000FF00CF90D900D9B0C930C9B002B05D092
:107F6000654A40F2AB410C9809F042FC00230493AF
:107F700004AB194601200FF00FFA0D900D9B0B93E7
:107F80000B9B002B05D05C4A40F2B1410B9809F0E5
:107F90002FFC01AB0C22002118460FF02BFD022311
:107FA0008DF80430049A01AB19460120FFF722FB3B
:107FB0000D900D9B0A930A9B002B05D04E4A40F270
:107FC000BA410A9809F014FC01AB0C2200211846B2
:107FD0000FF010FD01238DF8053000238DF80630D9
:107FE00000238DF80730049A01AB19464020FFF7B3
:107FF00001FB0D900D9B0993099B002B05D03E4A78
:1080000040F2C541099809F0F3FB01AB0C220021B5
:1080100018460FF0EFFC01238DF80430F723ADF87C
:108020000630049A01AB19462320FFF7E3FA0D90BE
:108030000D9B0893089B002B05D02F4A40F2CC41A2
:10804000089809F0D5FB01AB0C22002118460FF06F
:10805000D1FC01238DF804304FF4A073ADF8083043
:1080600001238DF80630049A01AB19462020FFF752
:10807000C1FA0D900D9B0793079B002B05D01E4A5C
:1080800040F2D441079809F0B3FB01AB0C22002168
:1080900018460FF0AFFC01238DF8043020238DF833
:1080A0000630049A01AB19462220FFF7A3FA0D907F
:1080B0000D9B0693069B002B05D00F4A40F2DB4137
:1080C000069809F095FB04AB18460FF083FA0D9063
:1080D0000EF030F90346002BFAD10D9B0593059B5A
:1080E000002B05D0044A4FF49C61059809F080FBF1
:1080F00000BF0FB05DF804FB5C80030000B587B0E3
:1081000003468DF80730264B1B7D022B0CBF012345
:108110000023DBB21846FFF771FA214A21492248B1
:10812000FFF73CFA0590059B0493049B002B05D0B8
:108130001E4A40F22C51049809F05AFB1A4B1B7846
:10814000042219460120FFF739FA0590059B039395
:10815000039B002B05D0154A40F23151039809F0DA
:1081600047FB114B1B7801211846FFF71BFA0590BE
:10817000059B002B10D0059B082B0DD0059B122BC7
:108180000AD0059B0293029B002B05D0074A4FF4AF
:10819000A761029809F02CFB00BF07B05DF804FB53
:1081A0006452002038510020125100205C800300EE
:1081B00000B585B00020FFF721FA182200212C48D5
:1081C0000FF018FC2A4B01225A75294B00229A8184
:1081D000274B01221A70264B00225A60244B0022A2
:1081E0001A75234B40229A60214A22492248FFF700
:1081F000D5F90390039B0293029B002B05D01F4AE5
:1082000040F26151029809F0F3FA1B4B1B780422EB
:1082100019460120FFF7D2F90390039B0193019BBC
:10822000002B05D0154A40F26551019809F0E0FA9B
:10823000134B1B7883F00103DBB2002B13D0114AE0
:108240000021114809F0C2FE0390039B0093009B9C
:10825000002B05D0094A40F26C51009809F0C8FA89
:10826000074B01221A7000BF05B05DF804FB00BF88
:108270006452002038510020125100205C8003001D
:10828000BB520020417702005880030000B585B042
:108290000190019B002B0AD0074B43F0010303938D
:1082A000019B9B010293039B0298984700E000BF4B
:1082B00005B05DF804FB00BF7084030000B583B017
:1082C0000190019B0433184607F072F900BF03B018
:1082D0005DF804FB00B589B0059003921A460B4681
:1082E0008DF8133013468DF8123000230793059B49
:1082F000181D9DF812209DF813109DF8283000934A
:108300001346039A07F004FC0790079B184609B030
:108310005DF804FB00B587B0039001921A460B4646
:108320008DF80B3013468DF80A3000230593039B1C
:10833000181D9DF80A309DF80B10019A07F010FCEB
:108340000590059B184607B05DF804FB00B583B0A7
:108350000190019B002B0AD04FF47A70FFF796FF33
:10836000019B013B0193019B002BF5D100E000BF75
:1083700003B05DF804FB84B001900091019B03936E
:10838000009B01331A78039B1A70039B0133009AF8
:1083900012781A70009BDA1C039B023312781A7051
:1083A000009B9A1C039B033312781A70009B5A1D82
:1083B000039B043312781A70009B1A1D039B05332C
:1083C00012781A7000BF04B07047000000B587B083
:1083D000224B1B78002B3CD16B4600221A605A605E
:1083E0009A60DA60192300931A2301934FF0CD634A
:1083F000029303238DF80C306946002300221848AD
:1084000004F034FF0590059B082B06D1134B012285
:108410001A701348FFF752FF1CE0059B0493049B5E
:10842000002B04D00F4A6221049809F0E1F90C48AE
:10843000FFF744FF094B01221A700B4A0B4BD31A6A
:10844000DB081B0443F00303094918460DF0E8FE5E
:1084500000E000BF07B05DF804FB00BFE45200205D
:108460004851002020830300DC7B0300A47B030031
:108470009083030000B587B003900B468DF80B3056
:10848000039B002B01D10E2332E0039B1B68002BC2
:1084900001D108232CE09DF80B30032B01D90723D1
:1084A00026E0039B5B799DF80B209A4201D10023C3
:1084B0001EE07F238DF810309DF80B301B01DBB2DE
:1084C00003F03003DBB28DF81130039B1868039B77
:1084D000197904AA002300930223FFF7FBFE0590FD
:1084E000059B002B03D1039B9DF80B205A71059B24
:1084F000184607B05DF804FB00B583B001900B4649
:10850000ADF8023013468DF801300DF10102BDF8CF
:1085100002100123019800F005F80346184603B045
:108520005DF804FB10B598B00590039202930B46DA
:10853000ADF81230059B002B02D0039B002B01D11C
:108540000E2338E0029B002B01D1002333E0029B75
:10855000402B01D909232EE0BDF81230DB099BB274
:10856000DBB203F00303DBB219460598FFF782FF85
:108570001790179B002B01D0179B1CE0BDF8123001
:10858000DBB203F07F03DBB28DF8183006AB0133AA
:10859000029A039918460FF0FBF9059B1868059B92
:1085A0001979029BDBB20133DBB206AA00240094E6
:1085B000FFF790FE0346184618B010BD00B585B011
:1085C00003900B460192ADF80A30BDF80A10012362
:1085D000019A039800F005F80346184605B05DF8C7
:1085E00004FB00B589B00590039202930B46ADF8E9
:1085F0001230059B002B02D0039B002B01D10E23D0
:1086000039E0029B002B01D1002334E0BDF8123089
:10861000DB099BB2DBB203F00303DBB2194605981A
:10862000FFF728FF0790079B002B01D0079B22E054
:10863000BDF81230DBB203F07F03DBB28DF81B30E4
:10864000059B1868059B19790DF11B020123009306
:108650000123FFF73FFE0790079B002B01D0079BEC
:1086600009E0059B1868059B1979029BDBB2039A08
:10867000FFF750FE0346184609B05DF804FB00B54D
:1086800085B00190084611461A460346ADF80230FF
:108690000B468DF8013013468DF8003000238DF81D
:1086A0000B300DF10B02BDF8023019460198FFF7AF
:1086B00085FF0390039B002B01D0039B1DE09DF9D8
:1086C0000130DB435AB29DF80B305BB213405AB213
:1086D0009DF800109DF801300B40DBB25BB21343F4
:1086E0005BB2DBB28DF80B309DF80B20BDF8023089
:1086F00019460198FFF700FF0346184605B05DF8DC
:1087000004FB000082B00190019BB3F5004F02DB37
:1087100047F6FF7307E0019B13F5004F01DA034BA7
:1087200001E0019B1BB2184602B070470080FFFFBA
:1087300082B001900B46ADF80230BDF802301B0A42
:108740009BB2DAB2019B1A70019B0133BDF8022083
:10875000D2B21A7000BF02B0704700B585B0039066
:1087600002910192039BB3F900301A46029BB3F9C0
:108770000030D31A1846FFF7C5FF03461A46039B7D
:108780001A80039BB3F902301A46029BB3F90230F8
:10879000D31A1846FFF7B6FF03461A46039B5A80C2
:1087A000039BB3F904301A46029BB3F90430D31A81
:1087B0001846FFF7A7FF03461A46039B9A80039BC0
:1087C000B3F906301A46019BB3F90030D31A1846A4
:1087D000FFF798FF03461A46039BDA80039BB3F921
:1087E00008301A46019BB3F90230D31A1846FFF736
:1087F00089FF03461A46039B1A81039BB3F90A308B
:108800001A46019BB3F90430D31A1846FFF77AFFD2
:1088100003461A46039B5A8100BF05B05DF804FB6E
:1088200000B583B001900091009BB3F90030194668
:108830000198FFF77DFF019B9A1C009BB3F9023062
:1088400019461046FFF774FF019B1A1D009BB3F9F0
:10885000043019461046FFF76BFF019B9A1D009BE1
:10886000B3F9063019461046FFF762FF019B03F18A
:108870000802009BB3F9083019461046FFF758FF6D
:10888000019B03F10A02009BB3F90A301946104616
:10889000FFF74EFF00BF03B05DF804FB00B58FB0DB
:1088A0000390029101920093009B002B01D108AB31
:1088B00000E0009B0C93019B0D93029B002B30D09A
:1088C000009B002B02D1019B002B2AD00D9B002B7B
:1088D00001D105AB0D930C2202990D980FF058F8B9
:1088E0000C9B0D991846FFF746FD0C9B9A1D0D9B9E
:1088F000063319461046FFF73EFD039B002B11D0AF
:10890000039B9B7C002B0DD0039B991D039B0C3379
:108910001A460C98FFF721FF0C990D98FFF780FF7E
:1089200000E000BF0FB05DF804FB00B587B0039016
:1089300002910192039B002B02D0029B002B01D1DC
:108940000E2319E00C23029A2D210398FFF749FE0C
:108950000590059B002B01D0059B0DE0019B002B92
:1089600003D1039B9B7C002B05D0019B029A0299AB
:108970000398FFF793FF0023184607B05DF804FB48
:1089800000B587B001900B468DF80330019B002B9A
:1089900001D10E2385E09DF80330022B01D9072376
:1089A0007FE09DF80330DB00404A13440593059BAC
:1089B0009B781A464FF480710198FFF79DFD049053
:1089C000049B002B01D0049B6BE0059B1B781A468F
:1089D00040F201110198FFF78FFD0490049B002BDA
:1089E00001D0049B5DE0059B9B791A464FF4817191
:1089F0000198FFF781FD0490049B002B01D0049B9C
:108A00004FE0059BDB788DF80C30059B1B798DF8CA
:108A10000D3003AA02234FF488710198FFF782FDFD
:108A20000490049B002B01D0049B3AE0059B5B79EA
:108A30001A4640F209110198FFF75EFD0490049B6D
:108A4000002B01D0049B2CE0059B5B781A464FF469
:108A50008A710198FFF750FD0490049B002B01D010
:108A6000049B1EE0059BDB791A4640F21511019824
:108A7000FFF742FD0490049B002B01D0049B10E003
:108A8000019B00229A740A4A0A4BD31ADB081B0482
:108A900043F003039DF80320074918460DF0CEFB71
:108AA0000023184607B05DF804FB00BF588403009C
:108AB000DC7B0300A47B0300E08303002DE9F04F7F
:108AC0009FB00D900B46ADF832301346ADF8303004
:108AD0000D9B002B01D10E23BFE0BDF83230002BDF
:108AE00001D10723B9E04FF000024FF00003CDE9B8
:108AF0001C234FF000024FF00003CDE91A234FF082
:108B000000024FF00003CDE918230D9A002393745F
:108B10000023ADF85E3046E00FAA13AB19460D985E
:108B2000FFF703FF1690169B002B01D0169B94E0D5
:108B3000BDF942301BB2DA1702930392DDE91C2320
:108B4000029951180A9103994B410B93DDE90A23CD
:108B5000CDE91C23BDF944301BB2DA179846914683
:108B6000DDE91A2312EB080A43EB090BCDE91AAB36
:108B7000BDF946301BB2DA171C461546DDE918234D
:108B8000161943EB0507CDE91867BDF83030002B07
:108B900004D0BDF830301846FFF7D8FBBDF85E3082
:108BA0000133ADF85E30BDF85E20BDF832309A4238
:108BB000B2D30D9B0022DA800D9B00221A810D9BFF
:108BC00000225A81BDF83230002204930592DDE97B
:108BD0000423DDE91C010EF00BFE02460B4612B227
:108BE0000D9B9A81BDF83230002206930792DDE991
:108BF0000623DDE91A010EF0FBFD02460B4612B218
:108C00000D9BDA81BDF83230002208930992DDE92C
:108C10000823DDE918010EF0EBFD02460B4612B207
:108C20000D9B1A820D9B01229A740E4A0E4BD31A89
:108C3000DB081B0443F003000D9BB3F90C301A460C
:108C40000D9BB3F90E3019460D9BB3F9103000930C
:108C50000B4606490DF017FB002318461FB0BDE870
:108C6000F08F00BFDC7B0300A47B030000840300C3
:108C700000B585B00190019B002B01D10E2310E0BF
:108C80001F2268210198FFF737FC0390039B002BFC
:108C900001D0039B05E0002268210198FFF72CFC1E
:108CA0000346184605B05DF804FB00B585B0019099
:108CB000084611461A4603468DF803300B468DF8D8
:108CC000023013468DF8013000238DF80F30019BE0
:108CD000002B01D10E2369E09DF80330002B05D055
:108CE0009DF80F3043F010038DF80F309DF80230DF
:108CF000002B05D09DF80F3043F00E038DF80F3098
:108D0000002266210198FFF7F7FB0290029B002BDF
:108D100001D0029B4AE0002267210198FFF7ECFB9B
:108D20000290029B002B01D0029B3FE09DF8013096
:108D3000002B01D0012300E000231A467621019880
:108D4000FFF7DAFB0290029B002B01D0029B2DE083
:108D5000002269210198FFF7CFFB0290029B002BB4
:108D600001D0029B22E00198FFF782FF0290029B54
:108D7000002B01D0029B19E09DF80F30002B01D091
:108D8000402300E00023402203210198FFF777FCF5
:108D90000290029B002B01D0029B07E09DF80F3050
:108DA0001A4667210198FFF7A7FB0346184605B04E
:108DB0005DF804FB00B585B001900091019B002B8C
:108DC00002D0009B002B01D10E231CE002AA02233B
:108DD00070210198FFF705FC0390039B002B01D045
:108DE000039B10E09DF808301BB21B021BB203F47A
:108DF000F8531AB29DF809301BB213431BB29AB252
:108E0000009B1A800023184605B05DF804FB00B5EE
:108E100085B0039002910192039B002B02D0029B2C
:108E2000002B01D10E230BE0019B002B01D100236D
:108E300006E0019B029A72210398FFF7D2FB0346DA
:108E4000184605B05DF804FB00B585B001900B46EF
:108E50008DF80330019B002B01D10E232CE0019BE8
:108E6000174A1A60019B9DF803201A71019BFF228B
:108E70005A71019B0022DA80019B00221A81019B1A
:108E800000225A81019B00229A81019B0022DA81F3
:108E9000019B00221A82019B00229A7400210198F2
:108EA000FFF7E8FA0390039B002B01D0039B03E03C
:108EB000019800F007F80346184605B05DF804FB7A
:108EC0004851002000B587B0019000238DF8133081
:108ED00000238DF8123000238DF811300022032179
:108EE0000198FFF709FB0590059B002B01D0059B1E
:108EF000C3E1012206210198FFF7FEFA0590059BC8
:108F0000002B01D0059BB8E1002207210198FFF753
:108F1000F3FA0590059B002B01D0059BADE10022E3
:108F200005210198FFF7E8FA0590059B002B01D079
:108F3000059BA2E130220F210198FFF7DDFA059091
:108F4000059B002B01D0059B97E100221021019881
:108F5000FFF7D2FA0590059B002B01D0059B8CE111
:108F6000012211210198FFF7C7FA0590059B002BFC
:108F700001D0059B81E1002212210198FFF7BCFA84
:108F80000590059B002B01D0059B76E10022132163
:108F90000198FFF7B1FA0590059B002B01D0059BC6
:108FA0006BE10DF113031A4600210198FFF706FB50
:108FB0000590059B002B01D0059B5EE19DF81330C9
:108FC000EA2B01D00B2358E10DF113031A460321BC
:108FD0000198FFF7F3FA0590059B002B01D0059B44
:108FE0004BE19DF81330002B01D00B2345E10DF12F
:108FF00013031A4606210198FFF7E0FA0590059B36
:10900000002B01D0059B38E19DF81330012B01D0D6
:109010000B2332E10DF113031A4607210198FFF7E4
:10902000CDFA0590059B002B01D0059B25E19DF80D
:109030001330002B01D00B231FE10DF113031A464F
:109040000F210198FFF7BAFA0590059B002B01D07C
:10905000059B12E19DF81330302B01D00B230CE15E
:109060000DF113031A4610210198FFF7A7FA059096
:10907000059B002B01D0059BFFE09DF81330002BD2
:1090800001D00B23F9E00DF113031A4611210198C9
:10909000FFF794FA0590059B002B01D0059BECE0AF
:1090A0009DF81330012B01D00B23E6E00DF11203E4
:1090B0001A4619210198FFF781FA0DF111031A469A
:1090C0001A210198FFF77AFA04224FF4807101986F
:1090D000FFF712FA0590059B002B01D0059BCCE011
:1090E0001B2240F201110198FFF706FA0590059B3B
:1090F000002B01D0059BC0E000224FF48171019844
:10910000FFF7FAF90590059B002B01D0059BB4E011
:109110004FF48063ADF80C3003AA02234FF488713A
:109120000198FFF7FFF90590059B002B01D0059BE7
:10913000A3E01B224FF48A710198FFF7DDF9059037
:10914000059B002B01D0059B97E0002240F21511F2
:109150000198FFF7D1F90590059B002B01D0059BE5
:109160008BE00DF113031A464FF480710198FFF75D
:1091700025FA0590059B002B01D0059B7DE09DF80D
:109180001330042B01D00B2377E00DF113031A46A3
:1091900040F201110198FFF711FA0590059B002B91
:1091A00001D0059B69E09DF813301B2B01D00B23E8
:1091B00063E00DF113031A464FF481710198FFF734
:1091C000FDF90590059B002B01D0059B55E09DF80E
:1091D0001330002B01D00B234FE00023ADF80830F3
:1091E00002AA02234FF488710198FFF7FAF905905B
:1091F000059B002B01D0059B3FE09DF80830002B1C
:1092000001D00B2339E09DF80930042B01D00B234A
:1092100033E00DF113031A464FF48A710198FFF7FA
:10922000CDF90590059B002B01D0059B25E09DF80D
:1092300013301B2B01D00B231FE00DF113031A4633
:1092400040F215110198FFF7B9F90590059B002B25
:1092500001D0059B11E09DF81330002B01D00B23AA
:109260000BE0084A084BD31ADB081B0443F0030346
:10927000064918460CF0D4FF0023184607B05DF8E5
:1092800004FB00BFDC7B0300A47B030030840300ED
:1092900000B585B00190019B002B0AD0074B43F02D
:1092A00001030393019B9B010293039B0298984740
:1092B00000E000BF05B05DF804FB00BFF0850300CF
:1092C00000B583B00190019B1B68184600F065F85B
:1092D0000346002B04D105494FF4F67000F08EF8D8
:1092E0004FF0A043184603B05DF804FB78840300F8
:1092F00000B585B00190084611461A4603468DF820
:1093000003300B468DF8023013468DF8013001AB67
:109310001846FFF7D5FF03909DF803209DF8023013
:109320005B001A439DF801309B001A439DF81830EA
:109330001B0242EA03019DF81C301B04019A1943E9
:10934000039B02F5E07243F8221000BF05B05DF800
:1093500004FB00B587B003900B468DF80B309DF8E9
:109360000B30002B0AD103980023019300230093B4
:10937000002300220021FFF7BBFF0AE003AB1846E1
:10938000FFF79EFF0590039B01229A40059BC3F8BF
:10939000182500BF07B05DF804FB84B00190019B65
:1093A0005B09029300230393029B002B03D14FF030
:1093B000FF33039300BF019B03F01F030193039A44
:1093C000019B22FA03F303F00103DBB2184604B059
:1093D000704700B583B00190019B002B0AD04FF479
:1093E0007A70FFF755FF019B013B0193019B002B16
:1093F000F5D100E000BF03B05DF804FB00B583B019
:1094000003460091ADF80630BDF80630009A1946C3
:10941000034808F0EDF900BF03B05DF804FB00BF9E
:10942000EFBEADDE82B00190024B00221A8000BF79
:1094300002B07047E65F002000B585B00190019B47
:10944000002B21D000238DF80F300DF10F031846AB
:1094500008F01EFF019B0022A3F8EC25019B0022CF
:10946000A3F8EE25019B0022A3F8F025019B002222
:10947000A3F8F225019B0022C3F8F4259DF80F30D4
:10948000184608F01BFF00E000BF05B05DF804FBC4
:1094900000B587B0039002911346ADF80630002363
:1094A000ADF81630039B002B7ED0029B002B7BD0A7
:1094B000BDF80630002B77D000238DF815300DF164
:1094C0001503184608F0E4FE62E0039BB3F8F2359A
:1094D0009BB24F2B21D9039BB3F8F0359BB2591C9B
:1094E000334BA3FB01239A0913469B0013441B0132
:1094F000CA1A92B2039BA3F8F025039BB3F8F23586
:109500009BB2013B9AB2039BA3F8F225039BD3F8CD
:10951000F4355A1C039BC3F8F425039BB3F8EE35CE
:109520009BB21A4613465B0013449B0003F50A7373
:10953000039A1344181DBDF8162013465B0013440C
:109540009B001A46029B13440C2219460EF020FA87
:10955000039BB3F8EE359BB2591C154BA3FB0123BB
:109560009A0913469B0013441B01CA1A92B2039B2B
:10957000A3F8EE25039BB3F8F2359BB201339AB200
:10958000039BA3F8F225BDF816300133ADF8163071
:10959000BDF81620BDF806309A4296D39DF81530D6
:1095A000184608F08BFE00E000BF07B05DF804FB32
:1095B000CDCCCCCC00B58BB00190019B4FF4BF62F9
:1095C00002FB03F3474A13440893019A13469B0096
:1095D00013449B00444A134407930023ADF82630FC
:1095E000089BB3F8EC35002B67D0012375E000230E
:1095F0008DF80F300DF10F03184608F049FE089B57
:10960000B3F8F2359BB2002B05D19DF80F30184608
:1096100008F054FE55E0089BB3F8F0359BB21A46AB
:1096200013465B0013449B0003F50A73089A134426
:109630001A1D04AB10685168926807C3089BB3F801
:10964000F0359BB2591C294BA3FB01239A09134601
:109650009B0013441B01CA1A92B2089BA3F8F02581
:10966000089BB3F8F2359BB2013B9AB2089BA3F872
:10967000F2259DF80F30184608F020FEBDF8262090
:1096800013465B0013449B002033089A1344181DB3
:10969000BDF826201346DB009B1A5B0003F5887398
:1096A000089A1344043304A902460798FFF7F6F812
:1096B000BDF826300133ADF82630BDF82630132B27
:1096C00095D9089BBDF82620A3F8EC25BDF82630D7
:1096D000002B14BF01230023DBB218460BB05DF84A
:1096E00004FB00BFF4530020BC520020CDCCCCCCF6
:1096F00000B585B00190019B4FF4BF6202FB03F3FC
:109700001A4A13440393039B5B884FF6FF729342FC
:1097100001D1002326E0039BB3F8EC35002B0AD1DE
:109720000198FFF747FF034683F00103DBB2002BEC
:1097300001D0002316E0039BB3F8EC35ADF80A30F6
:109740000398FDF7D7FEBDF80A30002B06D0039B27
:10975000B3F8EC35002B01D1012300E0002303F026
:109760000103DBB2184605B05DF804FBF45300209A
:1097700000B587B000238DF8173000230493002331
:109780008DF807300DF10703184608F081FD294BCD
:109790001B78DBB2002B05D09DF80730184608F087
:1097A0008DFD43E0234B01221A709DF807301846C7
:1097B00008F084FD00238DF81730002303931BE08D
:1097C0001D4B1B781A46039B134403F001030293BD
:1097D0000298FFF78DFF0346002B0AD0029B01334E
:1097E000DBB203F00103DAB2134B1A7001238DF8D8
:1097F0001730039B01330393039B012BE0D9049B98
:10980000013304939DF81730002B02D0049B072BE3
:10981000D0D90DF10703184608F03AFD054B002298
:109820001A709DF80730184608F048FD07B05DF83B
:1098300004FB00BFE85F0020E45F002000B59DB09E
:109840000190019B1A930023ADF80E301A9B4FF440
:10985000BF6202FB03F3404A134419931A9A13465A
:109860009B0013449B003D4A13441893189B1B68AC
:10987000002B6CD0199B5B884FF6FF72934266D029
:109880000DF10E0319461898FFF794FA1790179BDD
:10989000002B0DD0324A334BD31ADB081B0443F0A4
:1098A00003001A9B5A1C179B2F490CF0D8FC4FE061
:1098B000BDF80E302D4AA2FB0323DB08ADF86E3055
:1098C00040E0BDF86E30ADF86C30294A1A9B32F892
:1098D0001330BDF86C209A4205D9254A1A9B32F8FC
:1098E0001330ADF86C30BDF86C301A46520013449A
:1098F0009B00ADF85A30BDF85A2004AB19461898B1
:10990000FFF785FA1790179B002B0DD0144A154BC3
:10991000D31ADB081B0443F003001A9B5A1C179B45
:1099200014490CF09CFC13E0BDF86C2004AB194604
:109930001998FFF7ADFDBDF86E20BDF86C30D31A55
:10994000ADF86E30BDF86E30002BBAD100E000BF2C
:109950001DB05DF804FB00BFF4530020BC52002092
:10996000DC7B0300A47B0300A8840300ABAAAAAAA3
:10997000EC850300CC84030008B5FFF7F9FE00BFB7
:1099800008BD000000B585B01E4B1B68002B18D029
:109990001D481E4B1B680022194608F051FB03901E
:1099A000039B002B0DD0039B082B0AD0039B029333
:1099B000029B002B05D0164A40F26711029807F06F
:1099C00017FF104B5B69002B18D012480F4B5B68D8
:1099D0000122194608F034FB0390039B002B0DD0A5
:1099E000039B082B0AD0039B0193019B002B05D0FE
:1099F000074A40F27111019807F0FAFE00BF05B066
:109A00005DF804FBBC520020585100209851002002
:109A1000F08403007851002000B585B0214B184632
:109A200008F066FB0290029B002B0DD0029B082BD6
:109A30000AD0029B0193019B002B05D01A4A4FF4D8
:109A4000BF71019807F0D4FE184B184608F050FB80
:109A50000290029B002B0DD0029B082B0AD0029B88
:109A60000093009B002B05D00F4A40F2851100980F
:109A700007F0BEFE002303930CE0039B4FF4BF628C
:109A800002FB03F30A4A13441846FFF7D5FC039B75
:109A900001330393039B012BEFD900BF00BF05B037
:109AA0005DF804FB58510020F08403007851002039
:109AB000F453002000B587B008F04AFA0590059BE2
:109AC0000493049B002B05D01E4A4FF4D7710498D1
:109AD00007F08EFE1C4A01211C4808F077FA059019
:109AE000059B0393039B002B05D0164A40F2B1114E
:109AF000039807F07DFE144A0121154808F066FA24
:109B00000590059B0293029B002B05D00D4A40F265
:109B1000B511029807F06CFE0E4A01210E4808F0BC
:109B200055FA0590059B0193019B002B05D0054A32
:109B300040F2BB11019807F05BFE00BF07B05DF873
:109B400004FB00BFF08403003D980200E0850300A1
:109B5000E485030025940200E885030000B593B076
:109B60001E48FDF781F91E4B00221A701C48FDF7B4
:109B7000F9FB1B4B012283F8F8251A48FDF7F2FB8D
:109B80006B464022002118460DF034FF6B46164903
:109B9000184602F094FB6B4608331449184602F04D
:109BA0008EFB6B4620331249184602F088FB0123D6
:109BB0008DF83C306B46184602F04EFA1190119B1E
:109BC0001093109B002B05D00A4A4FF4F97110989E
:109BD00007F00EFE00BF13B05DF804FBE852002052
:109BE000F4530020EC5900205885030064850300DD
:109BF00070850300F084030000B583B00B4B002296
:109C00004FF48041184608F01BFA0190019B009325
:109C1000009B002B05D0064A4FF40071009807F016
:109C2000E7FD00BF03B05DF804FB00BFA0510020BA
:109C3000F084030000B583B04FF4804100200CF0A5
:109C400019F80190019B0093009B002B05D0064A58
:109C500040F21321009807F0CBFD0BF08DFF00BF01
:109C600003B05DF804FB00BFF084030000B583B0CF
:109C700001900B468DF803300E4B1B78002B14D04F
:109C80000D48FCF7A1FF0D4B1B8801339AB20B4B1B
:109C90001A80094BB3F80631782B06D1064B002207
:109CA000A3F806210448FDF71DF900BF03B05DF8D5
:109CB00004FB00BFF0530020E8520020E65F0020C4
:109CC00000B587B00023059304F0A6F9034683F09E
:109CD0000103DBB2002B02D004F03AF90590002119
:109CE0000B20FFF736FB01211020FFF732FB364A2D
:109CF000364BD31ADB081B0443F00503059A34499D
:109D000018460CF09BFA0CF015FB0346002BFAD119
:109D1000059B0493049B002B05D02E4A4FF424711D
:109D2000049807F065FD01238DF80F3002238DF8AC
:109D3000043000238DF805309DF8063023F0010330
:109D40008DF806309DF806309DF80F2062F3410330
:109D50008DF806309DF8063023F004038DF80630A8
:109D60009DF8063023F001038DF8063000238DF8AE
:109D7000053001AB184A19460B2004F059F905903B
:109D8000114A124BD31ADB081B0443F00503059A52
:109D9000124918460CF052FA0CF0CCFA0346002B8C
:109DA000FAD1059B0293029B002B05D0094A4FF480
:109DB0002671029807F01CFD01210B2004F0B6F972
:109DC00000BF07B05DF804FBDC7B0300A47B03004D
:109DD00080850300F08403006D9C0200A0850300D1
:109DE00000B585B000230393FEF7F0FA4FF47A70C4
:109DF000FFF7EFFA68211148FFF726F80390039B5D
:109E00000293029B002B05D00D4A40F2A321029839
:109E100007F0EEFC69210B48FFF716F80390039B4F
:109E20000193019B002B05D0054A40F2A621019821
:109E300007F0DEFC00BF05B05DF804FBBC5200205B
:109E4000F0840300D052002000B583B00BF0D6FAA6
:109E50000190019B0093009B002B05D0044A40F227
:109E6000B221009807F0C4FC00BF03B05DF804FB0A
:109E7000F084030000B583B000230193FFF7DAFEFE
:109E8000FFF718FEFFF7E0FFFEF760F8FDF7D0FCE4
:109E9000FDF72CFDFFF762FEFEF78AF9FDF76CFD7A
:109EA0000120FCF709FCFFF70BFF0120FCF7D2FEB5
:109EB000FCF7D4FDFFF794FF184A194BD31ADB08BF
:109EC0001B0443F00503174918460CF0A9F9FFF7E6
:109ED00093FE0CF02FFA0346002BFAD107E0FFF7B0
:109EE00047FC20BF0CF026FA0346002BFAD10E4B9C
:109EF0001B78002BF3D10020FEF700F905E020BF0E
:109F00000CF018FA0346002BFAD1074B1B7883F0AC
:109F10000103DBB2002BF2D1E9E700BFDC7B0300D9
:109F2000A47B0300C4850300F053002084B001909B
:109F30000B468DF8033013468DF80230002303934F
:109F4000019B032B3CD89DF80230012B0BD19DF8CF
:109F50000330012B04D1019BDBB20E33DBB200E0F6
:109F600000238DF802309DF80330022B0FD0022B16
:109F700023DC002B16D0012B1FD11449019A134664
:109F80005B0013440B449DF802201A701AE00F493D
:109F9000019A13465B0013440B4401339DF80220E1
:109FA0001A700FE00949019A13465B0013440B44F1
:109FB00002339DF802201A7004E00723039301E0A6
:109FC00007230393039B184604B07047EC5F0020FF
:109FD00000B583B0012200210020FFF7A7FF019008
:109FE000019B002B04D0019B072B01D0019B1CE09F
:109FF000072202210120FFF799FF0190019B002B0E
:10A0000004D0019B072B01D0019B0EE0042202210A
:10A010000020FFF78BFF0190019B002B04D0019BD8
:10A02000072B01D0019B00E00023184603B05DF828
:10A0300004FB00B583B0012202210020FFF776FF68
:10A040000190019B002B04D0019B072B01D0019BA9
:10A050001CE0072202210120FFF768FF0190019B0D
:10A06000002B04D0019B072B01D0019B0EE00A229C
:10A0700000210020FFF75AFF0190019B002B04D024
:10A08000019B072B01D0019B00E00023184603B081
:10A090005DF804FB00B585B001900091019B1B8821
:10A0A000102B02D0112B18D02FE01A4B1B68002B5D
:10A0B0000DD1FFF78DFF0390039B002B07D0164BAC
:10A0C0001B68002B03D0144B1B6803989847114B57
:10A0D0001B6801330F4A136017E00E4B1B68013BEE
:10A0E0000C4A13600B4B1B68002B0DD1FFF7A1FF2F
:10A0F0000390039B002B07D0074B1B68002B03D05A
:10A10000054B1B680398984700BF00BF05B05DF87A
:10A1100004FB00BFFC5F0020F85F0020BFF34F8FFF
:10A1200000BF064BDB6803F4E0620449044B1343B1
:10A13000CB60BFF34F8F00BF00BFFDE700ED00E035
:10A140000400FA0582B01D4B1B68B3F1FF3F0AD132
:10A150001B4B1B68DBB201931A4B1B681B0903F0F6
:10A160000F03009305E0154B1B680193164B1B680A
:10A170000093019B062B1DD1009B033B042B17D89A
:10A1800001A252F823F000BF9DA10200A1A102008C
:10A19000A5A10200A9A10200ADA1020001230AE0CD
:10A1A000012308E0012306E0012304E0012302E08B
:10A1B000012300E00023184602B070473001001070
:10A1C000E00F00F0E80F00F03401001082B0174BF0
:10A1D0001B68DBB20193164B1B681B0903F00F03CE
:10A1E0000093019B062B1DD1009B033B042B17D82A
:10A1F00001A252F823F000BF0DA2020011A202003A
:10A2000015A2020019A202001DA2020001230AE009
:10A21000002308E0002306E0002304E0002302E01E
:10A22000002300E00023184602B07047E00F00F062
:10A23000E80F00F082B01D4B1B68B3F1FF3F0AD15D
:10A240001B4B1B68DBB201931A4B1B681B0903F005
:10A250000F03009305E0154B1B680193164B1B6819
:10A260000093019B062B1DD1009B033B042B17D8A9
:10A2700001A252F823F000BF8DA2020091A20200B9
:10A2800095A2020099A202009DA2020001230AE009
:10A29000012308E0012306E0012304E0012302E09A
:10A2A000012300E00023184602B07047300100107F
:10A2B000E00F00F0E80F00F03401001082B0174BFF
:10A2C0001B68DBB20193164B1B681B0903F00F03DD
:10A2D0000093019B062B1DD1009B033B042B17D839
:10A2E00001A252F823F000BFFDA2020001A3020068
:10A2F00005A3020009A302000DA3020001230AE046
:10A30000002308E0002306E0002304E0002302E02D
:10A31000002300E00023184602B07047E00F00F071
:10A32000E80F00F082B01D4B1B68B3F1FF3F0AD16C
:10A330001B4B1B68DBB201931A4B1B681B0903F014
:10A340000F03009305E0154B1B680193164B1B6828
:10A350000093019B062B1DD1009B033B042B17D8B8
:10A3600001A252F823F000BF7DA3020081A30200E6
:10A3700085A3020089A302008DA3020001230AE045
:10A38000012308E0012306E0012304E0012302E0A9
:10A39000012300E00023184602B07047300100108E
:10A3A000E00F00F0E80F00F03401001082B0174B0E
:10A3B0001B68DBB20193164B1B681B0903F00F03EC
:10A3C0000093019B062B1DD1009B033B042B17D848
:10A3D00001A252F823F000BFEDA30200F1A3020096
:10A3E000F5A30200F9A30200FDA3020001230AE085
:10A3F000002308E0002306E0002304E0002302E03D
:10A40000002300E00023184602B07047E00F00F080
:10A41000E80F00F082B0174B1B68DBB20193164BBC
:10A420001B681B0903F00F030093019B062B1DD132
:10A43000009B033B042B17D801A252F823F000BF66
:10A4400055A4020059A402005DA4020061A4020008
:10A4500065A4020001230AE0002308E0002306E0CF
:10A46000002304E0002302E0002300E0002318465C
:10A4700002B07047E00F00F0E80F00F082B01D4B13
:10A480001B68B3F1FF3F0AD11B4B1B68DBB2019382
:10A490001A4B1B681B0903F00F03009305E0154BD3
:10A4A0001B680193164B1B680093019B062B1DD163
:10A4B000009B033B042B17D801A252F823F000BFE6
:10A4C000D5A40200D9A40200DDA40200E1A4020088
:10A4D000E5A4020000230AE0002308E0012306E0CF
:10A4E000012304E0012302E0012300E000231846D9
:10A4F00002B0704730010010E00F00F0E80F00F0EC
:10A500003401001082B01D4B1B68B3F1FF3F0AD12C
:10A510001B4B1B68DBB201931A4B1B681B0903F032
:10A520000F03009305E0154B1B680193164B1B6846
:10A530000093019B062B1DD1009B033B042B17D8D6
:10A5400001A252F823F000BF5DA5020061A5020040
:10A5500065A5020069A502006DA5020001230AE0BD
:10A56000012308E0012306E0012304E0012302E0C7
:10A57000012300E00023184602B0704730010010AC
:10A58000E00F00F0E80F00F03401001082B01D4B26
:10A590001B68B3F1FF3F0AD11B4B1B68DBB2019371
:10A5A0001A4B1B681B0903F00F03009305E0154BC2
:10A5B0001B680193164B1B680093019B062B1DD152
:10A5C000009B033B042B17D801A252F823F000BFD5
:10A5D000E5A50200E9A50200EDA50200F1A5020033
:10A5E000F5A5020001230AE0012308E0012306E0AB
:10A5F000012304E0012302E0012300E000231846C8
:10A6000002B0704730010010E00F00F0E80F00F0DA
:10A610003401001082B0154B1B680193144B1B686A
:10A620000093019B062B1DD1009B033B042B17D8E5
:10A6300001A252F823F000BF4DA6020051A602006D
:10A6400055A6020059A602005DA6020000230AE0FA
:10A65000002308E0002306E0012304E0012302E0D8
:10A66000012300E00023184602B0704730010010BB
:10A670003401001082B0154B1B680193144B1B680A
:10A680000093019B062B1DD1009B033B042B17D885
:10A6900001A252F823F000BFADA60200B1A602004D
:10A6A000B5A60200B9A60200BDA6020000230AE07A
:10A6B000002308E0002306E0002304E0012302E079
:10A6C000012300E00023184602B07047300100105B
:10A6D0003401001008B5FFF7CDFF0346002B07D06B
:10A6E0004FF010234FF08042D3F80832C2F85835AB
:10A6F00000BF08BD00BF044BD3F80034002BFAD0D4
:10A7000000BF00BF704700BF00E0014000B583B04C
:10A710000190054A019BC2F80435FFF7EBFF00BF2B
:10A7200003B05DF804FB00BF00E00140024B034AA8
:10A730001A6000BF704700BFC05100200090D003D6
:10A7400008B5FFF7FFFC0346002B06D0964B1B68AD
:10A750001B0A964A03F01F031360FFF737FD0346F9
:10A76000002B02D0924B934A1A60FFF763FD034619
:10A77000002B06D0904B1B685B0B904A03F007033D
:10A780001360FFF79BFD0346002B05D08C4BDB6865
:10A790008B4A23F08073D360FFF7C4FD0346002B80
:10A7A0000ED04FF080430022C3F80C214FF08043BD
:10A7B0000022C3F810214FF080430022C3F838254F
:10A7C000FFF7F4FD0346002B02D07E4B03221A60F4
:10A7D000FFF720FE0346002B0BD07B4B05221A60AF
:10A7E0007A4B01221A607A4B00221A60794B3F2281
:10A7F0001A60FFF743FE0346002B76D04FF08053DC
:10A80000754AD3F80434C2F820354FF08053724AA9
:10A81000D3F80834C2F824354FF080536E4AD3F889
:10A820000C34C2F828354FF080536B4AD3F81034FB
:10A83000C2F82C354FF08053674AD3F81434C2F86D
:10A8400030354FF08053644AD3F81834C2F83435A9
:10A850004FF08053604AD3F81C34C2F840354FF0B3
:10A8600080535D4AD3F82034C2F844354FF080530A
:10A87000594AD3F82434C2F848354FF08053564A29
:10A88000D3F82834C2F84C354FF08053524AD3F8ED
:10A890002C34C2F850354FF080534F4AD3F830343F
:10A8A000C2F854354FF080534B4AD3F83434C2F8D1
:10A8B00060354FF08053484AD3F83834C2F86435D5
:10A8C0004FF08053444AD3F83C34C2F868354FF017
:10A8D0008053414AD3F84034C2F86C354FF080536E
:10A8E0003D4AD3F84434C2F87035FFF70BFE0346F7
:10A8F000002B05D0394B1B68394A03F04F03136016
:10A90000FFF744FE0346002B0DD04FF08043D3F8F1
:10A91000003403F00103002B05D04FF080436FF0AB
:10A920000102C3F80024FFF775FE0346002B05D093
:10A930002C4B1B682B4A43F4806313602A4BD3F8DB
:10A940008830294A43F47003C2F88830BFF34F8F30
:10A9500000BFBFF36F8F00BFFFF7BCFE4FF01023A7
:10A96000D3F80032002B05DB4FF01023D3F804326C
:10A97000002B15DA0120FFF7C9FE4FF01023152236
:10A98000C3F80022FFF7B6FE4FF010231522C3F8DC
:10A990000422FFF7AFFE0020FFF7B8FEFFF7BEFB73
:10A9A000FFF7C4FE00BF08BD24030010403501407E
:10A9B00074C007400DF0ADBA440200103C050040E1
:10A9C000F0ED00E0A0050040105600408856004021
:10A9D000185600401456004000C0004058020010B5
:10A9E000E40E00403C17004000ED00E06DDF7047D2
:10A9F00000BF184679DF704700BF18467DDF7047FB
:10AA000000BF184664DF704700BF184682B0034697
:10AA10000091ADF80630BDF80630DAB2009B1A702E
:10AA2000BDF806301B0A9AB2009B0133D2B21A70ED
:10AA30000223184602B0704700B589B00390029116
:10AA40001346ADF80630029B1B8803F10902BDF8DE
:10AA500006309A4201D90C2353E004AB1846FFF7A5
:10AA6000C5FF0790079B0693069B002B01D0069B12
:10AA700047E0029B1B881A46039B134408221A7066
:10AA8000029B1B8801339AB2029B1A80029B1B888F
:10AA90001A46039B13441B221A70029B1B88013326
:10AAA0009AB2029B1A80029B1B881A46039B981835
:10AAB00004AB0133062219460CF06AFF029B1B8887
:10AAC00006339AB2029B1A809DF8103023F00103DE
:10AAD000DBB2002B07D1029B1B881A46039B134451
:10AAE00000221A7006E0029B1B881A46039B13443F
:10AAF00001221A70029B1B8801339AB2029B1A80B2
:10AB00000023184609B05DF804FB00B589B0039036
:10AB100002910192ADF80230039B1B78012B05D105
:10AB2000039B5B78002B01D1072391E0019B1B88DD
:10AB30009A1CBDF802309A420ED8039B1B78012B59
:10AB40000CD1019B1B881A46039B5B7813449A1C0B
:10AB5000BDF802309A4201D90C2379E0019B1B8891
:10AB6000BDF80220D31A9BB2023BADF81C30BDF8F1
:10AB70001C30ADF81230019B1B880233029A13443B
:10AB80000DF1120211461846FFF738FF0690069B9A
:10AB90000593059B002B01D0059B59E0039B1B7877
:10ABA000022B06D0039B5B781A46BDF812309A42FE
:10ABB00009D3BDF81230BDF81C209A4203D30923F3
:10ABC0008DF81F3016E008238DF81F30039B1B788B
:10ABD000012B0BD1039B5B781A46BDF81C309342C6
:10ABE00004D3039B5B78ADF8123003E0BDF81C3052
:10ABF000ADF81230BDF81230FE2B01D90C2327E03E
:10AC0000BDF81230DAB2019B1B881946029B0B4437
:10AC10000132D2B21A70019B1B8801339AB2019B98
:10AC20001A80019B1B881A46029B13449DF81F2023
:10AC30001A70019B1B8801339AB2019B1A80019BF9
:10AC40001A88BDF8123013449AB2019B1A8000236F
:10AC5000184609B05DF804FB00B589B00390029175
:10AC60001346ADF80630029B1B881A1DBDF806304E
:10AC70009A4201D90C233AE00DF116031846FFF76A
:10AC8000B9FE0790079B0693069B002B01D0069BFD
:10AC90002DE0029B1B881A46039B134403221A7063
:10ACA000029B1B8801339AB2029B1A80029B1B886D
:10ACB0001A46039B134419221A70029B1B88013306
:10ACC0009AB2029B1A80BDF81620029B1B88194677
:10ACD000039B0B4419461046FFF798FE03461A469D
:10ACE000029B1B8813449AB2029B1A8000231846C9
:10ACF00009B05DF804FB84B0029101921A46034644
:10AD00008DF80F301346ADF80C30019B1B88DA1C10
:10AD1000BDF80C309A4201D90C2328E0019B1B8816
:10AD20001A46029B134402221A70019B1B880133AE
:10AD30009AB2019B1A80019B1B881A46029B1344FE
:10AD400001221A70019B1B8801339AB2019B1A8061
:10AD5000019B1B881A46029B13449DF80F201A7012
:10AD6000019B1B8801339AB2019B1A80002318466D
:10AD700004B0704784B0029101921A4603468DF8E0
:10AD80000F301346ADF80C30019B1B88DA1CBDF860
:10AD90000C309A4201D90C2328E0019B1B881A46EB
:10ADA000029B134402221A70019B1B8801339AB242
:10ADB000019B1A80019B1B881A46029B13440A229E
:10ADC0001A70019B1B8801339AB2019B1A80019B68
:10ADD0001B881A46029B13449DF80F201A70019B92
:10ADE0001B8801339AB2019B1A800023184604B0D5
:10ADF000704700B58FB0039001930B468DF80B3070
:10AE000013468DF80A3000238DF83330109B1B88D1
:10AE1000ADF8303000230D9370E0039B5A680D9B12
:10AE20009B001A4405AB106818600DF11B0105ABBF
:10AE300000221846FFF7E6FD0A900A9B0993099B3A
:10AE4000002B01D0099B7BE09DF81B309DF80A2068
:10AE50009A4250D19DF83330002B01D0002300E0FE
:10AE600002238DF82330109B1B881A469DF81B3057
:10AE70001A449DF823301A44BDF844309A4201DD4B
:10AE80000C235DE09DF8333083F00103DBB2002B2F
:10AE900016D0109B1B8801339AB2109B1A80109B0E
:10AEA0001B881A46019B13449DF80B201A70109BB7
:10AEB0001B8801339AB2109B1A8001238DF833301E
:10AEC000109B1B881A46019B1A440DF11B0105AB10
:10AED0001846FFF797FD0A900A9B0793079B002BE4
:10AEE00001D0079B2CE0109B1B889DF81B2013446E
:10AEF0009AB2109B1A800D9B01330D93039B1B8804
:10AF00001A460D9B934288DB9DF83330002B16D0F8
:10AF1000109B1A88BDF83030D31A9BB2013BADF8B4
:10AF20002E30BDF82E30FF2B01D90C2308E0BDF8E0
:10AF30003030019A1344BDF82E20D2B21A7000238B
:10AF400018460FB05DF804FB00B58BB00590039375
:10AF50000B468DF8133013468DF812309DF8131000
:10AF6000BDF8343001930C9B0093039B022205989B
:10AF7000FFF73FFF0990099B0893089B002B01D026
:10AF8000089B14E09DF81210BDF8343001930C9B1F
:10AF90000093039B10220598FFF72BFF0990099B54
:10AFA0000793079B002B01D0079B00E00023184666
:10AFB0000BB05DF804FB82B00190019B1B88052B50
:10AFC0000AD9019B1B88B3F5486F07D9019B1B88E1
:10AFD0004FF6FF72934201D0072325E0019B5B8867
:10AFE000052B0AD9019B5B88B3F5486F07D9019BF4
:10AFF0005B884FF6FF72934201D0072314E0019B58
:10B000001B884FF6FF7293420DD0019B5B884FF671
:10B01000FF72934207D0019B1A88019B5B889A427A
:10B0200001D9072300E00023184602B0704700B59D
:10B0300087B0039002910192ADF80230019B1B880A
:10B040009A1DBDF802309A4201D90C234BE00398B7
:10B05000FFF7B1FF0590059B0493049B002B01D0E3
:10B06000049B40E0019B1B881A46029B1344052267
:10B070001A70019B1B8801339AB2019B1A80019BB5
:10B080001B881A46029B134412221A70019B1B88CC
:10B0900001339AB2019B1A80039B1A88019B1B887B
:10B0A0001946029B0B4419461046FFF7AFFC0346B6
:10B0B0001A46019B1B8813449AB2019B1A80039B7A
:10B0C0005A88019B1B881946029B0B44194610465F
:10B0D000FFF79CFC03461A46019B1B8813449AB257
:10B0E000019B1A800023184607B05DF804FB00B5E9
:10B0F00087B0039002910192ADF80230039B9B88C8
:10B1000002330593019B1B881A46059B13449A1C26
:10B11000BDF802309A4201D90C2353E0059BFE2B67
:10B1200001D90C234EE0059BDAB2019B1B8819461E
:10B13000029B0B440132D2B21A70019B1B8801336F
:10B140009AB2019B1A80019B1B881A46029B1344EA
:10B15000FF221A70019B1B8801339AB2019B1A804F
:10B16000039B1A88019B1B881946029B0B441946B6
:10B170001046FFF74BFC03461A46019B1B881344FD
:10B180009AB2019B1A80039B9B88002B19D0039BCA
:10B190009B68002B01D1072314E0019B1B881A46F2
:10B1A000029B9818039B9968039B9B881A460CF096
:10B1B000EFFB019B1A88039B9B8813449AB2019B67
:10B1C0001A800023184607B05DF804FB00B589B06B
:10B1D000039002910192ADF80230039B9B6A002B11
:10B1E00001D1072371E000238DF81F3065E0039B38
:10B1F000996A9DF81F2013465B0013449B000B4483
:10B200000693069B9B8802330593059BFE2B01D971
:10B210000C235AE0059BDAB2019B1B881946029B5E
:10B220000B440132D2B21A70019B1B8801339AB2CF
:10B23000019B1A80019B1B881A46029B134416220D
:10B240001A70019B1B8801339AB2019B1A80069BDE
:10B250001A88019B1B881946029B0B44194610460D
:10B26000FFF7D4FB03461A46019B1B8813449AB28E
:10B27000019B1A80069B9B88002B19D0069B9B681C
:10B28000002B01D1072320E0019B1B881A46029B5B
:10B290009818069B9968069B9B881A460CF078FBC9
:10B2A000019B1A88069B9B8813449AB2019B1A80C3
:10B2B0009DF81F3001338DF81F30039B93F82C301D
:10B2C0009DF81F209A4292D30023184609B05DF8DA
:10B2D00004FB00B595B005900491039200231393ED
:10B2E000039B1B88ADF84A30039B00221A80059B04
:10B2F00093F82D30002B0ED0BDF84A301A46039932
:10B300000498FFF799FB1390139B1193119B002B4B
:10B3100001D0119BD8E0059B9B78002B0ED0BDF887
:10B320004A301A4603990498FFF796FC1390139B32
:10B330001093109B002B01D0109BC5E0059BDB7880
:10B34000002B10D0059BDB7858B2BDF84A30039A29
:10B350000499FFF7D0FC1390139B0F930F9B002BC6
:10B3600001D00F9BB0E0059B5B68002B11D0059BC3
:10B370005B6893F90000BDF84A30039A0499FFF71F
:10B38000F9FC1390139B0E930E9B002B01D00E9B88
:10B390009AE0059B1B89002B14D0059B03F1080044
:10B3A000BDF84A300193039B0093049B06220221BF
:10B3B000FFF7CAFD1390139B0D930D9B002B01D03B
:10B3C0000D9B81E0059B1B8A002B14D0059B03F18C
:10B3D0001000BDF84A300193039B0093049B0722A1
:10B3E0000321FFF7B1FD1390139B0C930C9B002BD3
:10B3F00001D00C9B68E0059B1B8B002B14D0059B98
:10B4000003F11800BDF84A300193039B0093049B9D
:10B4100015221421FFF798FD1390139B0B930B9BA0
:10B42000002B01D00B9B4FE0059B1B6A002B0FD01C
:10B43000059B186ABDF84A30039A0499FFF7F7FD97
:10B440001390139B0A930A9B002B01D00A9B3BE0AD
:10B45000059B5B6A002B0FD0059B586ABDF84A30EC
:10B46000039A0499FFF743FE1390139B0993099BDA
:10B47000002B01D0099B27E0059B93F82C30002B73
:10B480000ED0BDF84A30039A04990598FFF79EFE46
:10B490001390139B0893089B002B01D0089B13E08B
:10B4A000059B1B78002B0ED0BDF84A30039A0499F7
:10B4B0000598FFF72AFB1390139B0793079B002B1C
:10B4C00001D0079B00E0139B184615B05DF804FB04
:10B4D00075DF704700BF184676DF704700BF18461B
:10B4E0007ADF704700BF18467BDF704700BF184601
:10B4F00084B00346ADF806300023039316E00F49ED
:10B50000039A13469B0013449B000B441B88BDF811
:10B5100006209A4207D1039A13469B0013449B00CE
:10B52000064A134406E0039B01330393039B002B5D
:10B53000E5D00023184604B0704700BF206000200B
:10B5400082B001900B46ADF80230019BBDF802209D
:10B550001A80019B00221A72019B054903F10A021D
:10B560000B4603CB1060516000BF02B0704700BFB4
:10B570005060002082B00190019B4FF6FF721A804C
:10B5800000BF02B0704788B00390029111461A467E
:10B590000B46ADF806301346ADF80430039B9B888C
:10B5A0001A46BDF8063013440793039B9B8819463F
:10B5B000039B9B88BDF80620934228BF13469BB28D
:10B5C000CB1A0693039BDB881A46BDF8043013445C
:10B5D0000593039BDB881946039BDB88BDF8042099
:10B5E000934228BF13469BB2CB1A0493029B5A88FE
:10B5F000039B1B889A4205D3029B5A88039B5B8856
:10B600009A4201D900231CE0029B9B881A46069BA4
:10B61000934205D8029B9B881A46079B934201D20E
:10B6200000230EE0029BDB881A46049B934205D858
:10B63000029BDB881A46059B934201D2002300E05F
:10B640000123184608B0704700B583B00190064B3F
:10B650009B69002B03D0044B9B690198984700BF5E
:10B6600003B05DF804FB00BF3460002000B585B076
:10B6700003460091ADF80630BDF806300099184633
:10B68000FFF726FF0390039B002B05D0039B112B94
:10B6900002D00398FFF7D8FF039B002B0CBF0123B8
:10B6A0000023DBB2184605B05DF804FB00B589B095
:10B6B0000190019B0793079B9BB21846FFF718FF69
:10B6C0000690069B002B42D0069B1A7A224B1B7BCE
:10B6D0009A4215D2079B9AB2069B0A331946104626
:10B6E000FFF7C4FF03468DF813309DF81330002B8D
:10B6F0002DD0069B1B7A0133DAB2069B1A7226E024
:10B70000069B00221A72144B1B7C002B0FD0079B48
:10B710009BB23B211846FFF7DFFE0590059B002BEF
:10B7200005D0059B082B02D00598FFF78DFF0A4B2B
:10B730005B69002B0BD000238DF80C30079B9BB26C
:10B74000ADF80E30044B5B6903AA1046984700BF62
:10B7500009B05DF804FB00BF3460002030B587B04D
:10B760000190019B002B01D10E2353E02B4A019B3A
:10B7700014461D460FCD0FC495E8070084E8070066
:10B78000264B274A1A60019B1B68002B11D0019B96
:10B790001B681846FFF7A4FE0490049B002B01D001
:10B7A000049B37E0019B1A681D4B1068516803C366
:10B7B00008E01B48FFF798FE0490049B002B01D083
:10B7C000049B27E00023059320E0059A13469B0085
:10B7D00013449B00134A134403930398FFF7CAFED4
:10B7E000059B5B01104A1A44039B5A60039B043378
:10B7F0000E4A0021184606F0E9FB0490049B002B3A
:10B8000001D0032306E0059B01330593059B002B24
:10B81000DBD00023184607B030BD00BF34600020E5
:10B82000506000202060002000600020ADB60200C3
:10B8300000B587B003460091ADF80630009B5B7AF7
:10B84000002B1AD1009B1B7A002B03D1164B5B688F
:10B85000059302E0144B9B680593009B5B68BDF861
:10B8600006200599184606F0EBFB0490049B002B7C
:10B8700016D00498FFF7E8FE12E0009B00221A722F
:10B88000094B5B69002B0BD001238DF80C30BDF800
:10B890000630ADF80E30044B5B6903AA104698479A
:10B8A00000BF07B05DF804FB3460002000B585B030
:10B8B0000190019BDB7B8DF80F30019B9B88ADF8DD
:10B8C0000C309DF80F30012B2CD14FF6FF70FFF795
:10B8D0000FFE0290029B002B03D10420FFF7B4FE61
:10B8E00021E0BDF80C3019460298FFF729FE029BB3
:10B8F00003F10A00019B03F110014FF6FF7340F2C0
:10B90000F312FFF740FE03461A46029B5A72074B9A
:10B91000DB89002B07D1BDF80C3002991846FFF7E0
:10B9200087FF00E000BF05B05DF804FB3460002035
:10B9300000B587B00190019B9B88ADF81630BDF82B
:10B9400016301846FFF7D4FD0490049B002B0ED050
:10B95000049B5B68184606F0CBFB0390039B002B0F
:10B9600002D00398FFF770FE0498FFF703FE00BFB4
:10B9700007B05DF804FB000000B587B00190019BA3
:10B9800006330593059B1A88194BDB899A422BD104
:10B99000059B5B89022B27D1019B9B88ADF8123058
:10B9A000BDF812301846FFF7A3FD0390039B002B50
:10B9B0001AD0059B0C33184600F06FFC0346002B91
:10B9C00006D0BDF8123003991846FFF731FF0BE09F
:10B9D000039B5B68184606F08BFB0290029B002BD2
:10B9E00002D00298FFF730FE00BF07B05DF804FBFD
:10B9F0003460002000B585B00190019B9B88ADF8B4
:10BA00000E30BDF80E301846FFF772FD0290029B13
:10BA1000002B15D0029B03F10A00019B03F10801E2
:10BA20004FF6FF7340F2F312FFF7ADFD03461A46DF
:10BA3000029B5A72BDF80E3002991846FFF7F8FEC5
:10BA400000BF05B05DF804FB00B583B00190009124
:10BA5000019B1B88502B12D0502B18DC122B12D0BC
:10BA6000122B14DC102B02D0112B04D00FE0019804
:10BA7000FFF71CFF0CE00198FFF75AFF08E0019860
:10BA8000FFF77AFF04E00198FFF7B4FF00E000BF82
:10BA900000BF03B05DF804FB30B58FB0019000919A
:10BAA00000230293009B002B1AD000230D9314E077
:10BAB0006B460D99184608F0BAF90346002B09D0D9
:10BAC000029B5A1C02920D9A92B25B0038336B446F
:10BAD00023F82C2C0D9B01330D930D9B132BE7D9D1
