:020000022000DC
:106000000000012019620200016202000362020026
:10601000056202000762020009620200000000003F
:106020000000000000000000000000000B62020001
:106030000D620200000000000F6202001162020007
:10604000F1D102001362020011DF0200F9EA02003E
:1060500059FA0200136202000DDE02001362020010
:106060001362020013620200136202001362020054
:106070001362020013620200136202001362020044
:1060800013620200F9260300136202001362020089
:1060900013620200136202003D6F030013620200EC
:1060A0001362020013620200136202001362020014
:1060B00013620200136202000000000000000000F2
:1060C00013620200136202001362020013620200F4
:1060D000136202001362020013620200000000005B
:1060E00000000000000000000000000000000000B0
:1060F00000000000000000000000000000000000A0
:10610000000000000000000000000000000000008F
:10611000000000000000000000000000000000007F
:10612000000000000000000000000000000000006F
:10613000000000000000000000000000000000005F
:10614000000000000000000000000000000000004F
:10615000000000000000000000000000000000003F
:10616000000000000000000000000000000000002F
:10617000000000000000000000000000000000001F
:10618000000000000000000000000000000000000F
:1061900000000000000000000000000000000000FF
:1061A00000000000000000000000000000000000EF
:1061B00000000000000000000000000000000000DF
:1061C00000000000000000000000000000000000CF
:1061D00000000000000000000000000000000000BF
:1061E00000000000000000000000000000000000AF
:1061F000000000000000000000000000000000009F
:10620000FEE7FEE7FEE7FEE7FEE7FEE7FEE7FEE766
:10621000FEE7FEE700F002B8FFF7FCBF0F484FF0C3
:106220000701884385460E4880470E48016841F4BF
:1062300070010160BFF34F8FBFF36F8F00F01AB88A
:1062400009480A490A4A884207D0521A05D00378F9
:1062500001300B700131013AF9D170470000012083
:10626000BDA1020088ED00E0C477030010650020A6
:106270002465002039493A480A1A02D0072291437E
:106280008D46384938480A1A06D00722914381F3CF
:106290000988022282F3148834483549354A00F0CF
:1062A0003EF835483549364A00F039F83548364920
:1062B000364A00F034F836483649374A00F02FF8AD
:1062C00036483749374A00F02AF837483749384ABC
:1062D00000F025F837483849384A00F020F83848A7
:1062E0003849002200F033F837483849002200F0DE
:1062F0002EF837483749091A11F0BCF8364A90474A
:1063000024482549884205D00268043003B49047E8
:1063100003BCF7E700200021304A9047FEE788429F
:1063200014D0521A12D003460B43134303242342C2
:1063300006D1036804300B600431043AF9D1704788
:10634000037801300B700131013AF9D1704788426E
:1063500002D002700130FAE770470000000001200F
:1063600000E00020000001200000012070AE0300CA
:106370002465002004660020E0630200E063020060
:106380009876030070AE0300246500202465002089
:10639000D8770300D8770300D8770300D8770300B5
:1063A000D8770300D8770300D8770300D8770300A5
:1063B0006DAE030050AF0300046600201866002095
:1063C0001C660020D8760020186600201C6600207D
:1063D000D8760020D896002041620200F998020089
:1063E00000B585B00190019B002B0AD0074B43F00C
:1063F00001030393019B9B010293039B029898471F
:1064000000E000BF05B05DF804FB00BF007C0300A6
:1064100000B583B00190019B0433184608F076F96B
:1064200000BF03B05DF804FB00B58FB0039002918C
:10643000009313468DF8073000230D93029B0993B8
:106440009DF807300A93009B0B939DF840300C9306
:10645000039B043309A90022184608F0A5FA0D9001
:106460000D9B18460FB05DF804FB00B583B001909A
:10647000019B002B0AD04FF47A70FFF7B1FF019B0C
:10648000013B0193019B002BF5D100E000BF03B05D
:106490005DF804FB00B583B00190019B1B681846B2
:1064A00000F04CF80346002B04D105494FF4F67078
:1064B00002F00AFB4FF0A043184603B05DF804FB5E
:1064C000D877030000B585B0019001AB1846FFF7FF
:1064D000E1FF0390019B012202FA03F3194603989E
:1064E00000F018F800BF05B05DF804FB00B585B0FA
:1064F000019001AB1846FFF7CDFF0390019B0122ED
:1065000002FA03F31946039800F00EF800BF05B035
:106510005DF804FB82B001900091019B009AC3F8E2
:10652000082500BF02B0704782B001900091019B26
:10653000009AC3F80C2500BF02B0704784B00190E8
:10654000019B5B09029300230393029B002B03D161
:106550004FF0FF33039300BF019B03F01F03019330
:10656000039A019B22FA03F303F00103DBB21846FE
:1065700004B0704782B001900091019B002B16D0AF
:10658000009B002B13D0019B1B78002B07D1009B95
:106590001B7843F02003DAB2009B1A7008E0009BDE
:1065A0001B7823F02003DAB2009B1A7000E000BFD2
:1065B00002B0704700B585B001900091019B002B9F
:1065C0006ED0009B002B6BD0009B14331A78009B7D
:1065D000143302F02002D2B21A70019B1B78002BF8
:1065E00008D1009B14331A78009B143342F0200228
:1065F000D2B21A7000238DF80F30019BDB788DF832
:106600000E309DF80E30082B02D908238DF80E307D
:1066100000238DF80D301AE09DF80D300433009AF8
:1066200013441B788DF80C309DF90C30002B09DBDE
:106630009DF80C3003F00703052B03D101238DF8DF
:106640000F300AE09DF80D3001338DF80D309DF8C4
:106650000D209DF80E309A42DED39DF80F30002BAE
:106660001FD0009B01331B7803F01003002B18D1BF
:10667000009B01331A78009B013342F01002D2B222
:106680001A70094A094BD31ADB081B0443F00200B5
:10669000019B1B7801331A4605490FF0D7FB00E038
:1066A00000BF05B05DF804FB447703000C770300DE
:1066B00008780300022318467047000010B588B020
:1066C0000190204B02AC0FCB84E80F0000238DF823
:1066D0001530019B049302238DF80C3001238DF8B3
:1066E00014300C238DF80A300D238DF80830102358
:1066F0008DF80930FF238DF80B3000238DF80D3015
:1067000002A900230022104806F06AF90790079BAF
:10671000082B09D10C48FFF77BFE02A900230022B9
:10672000094806F05DF90790079B0693069B002B2E
:1067300004D0064AAE2106980AF062FE00BF08B0F7
:1067400010BD00BFCC780300D47B03004078030069
:1067500000B589B005900491029313468DF80F306F
:10676000059B002B01D10E231FE09DF80F30002B5D
:1067700005D19DF82830002B01D1092315E0059B98
:106780005B781846FFF7B2FE9DF80F209DF8283081
:106790000093029B04990748FFF746FE0790059B6C
:1067A0005B781846FFF78EFE079B184609B05DF828
:1067B00004FB00BFD47B030008B50A20FFF782FE6C
:1067C0000A20FFF70DFE064A064BD31ADB081B040E
:1067D00043F00303044918460FF02AFB00BF08BD2D
:1067E000447703000C770300DC78030008B50A2027
:1067F000FFF77CFE064A074BD31ADB081B0443F065
:106800000303054918460FF013FB00BF08BD00BF86
:10681000447703000C7703000C79030000B585B0C2
:1068200003468DF807304FF0805303939DF80730EF
:10683000082B29D801A252F823F000BF616802009A
:1068400069680200716802008968020079680200C4
:106850008968020089680200896802008168020074
:106860004FF0006303931DE04FF08053039319E052
:106870004FF00053039315E04FF08043039311E072
:106880004FF0004303930DE0104A114BD31ADB087D
:106890001B0443F002039DF807200E4918460FF031
:1068A000D5FA00BF0398FFF709FF084A084BD31A2F
:1068B000DB081B0443F003039DF807200649184634
:1068C0000FF0C4FA00BF05B05DF804FB4477030085
:1068D0000C77030074790300B479030010B584B019
:1068E00008238DF80B30664B00221A70644B0E2281
:1068F0005A70634B00229A70614B0022A3F89020DB
:106900005F4B002283F892205D4A9DF80B30D370D4
:1069100000238DF80F300BE09DF80F30584A1C33E0
:10692000002142F823109DF80F3001338DF80F300D
:106930009DF80F30072BEFD900238DF80E3025E09E
:106940009DF80E40B42010F0B4FD034619464C4AA1
:1069500004F11C0342F823109DF80E30484A1C3302
:1069600052F82330002B14BF01230023DBB2009325
:10697000009B002B05D1434A4FF4977100200AF089
:106980003FFD9DF80E3001338DF80E303C4BDB7827
:106990009DF80E209A42D3D3394B012283F89420DC
:1069A000374B092283F89520354B002283F8962037
:1069B000334B0022A3F82421314B002283F82621F7
:1069C0009DF80B30082B05D89DF80B30C3F1090357
:1069D000DBB200E000232A4A82F89730284B93F874
:1069E0009730082B03D9264B082283F897200023E1
:1069F0008DF80D300BE09DF80D30214A4133002118
:106A000042F823109DF80D3001338DF80D309DF8BC
:106A10000D30072BEFD900238DF80C3025E09DF8C1
:106A20000C40B42010F045FD03461946144A04F109
:106A3000410342F823109DF80C30114A413352F8BB
:106A40002330002B14BF01230023DBB20193019BF1
:106A5000002B05D10B4A4FF4A07100200AF0D0FCA6
:106A60009DF80C3001338DF80C30054B93F89730BE
:106A70009DF80C209A42D2D300BF00BF04B010BDD5
:106A8000B86600204078030008B50F20FFF72EFD00
:106A90001420FFF7A5FC064A064BD31ADB081B049B
:106AA00043F00303044918460FF0C2F900BF08BDC4
:106AB000447703000C770300E479030008B50F2046
:106AC000FFF700FD9620FFF7D0FC064A064BD31ACD
:106AD000DB081B0443F00303044918460FF0A8F930
:106AE00000BF08BD447703000C770300207A030041
:106AF00000B587B0039002238DF813300DF1130118
:106B000000230093002301220398FFF721FE059044
:106B1000059B002B05D00C4A4FF4C67105980AF06E
:106B20006FFC0A20FFF7A1FC084A094BD31ADB08C7
:106B30001B0443F00303074918460FF079F900BF1F
:106B400007B05DF804FB00BF407803004477030002
:106B50000C7703004C7A030000B587B0039006233E
:106B60008DF813300DF1130100230093002301224F
:106B70000398FFF7EDFD0590059B002B05D00C4A0F
:106B80004FF4CC7105980AF03BFC0A20FFF76DFC2E
:106B9000084A094BD31ADB081B0443F003030749D7
:106BA00018460FF045F900BF07B05DF804FB00BFC1
:106BB00040780300447703000C7703005C7A0300FD
:106BC00000B587B0039011238DF813300DF1130138
:106BD00000230093002301220398FFF7B9FD0590DD
:106BE000059B002B05D00C4A40F2AF1105980AF026
:106BF00007FC0320FFF7F4FB084A094BD31ADB0814
:106C00001B0443F00303074918460FF011F900BFB6
:106C100007B05DF804FB00BF407803004477030031
:106C20000C770300987A030000B587B00390102317
:106C30008DF813300DF1130100230093002301227E
:106C40000398FFF785FD0590059B002B05D00C4AA6
:106C500040F2BB1105980AF0D3FB0320FFF7C0FBFD
:106C6000084A094BD31ADB081B0443F00303074906
:106C700018460FF0DDF800BF07B05DF804FB00BF59
:106C800040780300447703000C770300B47A0300D4
:106C900000B58BB0039004AB00221A605A60FFF776
:106CA00009FD03468DF8273020238DF81830002386
:106CB0008DF8193000238DF81A309DF827300133F4
:106CC000DBB204AA06A90093134603220398FFF738
:106CD0003FFD0890089B002B05D02F4A4FF4E77129
:106CE00008980AF08DFB9DF8273028336B4413F881
:106CF000183C8DF81F309DF81F3003F01F031C2B2C
:106D00000CBF012300238DF81E309DF81F3003F0C7
:106D10001F031D2B0CBF012300238DF81D309DF890
:106D20001F3003F01F031E2B0CBF012300238DF81F
:106D30001C309DF81F305B098DF81B309DF81C300E
:106D4000002B07D19DF81D30002B03D19DF81E307C
:106D5000002B0ED0114A124BD31ADB081B0443F050
:106D600003009DF81F209DF81B300E490FF07FF89F
:106D70000DE00A4A0A4BD31ADB081B0443F0010357
:106D80009DF81F20084918460FF060F800BF00BFAB
:106D90000BB05DF804FB00BF4078030044770300AC
:106DA0000C770300D07A0300F87A030000B58DB0A9
:106DB00003900291039B002B47D0029B002B44D0F1
:106DC000039B183317220299184610F095FB039B7A
:106DD000183319460398FFF7CDFB039B1833194668
:106DE0000398FFF7E7FB41238DF8103016238DF849
:106DF0001130039B03F1180104AB0233172218462C
:106E000010F07AFB04A900230093002319220398B1
:106E1000FFF79EFC0B900B9B002B05D00D4A40F218
:106E2000F9110B980AF0ECFA0520FFF7D9FA0A4A93
:106E30000A4BD31ADB081B0443F00300039B5B7867
:106E40001A4607490FF002F800E000BF0DB05DF8E8
:106E500004FB00BF40780300447703000C77030075
:106E60001C7B030030B58FB00390039B002B00F018
:106E70008F80039B1833484A1C4615460FCD20606F
:106E80006160A260E36028682061AB88AA79A38270
:106E90001346A375039B183319460398FFF76AFB43
:106EA000039B1B78002B03D1039B202283F82C200B
:106EB000039B1B78012B35D1039BE8229A76042390
:106EC0000D9310E0039A0D9B134418331B7843F085
:106ED0003803D9B2039A0D9B134418330A461A702B
:106EE0000D9B01330D93039BDB7803330D9A9A427C
:106EF000E8DD039BDB7804330C9310E0039A0C9BD2
:106F0000134418331B7863F07F03D9B2039A0C9BA8
:106F1000134418330A461A700C9B01330C930C9BD4
:106F20000B2BEBDD039B183319460398FFF742FB4D
:106F300041238DF8103016238DF81130039B03F197
:106F4000180104AB02331722184610F0D5FA04A931
:106F500000230093002319220398FFF7F9FB0B90FD
:106F60000B9B002B05D00D4A4FF40A710B980AF0C9
:106F700047FA0520FFF734FA094A0A4BD31ADB080F
:106F80001B0443F00303084918460EF051FF00E0CC
:106F900000BF0FB030BD00BFE47B030040780300AA
:106FA000447703000C770300587B030000B595B0CD
:106FB0000390039B002B79D0FFF77CFB03468DF8F1
:106FC0004F309DF84F3017338DF84E300BAB002209
:106FD0001A605A609A60DA601A615A611A8304ABC7
:106FE00000221A605A609A60DA601A615A611A8344
:106FF00021238DF82C3016238DF82D3004A89DF810
:107000004E200BA99DF84E30009303460398FFF7DE
:107010009FFB1290129B002B05D0264A4FF4107153
:1070200012980AF0EDF900238DF84D3000238DF809
:107030004C3019E09DF84F209DF84C3013445033EC
:107040006B4413F8402C9DF84C3003990B441B7E85
:107050009A4204D09DF84D3001338DF84D309DF8A3
:107060004C3001338DF84C309DF84C30162BE1D963
:107070009DF84D30002B0DD00F4A104BD31ADB0872
:107080001B0443F002039DF84D200D4918460EF0F5
:10709000DDFE0CE0084A094BD31ADB081B0443F061
:1070A0000303084918460EF0C3FE00E000BF15B008
:1070B0005DF804FB40780300447703000C7703007D
:1070C000807B0300B07B030000B589B00390039B75
:1070D000002B5AD0039BDB78002B56D0039BDB7828
:1070E000092B52D8039B1B78002B01D12A4B00E0BF
:1070F0002A4B0693039BB3F89030B12B47D81B2241
:107100000021069810F02AFA1B230093069B002208
:1071100000210398FFF71CFB0590059B002B05D071
:107120001F4A40F29E2105980AF06AF90023ADF843
:107130001E301AE0BDF81E20039B1C3253F822308B
:10714000039AB2F890209818BDF81E305A1C1346C6
:107150005B001344069A13440322194610F0CCF93D
:10716000BDF81E300133ADF81E30039BDB781A46A4
:10717000BDF81E309342DDD3039BB3F89030033348
:107180009AB2039BA3F8902002E000BF00E000BF8A
:1071900009B05DF804FB00BF1C66002038660020C3
:1071A00040780300A8DF704700BF1846AADF704789
:1071B00000BF1846ACDF704700BF1846AEDF70470F
:1071C00000BF184662DF704700BF184600B583B0A5
:1071D00001904EF6F1620021019800F0EEF90346AD
:1071E000184603B05DF804FB00B583B001904EF67D
:1071F000F2620121019800F0E0F90346184603B05D
:107200005DF804FB00B583B001904EF6F3620221F5
:10721000019800F0D2F90346184603B05DF804FB6C
:1072200000B583B001904EF6F4620321019800F09E
:10723000C4F90346184603B05DF804FB00B583B0FB
:1072400001904EF6F5620421019800F0B6F903466C
:10725000184603B05DF804FB00B583B001904EF60C
:10726000F6620521019800F0A8F90346184603B01C
:107270005DF804FB00B583B001904EF6F76206217D
:10728000019800F09AF90346184603B05DF804FB34
:1072900000B583B001904EF6F8620721019800F026
:1072A0008CF90346184603B05DF804FB84B00190E6
:1072B000019B002B01D1002329E0019BDB788DF895
:1072C0000F309DF80F30002B18D108238DF80E30A9
:1072D000019B1B78002B04D19DF80E308DF80F30E8
:1072E0000CE09DF80E30082B05D89DF80E30C3F148
:1072F0000903DBB200E000238DF80F309DF80F305A
:10730000082B02D908238DF80F309DF80F3018464E
:1073100004B0704710B584B001900091009B063313
:107320000393039B1A88019B5B899A4221D1019B9D
:107330005B69002B1DD0039B5B89172B0ED00E4A77
:107340000E4BD31ADB081B0443F00200039B5B893E
:107350001A4617230A490EF08AFD0AE0019B5C6970
:10736000009B9888039B03F10C02039B5B890199A6
:10737000A04704B010BD00BF447703000C770300A2
:10738000287C030000B583B001900091009B1B880E
:10739000502B10D0502B13DC102B02D0112B05D00A
:1073A0000EE0009B9A88019BDA800AE0019B4FF671
:1073B000FF72DA8005E000990198FFF7ABFF00E06B
:1073C00000BF00BF03B05DF804FB000000B585B04E
:1073D000029101921A460346ADF80E301346ADF8FD
:1073E0000C30029B002B06D0019B002B03D0BDF874
:1073F0000C30172B0DD0174A174BD31ADB081B0480
:1074000043F00200019ABDF80C3014490EF02FFD34
:107410001DE0104A104BD31ADB081B0443F0030392
:107420000F4918460EF004FD0298FFF7C9FB0199B9
:107430000298FFF7BBFC0298FFF7B8FD0121029804
:1074400000F002FAFFF7B8F90298FFF7EDFB05B07C
:107450005DF804FB447703000C7703005C7C0300B9
:107460008C7C030000B593B001900BAB1C22002173
:10747000184610F073F803AB03220021184610F0F1
:107480006DF89DF80C30012262F303038DF80C3087
:107490009DF80C30012262F307138DF80C309DF833
:1074A0000D30012262F303038DF80D309DF80D308D
:1074B000012262F307138DF80D309DF80E30012282
:1074C00062F342038DF80E309DF82C3043F0020336
:1074D0008DF82C309DF82C3043F008038DF82C30BB
:1074E0009DF82C3043F010038DF82C3003AB109333
:1074F00001238DF816304EF6FF63ADF8143004AB5F
:1075000003220021184610F029F89DF810300122BE
:1075100062F303038DF810309DF81030012262F3FE
:1075200007138DF810309DF81130012262F3030328
:107530008DF811309DF81130012262F307138DF898
:1075400011309DF81230012262F342038DF812309F
:107550009DF8123023F008038DF812309DF8123098
:1075600023F010038DF812309DF8123043F0010320
:107570008DF8123006AB1422002118460FF0EEFFF2
:1075800005AB069304AB07931723ADF82030002317
:10759000ADF822301723ADF82430019B18330A933D
:1075A000019B1889019B0A3306AA0BA9FFF7FEFD70
:1075B0000346184613B05DF804FB00B5BFB0019058
:1075C0000B468DF803301346ADF8003011ABB422F2
:1075D000002118460FF0C2FF019B1B78012B05D13B
:1075E000BDF8003043F48073ADF8003001238DF80E
:1075F0004230BDF80030ADF8403009AB1C2200210C
:1076000018460FF0ABFF9DF8243043F002038DF8CD
:1076100024309DF8243023F008038DF824309DF8A1
:10762000243043F010038DF8243008AB03220021EE
:1076300018460FF093FF9DF82030012262F30303F8
:107640008DF820309DF82030012262F307138DF869
:1076500020309DF82130012262F303038DF82130A0
:107660009DF82130012262F307138DF821309DF837
:107670002230012262F342038DF8223008AB0E93D0
:1076800007AB0322002118460FF068FF9DF81C305D
:10769000012262F303038DF81C309DF81C30012297
:1076A00062F307138DF81C309DF81D30012262F340
:1076B00003038DF81D309DF81D30012262F307137E
:1076C0008DF81D309DF81E30012262F342038DF8C3
:1076D0001E309DF81E3043F001038DF81E3002ABC2
:1076E0001422002118460FF039FF10AB029307ABAC
:1076F0000393B423ADF810300023ADF81230B42357
:10770000ADF8143011AB0693019B18899DF8033036
:107710000633DB00019A134402AA09A9FFF746FDCC
:10772000034618463FB05DF804FB000010B58EB06C
:1077300001900091019B002B7DD0009B002B7AD003
:107740003E4B02AC0FCB84E80F000198FFF7AEFD73
:1077500003468DF83630019B9DF83620DA70019B88
:107760004FF6FF72DA80009B1A68019B5A61019BF9
:107770001A1D02AB11461846FFF724FD0C900C9B16
:107780000B930B9B002B05D02D4A4FF497710B9850
:1077900009F036FE019B1B798DF81A304FF45073B7
:1077A000ADF818300DF11E0206AB19460120FFF7A7
:1077B000F9FC0C900C9B0A930A9B002B05D0204AE5
:1077C0004FF49A710A9809F01BFEBDF81E20019B28
:1077D0001A810198FFF746FE0C900C9B0993099BB8
:1077E000002B05D0164A40F23911099809F008FE1D
:1077F00000238DF8373017E09DF83730114A52F8E2
:107800002330019898470C900C9B0893089B002B01
:1078100005D00B4A40F23F11089809F0F1FD9DF8A0
:10782000373001338DF837309DF837209DF83630EA
:107830009A42E1D300E000BF0EB010BD307D0300DE
:10784000A87C0300087C030000B58BB001900B46B8
:107850008DF80330019B002B44D01723ADF8223064
:10786000019BDB884FF6FF7293423CD0BDF822307B
:10787000ADF818300023ADF81A30019B1833079388
:10788000019BD888019B5B8906AA1946FFF792FCE9
:107890000990164A164BD31ADB081B0443F0030366
:1078A000099A144918460EF0D1FA9DF80330002BBE
:1078B00019D0019B5B89ADF8083001238DF80A309F
:1078C0000023ADF80C300DF122030493019B183313
:1078D0000593019BDB8802AA11461846FFF76EFC50
:1078E000099000E000BF0BB05DF804FB4477030093
:1078F0000C770300407D030010B58CB0039000238B
:107900000A93039B002B05D0039BDB884FF6FF7285
:10791000934201D10E23D2E00398FFF7C7FC034640
:107920008DF827309DF82730002B01D10723C6E0C2
:10793000039B93F892309DF82720B3FBF2F101FBF3
:1079400002F29B1A8DF826309DF826308DF82F30E4
:1079500000238DF82E3000238DF82D3090E09DF817
:1079600026209DF82D3013449DF8272093FBF2F13B
:1079700001FB02F29B1A8DF825309DF82520039B10
:107980001C3253F82230002B72D09DF82520039B27
:10799000063233F83230002B6CD0B423ADF82230ED
:1079A0009DF82520039B063233F83230ADF81030B5
:1079B00001238DF812300023ADF814300DF12203AD
:1079C00006939DF82520039B1C3253F82230079321
:1079D000039BDB8804AA11461846FFF7EFFB0A90C9
:1079E0000A9B002B19D0374A374BD31ADB081B04EC
:1079F00043F00200039B1B7819469DF82520BDF833
:107A0000223001930A9B009313460A462F490EF039
:107A100058FA0A9B132B1BD139E0BDF82230B42B46
:107A200016D0284A284BD31ADB081B0443F0020067
:107A3000039B1B781C469DF82530BDF8222011467B
:107A4000B42201920091224621490EF03AFA1EE03A
:107A50009DF8253001339DF82720B3FBF2F101FB9F
:107A600002F29B1A8DF82F3001238DF82E3002E0A0
:107A700000BF00E000BF9DF82D3001338DF82D30A0
:107A80009DF82D209DF827309A42FFF468AF9DF8AD
:107A90002E30002B05D0039B9DF82F2083F89220D9
:107AA0000DE09DF8263001339DF82720B3FBF2F15D
:107AB00001FB02F29B1ADAB2039B83F8922018466C
:107AC0000CB010BD447703000C770300B47D0300B5
:107AD000E07D0300A8DF704700BF1846AADF7047AB
:107AE00000BF1846AEDF704700BF184662DF704720
:107AF00000BF184600B585B001900091009B063389
:107B00000393039B1A88019BDB889A420FD1039B46
:107B10005B89002B0BD0019B9B69002B07D0019B3D
:107B20009B69009A9088039A0C320199984700BF8C
:107B300005B05DF804FB000000B583B00190009132
:107B4000019B002B32D0009B002B2FD0009B1B8869
:107B5000502B26D0502B2BDC102B02D0112B10D009
:107B600026E0009B9A88019B5A80134A134BD31A34
:107B7000DB081B0443F00303114918460EF058F9C3
:107B800017E0019B4FF6FF725A800B4A0B4BD31A3A
:107B9000DB081B0443F003030A4918460EF048F9BA
:107BA00007E000990198FFF7A5FF02E000BF00E0A1
:107BB00000BF03B05DF804FB447703000C770300BB
:107BC000107E03002C7E030000B593B001900BAB38
:107BD0001C22002118460FF0C1FC03AB0322002138
:107BE00018460FF0BBFC9DF80C30012262F3030332
:107BF0008DF80C309DF80C30012262F307138DF8DC
:107C00000C309DF80D30012262F303038DF80D3026
:107C10009DF80D30012262F307138DF80D309DF8A9
:107C20000E30012262F342038DF80E309DF82C30A5
:107C300043F002038DF82C309DF82C3043F00803FC
:107C40008DF82C309DF82C3043F010038DF82C303B
:107C500003AB109301238DF8163041F6FF43ADF8C6
:107C6000143004AB0322002118460FF077FC9DF876
:107C70001030012262F303038DF810309DF81030AC
:107C8000012262F307138DF810309DF811300122A4
:107C900062F303038DF811309DF81130012262F375
:107CA00007138DF811309DF81230012262F3420360
:107CB0008DF812309DF8123023F008038DF8123041
:107CC0009DF8123023F010038DF812309DF8123019
:107CD00043F001038DF8123006AB14220021184640
:107CE0000FF03CFC05AB069304AB07930823ADF8FB
:107CF00020300023ADF822300823ADF82430019B5A
:107D00001C330A93019B9888019B063306AA0BA992
:107D1000FFF7E4FE0346184613B05DF804FB0000CD
:107D200000B5D1B050ABA3F59E73186000234F93FC
:107D300011ABF022002118460FF010FC01238DF842
:107D4000363141F6F443ADF834310AAB1C22002140
:107D500018460FF003FC50ABA3F58C72137843F078
:107D60000203137050ABA3F58C72137843F0100329
:107D7000137009AB0322002118460FF0EFFB50AB44
:107D8000A3F58E721378012161F30303137050ABD6
:107D9000A3F58E721378012161F30713137050ABB2
:107DA000A3F58E725378012161F30303537050AB36
:107DB000A3F58E725378012161F30713537050AB12
:107DC000A3F58E729378012161F34203937050AB57
:107DD000A3F58C7309AA5A6108AB03220021184647
:107DE0000FF0BCFB50ABA3F590729378012161F3C7
:107DF0004203937050ABA3F59072937843F0010364
:107E0000937050ABA3F590721378012161F30303D3
:107E1000137050ABA3F590721378012161F307132F
:107E2000137050ABA3F590725378012161F30303F3
:107E3000537050ABA3F590725378012161F307138F
:107E4000537003AB1422002118460FF087FB50AB90
:107E5000A3F59A734DAA1A6050ABA3F59A7308AABA
:107E60005A6050ABA3F59A73F0221A8150ABA3F578
:107E70009A7300225A8150ABA3F59A73F0229A812B
:107E800050ABA3F59A7311AA1A6150ABA3F59E7378
:107E90001B68988850ABA3F59E731B680E3303AA2A
:107EA0000AA9FFF71BFE4F904F9B4E934E9B002B52
:107EB00004D0054ACD214E9809F0A2FA00231846B5
:107EC00051B05DF804FB00BF4C7E030010B58EB0CE
:107ED0000190464B03AC0FCB84E80F00019B002BB5
:107EE0000BD1434A434BD31ADB081B0443F0010375
:107EF000414918460DF09CFF75E0019B4FF6FF725B
:107F00005A80019B00229A61019B0022A3F82C2237
:107F1000019B1C330822002118460FF01FFB374B32
:107F20001B7883F00103DBB2002B12D003AB344982
:107F30001846FFF7DBFD0D900D9B0C930C9B002B5F
:107F400004D0304AF0210C9809F05AFA2B4B012248
:107F50001A702B4B1A78019B5A70019B5B788DF835
:107F60001E3041F6F043ADF81C300DF1220207AB94
:107F700019460120FFF7AEFD0D900D9B0B930B9B57
:107F8000002B04D01F4AF9210B9809F039FABDF8EB
:107F90002220019B9A800198FFF716FE0D900D9B01
:107FA0000A930A9B002B04D0164AFF210A9809F075
:107FB00027FA0198FFF7B4FE0D900D9B0993099BDA
:107FC000002B05D00F4A4FF48171099809F018FA77
:107FD000074A084BD31ADB081B0443F003030A4982
:107FE00018460DF025FF0EB010BD00BF307F030016
:107FF000447703000C770300D47E0300536600200F
:10800000546600204C7E0300087F030000B589B051
:108010000190019B002B4ED0019B5B884FF6FF72B5
:10802000934248D0019BB3F82C32002B43D0019BE4
:10803000B3F82C321A46520013449B009BB2ADF8A1
:108040001A30019BDB89ADF8083001238DF80A3026
:108050000023ADF80C300DF11A030493019B243377
:108060000593019B5B8802AA11461846FFF73AFD6B
:108070000790079B002B0FD1019B0022A3F82C2215
:108080000F4A104BD31ADB081B0443F003030E49BD
:1080900018460DF0CDFE0FE0079B132B0CD1084ABC
:1080A000084BD31ADB081B0443F0030307491846A7
:1080B0000DF0BEFE00E000BF09B05DF804FB00BF9C
:1080C000447703000C770300407F0300607F0300C8
:1080D00072DF704700BF184673DF704700BF184655
:1080E00076DF704700BF184677DF704700BF18463D
:1080F00078DF704700BF18467ADF704700BF184628
:108100007CDF704700BF18468FDF704700BF1846FE
:1081100090DF704700BF184669DF704700BF184600
:1081200000B589B09DF80030012262F303038DF899
:1081300000309DF80030012262F307138DF8003003
:108140006B46092226491846FFF7DAFF0790079B7E
:108150000693069B002B04D0224A8A21069809F038
:108160004FF94FF45070FFF7C3FF0790079B05933B
:10817000059B002B04D01B4A8E21059809F040F97D
:1081800001AB0822002118460FF0E8F90623ADF8EC
:1081900004300C23ADF806300023ADF808304FF45E
:1081A000C873ADF80A3001AB1846FFF7A5FF07907A
:1081B000079B0493049B002B04D00A4A982104983F
:1081C00009F01EF9079B0393039B002B04D0054A7B
:1081D0009921039809F014F900BF09B05DF804FB78
:1081E000947F0300A07F030000B583B000210948FD
:1081F00004F07AF90190019B0093009B002B04D0BE
:10820000054AA321009809F0FBF800BF03B05DF810
:1082100004FB00BF58660020A07F030000B583B0B8
:108220000190044AAD21019809F0EAF800BF03B0BB
:108230005DF804FBA07F030000B585B00190019BB1
:108240001B78002B10D10A4B1B883B211846FFF7E7
:1082500047FF0390039B0293029B002B04D0054A27
:10826000C121029809F0CCF800BF05B05DF804FB0D
:1082700024650020A07F030000B58BB001AB1C2259
:10828000002118460FF06AF9002301934FF4A03340
:1082900002934FF4F023039303238DF8103000234F
:1082A000ADF8123000238DF814300B4B06930B4BB6
:1082B000079301AB184602F0ABFF0990099B0893A6
:1082C000089B002B04D0064ADD21089809F098F895
:1082D00000BF0BB05DF804FB398202001D82020072
:1082E000A07F030000B58BB001900091002309939B
:1082F000019B1B88562B00F02081562B00F33E81FA
:108300003B2B00F0F9803B2B00F33881212B00F050
:10831000CD80212B00F33281102B41D0112B40F066
:108320002D81B54B4FF6FF721A80B44B00221A70A4
:10833000B34AB44BD31ADB081B0443F00303B2491E
:1083400018460DF075FD00238DF8233010E09DF8E0
:108350002330AE4A4FF40C7101FB03F3134403F5D1
:108360000B7300221A809DF8233001338DF82330DF
:108370009DF82330002BEAD0A548FEF721FCA44845
:10838000FEF71EFCFEF732FA9D4A9E4BD31ADB081D
:108390001B0443F003039F4918460DF049FDF4E028
:1083A000019B9A88944B1A80944B01221A709A4A26
:1083B00003AB92E8030083E803008F4B1B8803A9FB
:1083C00000221846FFF7A4FE0990099B002B11D04C
:1083D000099B112B0ED0099B082B0BD0884A894B87
:1083E000D31ADB081B0443F00203099A8B49184691
:1083F0000DF02CFD00238DF8223031E09DF8223065
:10840000DB00874A98189DF822306833DBB21A46A1
:10841000844900F020FE0246099B13430993099BFF
:10842000002B0CD0764A774BD31ADB081B0443F0A1
:1084300003039DF822207C4918460DF007FD9DF8A6
:108440002230724A4FF40C7101FB03F3134403F51D
:108450000B7300221A809DF8223001338DF82230F0
:108460009DF82230002BC9D0099B002B0AD1644A09
:10847000644BD31ADB081B0443F003036B49184613
:108480000DF0D6FCFEF798F96148FEF7CDFB684881
:10849000FEF7CAFB5A4A5B4BD31ADB081B0443F0B6
:1084A0000303644918460DF0C3FC6EE0544A554B73
:1084B000D31ADB081B0443F003035F4918460DF091
:1084C000B7FC5E4B1B88ADF80830019B9B8802AA65
:1084D00011461846FFF718FE0990099B062B4FD04E
:1084E000099B0593059B002B4AD0554A40F23D114C
:1084F000059808F085FF43E0404B00221A70404A7F
:10850000404BD31ADB081B0443F003034D491846C4
:108510000DF08EFC019B9B8813211846FFF7E0FDB0
:108520000990099B0693069B002B2BD0444A4FF4DD
:10853000A471069808F064FF24E0304B00221A7002
:108540002F4A304BD31ADB081B0443F003033E4988
:1085500018460DF06DFC019B9B8813211846FFF710
:10856000BFFD0990099B0793079B002B0CD0344A51
:1085700040F25111079808F043FF05E000BF04E006
:1085800000BF02E000BF00E000BF00238DF82130F3
:108590000FE09DF82130942202FB03F31C4A1344A0
:1085A00001991846FEF7EEFE9DF8213001338DF853
:1085B00021309DF82130012BEBD900238DF820309C
:1085C00010E09DF820304FF40C7202FB03F30F4AC9
:1085D000134401991846FFF7AFFA9DF82030013394
:1085E0008DF820309DF82030002BEAD000BF00BF6E
:1085F0000BB05DF804FB00BF24650020B4660020CA
:10860000447703000C77030030800300E06700200C
:10861000B86600205480030050810300648003008A
:10862000AC660020446500208C800300C8800300F5
:108630004C670020008103000C8103005881030077
:10864000A07F0300208103003881030000B58FB0B4
:108650000EF094FB0D900D9B0C930C9B002B05D002
:10866000654A4FF4BC710C9808F0CAFE00230493CD
:1086700004AB194601200EF097FC0D900D9B0B9357
:108680000B9B002B05D05C4A4FF4BF710B9808F090
:10869000B7FE01AB0C22002118460EF05FFF042349
:1086A0008DF80430049A01AB19460120FFF734FD20
:1086B0000D900D9B0A930A9B002B05D04E4A40F269
:1086C00087110A9808F09CFE01AB0C220021184685
:1086D0000EF044FF01238DF8053000238DF806309D
:1086E00000238DF80730049A01AB19464020FFF7AC
:1086F00013FD0D900D9B0993099B002B05D03E4A5D
:108700004FF4C971099808F07BFE01AB0C220021DF
:1087100018460EF023FF01238DF80430F723ADF83F
:108720000630049A01AB19462320FFF7F5FC0D90A3
:108730000D9B0893089B002B05D02F4A40F29911FE
:10874000089808F05DFE01AB0C22002118460EF0DF
:1087500005FF01238DF804304FF4A073ADF8083005
:1087600001238DF80630049A01AB19462020FFF74B
:10877000D3FC0D900D9B0793079B002B05D01E4A41
:1087800040F2A111079808F03BFE01AB0C2200213A
:1087900018460EF0E3FE01238DF8043020238DF8F7
:1087A0000630049A01AB19462220FFF7B5FC0D9064
:1087B0000D9B0693069B002B05D00F4A4FF4D471F6
:1087C000069808F01DFE04AB18460EF00BFD0D9048
:1087D0000DF0B8FB0346002BFAD10D9B0593059BCA
:1087E000002B05D0044A40F2AD11059808F008FEB0
:1087F00000BF0FB05DF804FBA07F030000B585B09B
:1088000003468DF807300B4B1B7801211846FFF704
:1088100063FC0390039B0293029B002B05D0064A46
:1088200040F2F511029808F0EBFD00BF05B05DF8CD
:1088300004FB00BF26650020A07F030000B5ABB09D
:1088400016AB3C22002118460EF088FE02238DF85C
:10885000583001238DF85A3006238DF85B3007AB72
:108860003C22002118460EF079FE0323ADF82C308F
:10887000334B0C93334B196816AB334A184602F04E
:1088800082FA2990299B2893289B002B05D02F4AF8
:1088900040F20E21289808F0B3FD2A4B996807ABE7
:1088A0002B4A184602F06FFA2990299B2793279BA1
:1088B000002B05D0254A40F21121279808F0A0FD91
:1088C00001AB1822002118460EF048FE01238DF856
:1088D000193044F25063ADF8103001238DF80430A4
:1088E0000023029300238DF818304023039301AB3B
:1088F0001A4614491748FFF7EBFB2990299B26934A
:10890000269B002B05D0114A4FF40871269808F0D9
:1089100077FD104B1B78042219460120FFF7E4FB7A
:108920002990299B2593259B002B05D0074A4FF4BE
:108930000971259808F064FD00BF2BB05DF804FBB9
:1089400038650020286500202C650020A07F0300EA
:10895000346500202665002000B583B00190019B9E
:108960001B68184600F094F80346002B04D1054913
:108970004FF4F67000F0A8F84FF0A043184603B08B
:108980005DF804FB5C81030000B585B001900846EA
:1089900011461A4603468DF803300B468DF8023017
:1089A00013468DF8013001AB1846FFF7D5FF039051
:1089B0009DF803209DF802305B001A439DF80130BA
:1089C0009B001A439DF818301B0242EA03019DF8F0
:1089D0001C301B04019A1943039B02F5E07243F813
:1089E000221000BF05B05DF804FB00B585B0039010
:1089F0000023019300230093002301220121039807
:108A0000FFF7C2FF00BF05B05DF804FB00B587B0FB
:108A100003900B468DF80B309DF80B30002B0AD1DC
:108A200003980023019300230093002300220021D8
:108A3000FFF7AAFF0AE003AB1846FFF78DFF05908A
:108A4000039B01229A40059BC3F8182500BF07B07D
:108A50005DF804FB00B585B0019001AB1846FFF747
:108A60007BFF0390019B012202FA03F3194603984E
:108A700000F004F800BF05B05DF804FB82B001907F
:108A80000091019B009AC3F8082500BF02B070470F
:108A900084B00190019B5B09029300230393029B26
:108AA000002B03D14FF0FF33039300BF019B03F072
:108AB0001F030193039A019B22FA03F303F00103BE
:108AC000DBB2184604B0704700B583B0034600918E
:108AD000ADF80630BDF80630009A1946034808F094
:108AE0008FFC00BF03B05DF804FB00BFEFBEADDE3E
:108AF00000B583B04FF4804100200CF0C3FE01901C
:108B0000019B0093009B002B04D0054A3B21009859
:108B100008F076FC0CF038FE00BF03B05DF804FBF3
:108B20008C81030000B583B00CF070FA0190019BBA
:108B30000093009B002B04D0044A4721009808F0C2
:108B40005FFC00BF03B05DF804FB00BF8C81030035
:108B500000B587B004F0BAFF034683F00103DBB22F
:108B6000002B0AD004F04EFF0590059B002B04D08B
:108B70004D4A9E21059808F043FC4C4A4C4BD31AB1
:108B8000DB081B0443F003034A4918460DF050F973
:108B900001238DF8133000210B20FFF737FF002150
:108BA0000820FFF733FF01210A20FFF72FFF0121E3
:108BB0000F20FFF72BFF0E20FFF717FF01210E20DC
:108BC000FFF724FF0E20FFF745FF0920FFF70DFFF9
:108BD00001210920FFF71AFF0920FFF73BFF0223BD
:108BE0008DF8003000238DF801309DF8023023F01D
:108BF00001038DF802309DF802309DF8132062F3D6
:108C000041038DF802309DF8023023F004038DF803
:108C100002309DF8023043F001038DF8023000234A
:108C20008DF801306B46244A19460B2004F05AFF98
:108C30000390039B0293029B002B04D01A4ABB2192
:108C4000029808F0DDFB6B461B4A1946082004F029
:108C500049FF0390039B0193019B002B04D0124A10
:108C6000BE21019808F0CCFB039B002B0BD00F4AD0
:108C70000F4BD31ADB081B0443F00303039A0F497D
:108C800018460DF0E3F80DF05DF90346002BFAD11C
:108C900001210B2004F0A4FF0121082004F0A0FF13
:108CA00000BF07B05DF804FB8C810300447703002C
:108CB0000C7703001C820300CD970200388203006A
:108CC00000B583B00190019B0433184606F078FA92
:108CD00000BF03B05DF804FB00B589B005900392B6
:108CE0001A460B468DF8133013468DF812300023C8
:108CF0000793059B181D9DF812209DF813109DF8F1
:108D0000283000931346039A06F00AFD0790079B4C
:108D1000184609B05DF804FB00B587B003900192D6
:108D20001A460B468DF80B3013468DF80A30002397
:108D30000593039B181D9DF80A309DF80B10019AAE
:108D400006F016FD0590059B184607B05DF804FB7C
:108D500084B001900091019B0393009B01331A782A
:108D6000039B1A70039B0133009A12781A70009BC0
:108D7000DA1C039B023312781A70009B9A1C039B27
:108D8000033312781A70009B5A1D039B0433127828
:108D90001A70009B1A1D039B053312781A7000BFCE
:108DA00004B0704710B586B00F4B01AC0FCB84E810
:108DB0000F0001A9002300220C4803F0B1FF059029
:108DC000059B002B0DD10948FFF77AFF084A094B94
:108DD000D31ADB081B0443F00303074918460DF0C0
:108DE00027F800BF06B010BD948203004465002040
:108DF000447703000C7703006C82030000B587B052
:108E000003900B468DF80B30039B002B01D10E23F2
:108E10002CE09DF80B30032B01D9072326E0039BA0
:108E20005B799DF80B209A4201D100231EE07F233D
:108E30008DF810309DF80B301B01DBB203F03003CE
:108E4000DBB28DF81130039B1868039B197904AAD3
:108E5000002300930223FFF73FFF0590059B002BA3
:108E600003D1039B9DF80B205A71059B184607B050
:108E70005DF804FB00B583B001900B46ADF80230FD
:108E800013468DF801300DF10102BDF802100123E7
:108E9000019800F005F80346184603B05DF804FB9E
:108EA00010B598B00590039202930B46ADF81230BE
:108EB000059B002B02D0039B002B01D10E2338E031
:108EC000029B002B01D1002333E0029B402B01D9F0
:108ED00009232EE0BDF81230DB099BB2DBB203F0B0
:108EE0000303DBB219460598FFF788FF1790179B1D
:108EF000002B01D0179B1CE0BDF81230DBB203F051
:108F00007F03DBB28DF8183006AB0133029A039968
:108F100018460EF0F1FA059B1868059B1979029B1B
:108F2000DBB20133DBB206AA00240094FFF7D4FEC3
:108F30000346184618B010BD00B585B003900B4627
:108F40000192ADF80A30BDF80A100123019A039886
:108F500000F005F80346184605B05DF804FB00B5BF
:108F600089B00590039202930B46ADF81230059B31
:108F7000002B02D0039B002B01D10E2339E0029B72
:108F8000002B01D1002334E0BDF81230DB099BB285
:108F9000DBB203F00303DBB219460598FFF72EFF9F
:108FA0000790079B002B01D0079B22E0BDF81230F1
:108FB000DBB203F07F03DBB28DF81B30059B186832
:108FC000059B19790DF11B02012300930123FFF783
:108FD00083FE0790079B002B01D0079B09E0059BB0
:108FE0001868059B1979029BDBB2039AFFF794FE80
:108FF0000346184609B05DF804FB00B587B003903E
:1090000002910192039B002B02D0029B002B01D105
:109010000E231CE00C23029A2D210398FFF79FFFDB
:109020000590059B002B01D0059B10E0019B002BB8
:109030000CD0019B02991846FFF78AFE019B9A1DEE
:10904000029B063319461046FFF782FE002318469E
:1090500007B05DF804FB00B587B00390029113469A
:109060008DF80730039B002B01D10E2317E0039BE3
:10907000029A1A60039B9DF807201A71039BFF2236
:109080005A7100210398FFF7B9FE0590059B002B4C
:1090900001D0059B03E0039800F006F8034618464C
:1090A00007B05DF804FB000000B587B00190002315
:1090B0008DF8133000238DF8123000238DF8113015
:1090C000002203210198FFF7D5FE0590059B002B98
:1090D00001D0059BADE1012206210198FFF7CAFEF0
:1090E0000590059B002B01D0059BA2E100220721E2
:1090F0000198FFF7BFFE0590059B002B01D0059B53
:1091000097E1002205210198FFF7B4FE0590059B29
:10911000002B01D0059B8CE130220F210198FFF735
:10912000A9FE0590059B002B01D0059B81E1002243
:1091300010210198FFF79EFE0590059B002B01D0A2
:10914000059B76E1012211210198FFF793FE05901E
:10915000059B002B01D0059B6BE10DF113031A4613
:1091600000210198FFF7E8FE0590059B002B01D038
:10917000059B5EE19DF81330EA2B01D00B2358E1EB
:109180000DF113031A4603210198FFF7D5FE059050
:10919000059B002B01D0059B4BE19DF81330002B64
:1091A00001D00B2345E10DF113031A460621019866
:1091B000FFF7C2FE0590059B002B01D0059B38E10F
:1091C0009DF81330012B01D00B2332E10DF1130375
:1091D0001A4607210198FFF7AFFE0590059B002B6B
:1091E00001D0059B25E19DF81330002B01D00B2306
:1091F0001FE10DF113031A460F210198FFF79CFEA2
:109200000590059B002B01D0059B12E19DF81330C2
:10921000302B01D00B230CE10DF113031A46102162
:109220000198FFF789FE0590059B002B01D0059B57
:10923000FFE09DF81330002B01D00B23F9E00DF176
:1092400013031A4611210198FFF776FE0590059B3E
:10925000002B01D0059BECE09DF81330012B01D0D1
:109260000B23E6E00DF112031A4619210198FFF7CE
:1092700063FE0DF111031A461A210198FFF75CFEF7
:1092800004224FF480710198FFF7F4FD0590059BCF
:10929000002B01D0059BCCE01B2240F2011101986C
:1092A000FFF7E8FD0590059B002B01D0059BC0E072
:1092B00000224FF481710198FFF7DCFD0590059BBA
:1092C000002B01D0059BB4E04FF48063ADF80C3067
:1092D00003AA02234FF488710198FFF7E1FD05907E
:1092E000059B002B01D0059BA3E01B224FF48A7144
:1092F0000198FFF7BFFD0590059B002B01D0059B52
:1093000097E0002240F215110198FFF7B3FD059098
:10931000059B002B01D0059B8BE00DF113031A4632
:109320004FF480710198FFF707FE0590059B002B15
:1093300001D0059B7DE09DF81330042B01D00B2359
:1093400077E00DF113031A4640F201110198FFF77F
:10935000F3FD0590059B002B01D0059B69E09DF86E
:1093600013301B2B01D00B2363E00DF113031A46BE
:109370004FF481710198FFF7DFFD0590059B002BED
:1093800001D0059B55E09DF81330002B01D00B2335
:109390004FE00023ADF8083002AA02234FF4887191
:1093A0000198FFF7DCFD0590059B002B01D0059B84
:1093B0003FE09DF80830002B01D00B2339E09DF8E9
:1093C0000930042B01D00B2333E00DF113031A46AF
:1093D0004FF48A710198FFF7AFFD0590059B002BB4
:1093E00001D0059B25E09DF813301B2B01D00B23EA
:1093F0001FE00DF113031A4640F215110198FFF713
:109400009BFD0590059B002B01D0059B11E09DF86D
:109410001330002B01D00B230BE0084A084BD31A62
:10942000DB081B0443F00303064918460CF000FD5B
:109430000023184607B05DF804FB00BF4477030023
:109440000C770300A482030000B585B00190019B56
:10945000002B0AD0074B43F001030393019B9B01B0
:109460000293039B0298984700E000BF05B05DF8A7
:1094700004FB00BFD083030000B583B00190019BC3
:10948000002B0AD04FF47A70FFF7DEFF019B013BFF
:109490000193019B002BF5D100E000BF03B05DF804
:1094A00004FB000010B586B0039000238DF8173040
:1094B00023E0164A164BD31ADB081B0443F00300C3
:1094C0009DF817209DF81730124931F813301C46CB
:1094D0009DF81730104951F82330009323460F4967
:1094E0000CF0D9FC9DF817300A4A002122F813101D
:1094F0009DF8173001338DF817309DF81730012B88
:10950000D7D900BF00BF06B010BD00BF447703002D
:109510000C770300106A0020146A0020D482030034
:1095200000B587B00190334B1B7883F00103DBB2A9
:10953000002B58D1304B5B884FF6FF72934252D0CC
:109540000C23ADF81630BDF81630F022B2FBF3F361
:10955000ADF81430284BB3F82C32BDF814209A42E1
:1095600009D82548FEF752FD234BB3F82C32BDF83D
:1095700014209A4239D9204BB3F82C32BDF816206A
:1095800012FB03F3ADF81230BDF8123020331A4A43
:1095900013440433002219461848FFF72EFD0390A8
:1095A000039B002B0CD0164A164BD31ADB081B0466
:1095B00043F00203039A144918460CF047FC15E0E7
:1095C0000D4BB3F82C3201339AB20B4BA3F82C227B
:1095D000094BB3F82C32BDF814209A4206D806483D
:1095E000FEF714FD02E000BF00E000BF07B05DF829
:1095F00004FB00BFB4660020E0670020AC660020DA
:10960000447703000C7703000883030000B585B09E
:1096100008F0A6FA0390039B0293029B002B04D050
:10962000144AD021029807F0EBFE134A0121134897
:1096300008F0D4FA0390039B0193019B002B04D004
:109640000C4AD821019807F0DBFE0D4A01210D4894
:1096500008F0C4FA0390039B0093009B002B04D0F6
:10966000044ADB21009807F0CBFE00BF05B05DF88F
:1096700004FB00BF2083030021950200D082030079
:10968000A5940200CC82030000B597B02F4B119334
:109690002E4B129311AB19462D48FEF747F811AB2C
:1096A000043319462B48FEF741F800238DF8573054
:1096B0001AE09DF85730284A4FF40C7101FB03F370
:1096C00013449DF857201A709DF857304FF40C72D0
:1096D00002FB03F3204A13441846FEF7F7FB9DF8FC
:1096E000573001338DF857309DF85730002BE0D0BC
:1096F00001AB4022002118460DF030FF01AB1749A5
:10970000184602F036FB01AB08331549184602F043
:1097100030FB01AB20331249184602F02AFB01232B
:109720008DF8403001AB184602F0F0F91490149B0C
:109730001393139B002B05D00A4A40F2171113987C
:1097400007F05EFE00BF17B05DF804FBCD730200AA
:10975000B86600204C670020E06700209483030077
:10976000A08303002083030000B585B0144B0022C2
:109770004FF4A471184608F06BFA0390039B029310
:10978000029B002B05D00F4A40F22711029807F0E8
:1097900037FE0D4B00224FF48041184608F058FA6E
:1097A0000390039B0193019B002B05D0054A40F2D7
:1097B0002B11019807F024FE00BF05B05DF804FBF3
:1097C00078650020208303005865002000B583B031
:1097D00001900B468DF803301B4B1B78002B2FD0CC
:1097E000019B0B2B14D11948FDF76EFC174BB3F8F6
:1097F0009030B42B06D1154B0022A3F890201348CB
:10980000FEF77AF8124B1B8801339AB2104B1A807C
:10981000019B082B14D10F48FDF756FC0B4BB3F8F6
:109820002431B42B06D1094B0022A3F82421094886
:10983000FEF762F8064B5B8801339AB2044B5A80FC
:1098400000BF03B05DF804FBB4660020B8660020DA
:10985000106A00204C67002000B583B00120FCF79F
:10986000DDFF0520FFF708FEFDF70EF9FDF726F9ED
:1098700000238DF8073033E09DF80730942202FB77
:1098800003F31C4A134400930098FDF731F90A20B2
:10989000FFF7F2FD0098FDF75FF90098FDF728F952
:1098A0000A20FFF7E9FD0098FDF78AF90098FDF717
:1098B000EFF90098FDF7D6FA0098FDF777FB0A203C
:1098C000FFF7DAFD009B0022A3F890200CF03AFB92
:1098D0000346002BFAD19DF8073001338DF807308D
:1098E0009DF80730012BC7D90023184603B05DF857
:1098F00004FB00BFB866002000B583B000238DF8DC
:109900000730FFF7F5F8FFF781FEFFF70BF9FFF7D8
:109910001FF9FCF7E3FFFEF799FEFEF701FCFEF7E7
:1099200063FCFFF7B1FEFEF789FFFEF7A5FCFFF72A
:1099300039FA0CF007FB0346002BFAD1FFF78CFF36
:10994000154A164BD31ADB081B0443F003031449D2
:1099500018460CF06DFAFFF707FF05E020BF0CF08A
:10996000F1FA0346002BFAD10E4B1B78002BF5D1F0
:109970009DF807301846FEF741FF05E020BF0CF0C8
:10998000E1FA0346002BFAD1064B1B7883F0010362
:10999000DBB2002BF2D1E7E7447703000C7703003A
:1099A000AC830300B466002084B001900B468DF8B0
:1099B000033013468DF8023000230393019B032BE1
:1099C0003CD89DF80230012B0BD19DF80330012BC0
:1099D00004D1019BDBB20E33DBB200E000238DF833
:1099E00002309DF80330022B0FD0022B23DC002B1A
:1099F00016D0012B1FD11449019A13465B00134462
:109A00000B449DF802201A701AE00F49019A134680
:109A10005B0013440B4401339DF802201A700FE0E1
:109A20000949019A13465B0013440B4402339DF825
:109A300002201A7004E00723039301E00723039335
:109A4000039B184604B070471C6A002000B583B021
:109A5000012200210020FFF7A7FF0190019B002BAE
:109A600004D0019B072B01D0019B1CE0072202219F
:109A70000120FFF799FF0190019B002B04D0019B6F
:109A8000072B01D0019B0EE0042202210020FFF7EA
:109A90008BFF0190019B002B04D0019B072B01D071
:109AA000019B00E00023184603B05DF804FB00B5FD
:109AB00083B0012202210020FFF776FF0190019B75
:109AC000002B04D0019B072B01D0019B1CE0072237
:109AD00002210120FFF768FF0190019B002B04D0B9
:109AE000019B072B01D0019B0EE00A2200210020E0
:109AF000FFF75AFF0190019B002B04D0019B072B1D
:109B000001D0019B00E00023184603B05DF804FB80
:109B100000B585B001900091019B1B88102B02D0ED
:109B2000112B18D02FE01A4B1B68002B0DD1FFF71B
:109B30008DFF0390039B002B07D0164B1B68002B57
:109B400003D0144B1B6803989847114B1B680133D3
:109B50000F4A136017E00E4B1B68013B0C4A136061
:109B60000B4B1B68002B0DD1FFF7A1FF0390039B4C
:109B7000002B07D0074B1B68002B03D0054B1B683D
:109B80000398984700BF00BF05B05DF804FB00BF15
:109B90002C6A0020286A0020BFF34F8F00BF064BBD
:109BA000DB6803F4E0620449044B1343CB60BFF36A
:109BB0004F8F00BF00BFFDE700ED00E00400FA0595
:109BC00082B01D4B1B68B3F1FF3F0AD11B4B1B68D2
:109BD000DBB201931A4B1B681B0903F00F030093C0
:109BE00005E0154B1B680193164B1B680093019B06
:109BF000062B1DD1009B033B042B17D801A252F862
:109C000023F000BF199C02001D9C0200219C020051
:109C1000259C0200299C020001230AE0012308E0A0
:109C2000012306E0012304E0012302E0012300E018
:109C30000023184602B0704730010010E00F00F01A
:109C4000E80F00F03401001082B0174B1B68DBB244
:109C50000193164B1B681B0903F00F030093019B34
:109C6000062B1DD1009B033B042B17D801A252F8F1
:109C700023F000BF899C02008D9C0200919C020091
:109C8000959C0200999C020001230AE0002308E051
:109C9000002306E0002304E0002302E0002300E0AC
:109CA0000023184602B07047E00F00F0E80F00F004
:109CB00082B01D4B1B68B3F1FF3F0AD11B4B1B68E1
:109CC000DBB201931A4B1B681B0903F00F030093CF
:109CD00005E0154B1B680193164B1B680093019B15
:109CE000062B1DD1009B033B042B17D801A252F871
:109CF00023F000BF099D02000D9D0200119D02008E
:109D0000159D0200199D020001230AE0012308E0CD
:109D1000012306E0012304E0012302E0012300E027
:109D20000023184602B0704730010010E00F00F029
:109D3000E80F00F03401001082B0174B1B68DBB253
:109D40000193164B1B681B0903F00F030093019B43
:109D5000062B1DD1009B033B042B17D801A252F800
:109D600023F000BF799D02007D9D0200819D0200CD
:109D7000859D0200899D020001230AE0002308E07E
:109D8000002306E0002304E0002302E0002300E0BB
:109D90000023184602B07047E00F00F0E80F00F013
:109DA00082B01D4B1B68B3F1FF3F0AD11B4B1B68F0
:109DB000DBB201931A4B1B681B0903F00F030093DE
:109DC00005E0154B1B680193164B1B680093019B24
:109DD000062B1DD1009B033B042B17D801A252F880
:109DE00023F000BFF99D0200FD9D0200019E0200CC
:109DF000059E0200099E020001230AE0012308E0FB
:109E0000012306E0012304E0012302E0012300E036
:109E10000023184602B0704730010010E00F00F038
:109E2000E80F00F03401001082B0174B1B68DBB262
:109E30000193164B1B681B0903F00F030093019B52
:109E4000062B1DD1009B033B042B17D801A252F80F
:109E500023F000BF699E02006D9E0200719E020009
:109E6000759E0200799E020001230AE0002308E0AB
:109E7000002306E0002304E0002302E0002300E0CA
:109E80000023184602B07047E00F00F0E80F00F022
:109E900082B0174B1B68DBB20193164B1B681B0982
:109EA00003F00F030093019B062B1DD1009B033B86
:109EB000042B17D801A252F823F000BFD19E020054
:109EC000D59E0200D99E0200DD9E0200E19E0200A6
:109ED00001230AE0002308E0002306E0002304E059
:109EE000002302E0002300E00023184602B0704780
:109EF000E00F00F0E80F00F082B01D4B1B68B3F1DB
:109F0000FF3F0AD11B4B1B68DBB201931A4B1B6846
:109F10001B0903F00F03009305E0154B1B68019329
:109F2000164B1B680093019B062B1DD1009B033B26
:109F3000042B17D801A252F823F000BF519F020052
:109F4000559F0200599F02005D9F0200619F020021
:109F500000230AE0002308E0012306E0012304E0D7
:109F6000012302E0012300E00023184602B07047FD
:109F700030010010E00F00F0E80F00F03401001095
:109F800082B01D4B1B68B3F1FF3F0AD11B4B1B680E
:109F9000DBB201931A4B1B681B0903F00F030093FC
:109FA00005E0154B1B680193164B1B680093019B42
:109FB000062B1DD1009B033B042B17D801A252F89E
:109FC00023F000BFD99F0200DD9F0200E19F020045
:109FD000E59F0200E99F020001230AE0012308E057
:109FE000012306E0012304E0012302E0012300E055
:109FF0000023184602B0704730010010E00F00F057
:10A00000E80F00F03401001082B01D4B1B68B3F163
:10A01000FF3F0AD11B4B1B68DBB201931A4B1B6835
:10A020001B0903F00F03009305E0154B1B68019318
:10A03000164B1B680093019B062B1DD1009B033B15
:10A04000042B17D801A252F823F000BF61A0020030
:10A0500065A0020069A002006DA0020071A00200CC
:10A0600001230AE0012308E0012306E0012304E0C4
:10A07000012302E0012300E00023184602B07047EC
:10A0800030010010E00F00F0E80F00F03401001084
:10A0900082B0154B1B680193144B1B680093019B06
:10A0A000062B1DD1009B033B042B17D801A252F8AD
:10A0B00023F000BFC9A00200CDA00200D1A0020081
:10A0C000D5A00200D9A0020000230AE0002308E086
:10A0D000002306E0012304E0012302E0012300E065
:10A0E0000023184602B07047300100103401001000
:10A0F00082B0154B1B680193144B1B680093019BA6
:10A10000062B1DD1009B033B042B17D801A252F84C
:10A1100023F000BF29A102002DA1020031A10200FD
:10A1200035A1020039A1020000230AE0002308E063
:10A13000002306E0002304E0012302E0012300E005
:10A140000023184602B0704730010010340100109F
:10A1500008B5FFF7CDFF0346002B07D04FF01023C3
:10A160004FF08042D3F80832C2F8583500BF08BD1E
:10A1700000BF044BD3F80034002BFAD000BF00BF5F
:10A18000704700BF00E0014000B583B00190054A70
:10A19000019BC2F80435FFF7EBFF00BF03B05DF889
:10A1A00004FB00BF00E00140024B034A1A6000BFFD
:10A1B000704700BF986500200090D00308B5FFF7F6
:10A1C000FFFC0346002B06D0A44B1B681B0AA44AC5
:10A1D00003F01F031360FFF737FD0346002B02D087
:10A1E000A04BA14A1A60FFF763FD0346002B06D07F
:10A1F0009E4B1B685B0B9E4A03F007031360FFF73F
:10A200009BFD0346002B05D09A4BDB68994A23F04F
:10A210008073D360FFF7C4FD0346002B0ED04FF0D0
:10A2200080430022C3F80C214FF080430022C3F882
:10A2300010214FF080430022C3F83825FFF7F4FDCA
:10A240000346002B02D08C4B03221A60FFF720FE3E
:10A250000346002B0BD0894B05221A60884B012244
:10A260001A60884B00221A60874B3F221A60FFF762
:10A2700043FE0346002B76D04FF08053834AD3F839
:10A280000434C2F820354FF08053804AD3F80834A4
:10A29000C2F824354FF080537C4AD3F80C34C2F80E
:10A2A00028354FF08053794AD3F81034C2F82C3552
:10A2B0004FF08053754AD3F81434C2F830354FF05C
:10A2C0008053724AD3F81834C2F834354FF08053B3
:10A2D0006E4AD3F81C34C2F840354FF080536B4AB5
:10A2E000D3F82034C2F844354FF08053674AD3F88E
:10A2F0002434C2F848354FF08053644AD3F82834E8
:10A30000C2F84C354FF08053604AD3F82C34C2F871
:10A3100050354FF080535D4AD3F83034C2F854358D
:10A320004FF08053594AD3F83434C2F860354FF0B7
:10A330008053564AD3F83834C2F864354FF080530E
:10A34000524AD3F83C34C2F868354FF080534F4A34
:10A35000D3F84034C2F86C354FF080534B4AD3F8F1
:10A360004434C2F87035FFF70BFE0346002B05D0CE
:10A37000474B1B68474A03F04F031360FFF744FE47
:10A380000346002B0DD04FF08043D3F8003403F088
:10A390000103002B05D04FF080436FF00102C3F89A
:10A3A0000024FFF775FE0346002B05D03A4B1B68CF
:10A3B000394A43F480631360384BD3F88830374A06
:10A3C00043F47003C2F88830BFF34F8F00BFBFF370
:10A3D0006F8F00BFFFF7BCFE4FF01023D3F80C3295
:10A3E00003F00103012B13D10120FFF7CDFE4FF045
:10A3F0001023D3F80C324FF0102223F00103C2F8DF
:10A400000C32FFF7B5FE0020FFF7BEFEFFF7C4FBDE
:10A410004FF01023D3F80032002B05DB4FF0102350
:10A42000D3F80432002B15DA0120FFF7ADFE4FF010
:10A4300010231522C3F80022FFF79AFE4FF01023D5
:10A440001522C3F80422FFF793FE0020FFF79CFEBD
:10A45000FFF7A2FBFFF7A8FE00BF08BD2403001012
:10A460004035014074C007400DF0ADBA4402001001
:10A470003C050040F0ED00E0A00500401056004013
:10A4800088560040185600401456004000C0004056
:10A4900058020010E40E00403C17004000ED00E0C0
:10A4A0006DDF704700BF184679DF704700BF184660
:10A4B0007DDF704700BF184664DF704700BF184655
:10A4C00082B003460091ADF80630BDF80630DAB22E
:10A4D000009B1A70BDF806301B0A9AB2009B01332C
:10A4E000D2B21A700223184602B0704700B589B084
:10A4F000039002911346ADF80630029B1B8803F1CE
:10A500000902BDF806309A4201D90C2353E004AB8E
:10A510001846FFF7C5FF0790079B0693069B002B85
:10A5200001D0069B47E0029B1B881A46039B1344FD
:10A5300008221A70029B1B8801339AB2029B1A8070
:10A54000029B1B881A46039B13441B221A70029B12
:10A550001B8801339AB2029B1A80029B1B881A4601
:10A56000039B981804AB0133062219460CF0C4FF74
:10A57000029B1B8806339AB2029B1A809DF810300A
:10A5800023F00103DBB2002B07D1029B1B881A4684
:10A59000039B134400221A7006E0029B1B881A4694
:10A5A000039B134401221A70029B1B8801339AB249
:10A5B000029B1A800023184609B05DF804FB00B521
:10A5C00089B0039002910192ADF80230039B1B7891
:10A5D000012B05D1039B5B78002B01D1072391E070
:10A5E000019B1B889A1CBDF802309A420ED8039B2F
:10A5F0001B78012B0CD1019B1B881A46039B5B78AF
:10A6000013449A1CBDF802309A4201D90C2379E018
:10A61000019B1B88BDF80220D31A9BB2023BADF808
:10A620001C30BDF81C30ADF81230019B1B88023382
:10A63000029A13440DF1120211461846FFF738FF33
:10A640000690069B0593059B002B01D0059B59E0C6
:10A65000039B1B78022B06D0039B5B781A46BDF840
:10A6600012309A4209D3BDF81230BDF81C209A422C
:10A6700003D309238DF81F3016E008238DF81F300F
:10A68000039B1B78012B0BD1039B5B781A46BDF80B
:10A690001C30934204D3039B5B78ADF8123003E087
:10A6A000BDF81C30ADF81230BDF81230FE2B01D9C8
:10A6B0000C2327E0BDF81230DAB2019B1B88194643
:10A6C000029B0B440132D2B21A70019B1B880133EA
:10A6D0009AB2019B1A80019B1B881A46029B134465
:10A6E0009DF81F201A70019B1B8801339AB2019BB1
:10A6F0001A80019B1A88BDF8123013449AB2019B4C
:10A700001A800023184609B05DF804FB00B589B033
:10A71000039002911346ADF80630029B1B881A1D68
:10A72000BDF806309A4201D90C233AE00DF1160328
:10A730001846FFF7B9FE0790079B0693069B002B70
:10A7400001D0069B2DE0029B1B881A46039B1344F5
:10A7500003221A70029B1B8801339AB2029B1A8053
:10A76000029B1B881A46039B134419221A70029BF2
:10A770001B8801339AB2029B1A80BDF81620029BF7
:10A780001B881946039B0B4419461046FFF798FE99
:10A7900003461A46029B1B8813449AB2029B1A80F6
:10A7A0000023184609B05DF804FB84B002910192C1
:10A7B0001A4603468DF80F301346ADF80C30019B56
:10A7C0001B88DA1CBDF80C309A4201D90C2328E012
:10A7D000019B1B881A46029B134402221A70019B9C
:10A7E0001B8801339AB2019B1A80019B1B881A4671
:10A7F000029B134401221A70019B1B8801339AB2F9
:10A80000019B1A80019B1B881A46029B13449DF8EA
:10A810000F201A70019B1B8801339AB2019B1A808A
:10A820000023184604B0704784B0029101921A4682
:10A8300003468DF80F301346ADF80C30019B1B8892
:10A84000DA1CBDF80C309A4201D90C2328E0019B98
:10A850001B881A46029B134402221A70019B1B8814
:10A8600001339AB2019B1A80019B1B881A46029BF6
:10A8700013440A221A70019B1B8801339AB2019B70
:10A880001A80019B1B881A46029B13449DF80F20D7
:10A890001A70019B1B8801339AB2019B1A80002316
:10A8A000184604B0704700B58FB0039001930B4673
:10A8B0008DF80B3013468DF80A3000238DF83330B5
:10A8C000109B1B88ADF8303000230D9370E0039B84
:10A8D0005A680D9B9B001A4405AB106818600DF177
:10A8E0001B0105AB00221846FFF7E6FD0A900A9B04
:10A8F0000993099B002B01D0099B7BE09DF81B303D
:10A900009DF80A209A4250D19DF83330002B01D097
:10A91000002300E002238DF82330109B1B881A4689
:10A920009DF81B301A449DF823301A44BDF844307A
:10A930009A4201DD0C235DE09DF8333083F0010382
:10A94000DBB2002B16D0109B1B8801339AB2109BF0
:10A950001A80109B1B881A46019B13449DF80B20FC
:10A960001A70109B1B8801339AB2109B1A80012326
:10A970008DF83330109B1B881A46019B1A440DF149
:10A980001B0105AB1846FFF797FD0A900A9B07933A
:10A99000079B002B01D0079B2CE0109B1B889DF888
:10A9A0001B2013449AB2109B1A800D9B01330D9308
:10A9B000039B1B881A460D9B934288DB9DF833301E
:10A9C000002B16D0109B1A88BDF83030D31A9BB2DA
:10A9D000013BADF82E30BDF82E30FF2B01D90C23F2
:10A9E00008E0BDF83030019A1344BDF82E20D2B2F1
:10A9F0001A70002318460FB05DF804FB00B58BB049
:10AA0000059003930B468DF8133013468DF81230E2
:10AA10009DF81310BDF8343001930C9B0093039BF9
:10AA200002220598FFF73FFF0990099B0893089BB6
:10AA3000002B01D0089B14E09DF81210BDF83430B3
:10AA400001930C9B0093039B10220598FFF72BFFAB
:10AA50000990099B0793079B002B01D0079B00E0FF
:10AA6000002318460BB05DF804FB82B00190019BF7
:10AA70001B88052B0AD9019B1B88B3F5486F07D9A2
:10AA8000019B1B884FF6FF72934201D0072325E0FC
:10AA9000019B5B88052B0AD9019B5B88B3F5486F46
:10AAA00007D9019B5B884FF6FF72934201D00723C1
:10AAB00014E0019B1B884FF6FF7293420DD0019B5F
:10AAC0005B884FF6FF72934207D0019B1A88019B67
:10AAD0005B889A4201D9072300E00023184602B0A0
:10AAE000704700B587B0039002910192ADF8023033
:10AAF000019B1B889A1DBDF802309A4201D90C2394
:10AB00004BE00398FFF7B1FF0590059B0493049B6E
:10AB1000002B01D0049B40E0019B1B881A46029B3E
:10AB2000134405221A70019B1B8801339AB2019BC2
:10AB30001A80019B1B881A46029B134412221A702A
:10AB4000019B1B8801339AB2019B1A80039B1A88D0
:10AB5000019B1B881946029B0B4419461046FFF7C0
:10AB6000AFFC03461A46019B1B8813449AB2019B13
:10AB70001A80039B5A88019B1B881946029B0B4431
:10AB800019461046FFF79CFC03461A46019B1B889A
:10AB900013449AB2019B1A800023184607B05DF84F
:10ABA00004FB00B587B0039002910192ADF802302A
:10ABB000039B9B8802330593019B1B881A46059BC8
:10ABC00013449A1CBDF802309A4201D90C2353E079
:10ABD000059BFE2B01D90C234EE0059BDAB2019BAD
:10ABE0001B881946029B0B440132D2B21A70019B9A
:10ABF0001B8801339AB2019B1A80019B1B881A465D
:10AC0000029B1344FF221A70019B1B8801339AB2E6
:10AC1000019B1A80039B1A88019B1B881946029B83
:10AC20000B4419461046FFF74BFC03461A46019B9E
:10AC30001B8813449AB2019B1A80039B9B88002BAC
:10AC400019D0039B9B68002B01D1072314E0019BC3
:10AC50001B881A46029B9818039B9968039B9B8844
:10AC60001A460CF049FC019B1A88039B9B881344ED
:10AC70009AB2019B1A800023184607B05DF804FBC6
:10AC800000B589B0039002910192ADF80230039BA8
:10AC90009B6A002B01D1072371E000238DF81F3040
:10ACA00065E0039B996A9DF81F2013465B001344DF
:10ACB0009B000B440693069B9B8802330593059BE0
:10ACC000FE2B01D90C235AE0059BDAB2019B1B88AD
:10ACD0001946029B0B440132D2B21A70019B1B88A9
:10ACE00001339AB2019B1A80019B1B881A46029B72
:10ACF000134416221A70019B1B8801339AB2019BE0
:10AD00001A80069B1A88019B1B881946029B0B44DC
:10AD100019461046FFF7D4FB03461A46019B1B88D1
:10AD200013449AB2019B1A80069B9B88002B19D072
:10AD3000069B9B68002B01D1072320E0019B1B8809
:10AD40001A46029B9818069B9968069B9B881A4690
:10AD50000CF0D2FB019B1A88069B9B8813449AB285
:10AD6000019B1A809DF81F3001338DF81F30039B23
:10AD700093F82C309DF81F209A4292D30023184656
:10AD800009B05DF804FB00B595B0059004910392FD
:10AD900000231393039B1B88ADF84A30039B0022CA
:10ADA0001A80059B93F82D30002B0ED0BDF84A3049
:10ADB0001A4603990498FFF799FB1390139B11937C
:10ADC000119B002B01D0119BD8E0059B9B78002B99
:10ADD0000ED0BDF84A301A4603990498FFF796FC46
:10ADE0001390139B1093109B002B01D0109BC5E078
:10ADF000059BDB78002B10D0059BDB7858B2BDF8A3
:10AE00004A30039A0499FFF7D0FC1390139B0F93D9
:10AE10000F9B002B01D00F9BB0E0059B5B68002BC4
:10AE200011D0059B5B6893F90000BDF84A30039A86
:10AE30000499FFF7F9FC1390139B0E930E9B002BC4
:10AE400001D00E9B9AE0059B1B89002B14D0059B1B
:10AE500003F10800BDF84A300193039B0093049B63
:10AE600006220221FFF7CAFD1390139B0D930D9B41
:10AE7000002B01D00D9B81E0059B1B8A002B14D079
:10AE8000059B03F11000BDF84A300193039B00932A
:10AE9000049B07220321FFF7B1FD1390139B0C9332
:10AEA0000C9B002B01D00C9B68E0059B1B8B002B9F
:10AEB00014D0059B03F11800BDF84A300193039BA1
:10AEC0000093049B15221421FFF798FD1390139B08
:10AED0000B930B9B002B01D00B9B4FE0059B1B6A38
:10AEE000002B0FD0059B186ABDF84A30039A0499CD
:10AEF000FFF7F7FD1390139B0A930A9B002B01D0D9
:10AF00000A9B3BE0059B5B6A002B0FD0059B586AB0
:10AF1000BDF84A30039A0499FFF743FE1390139B40
:10AF20000993099B002B01D0099B27E0059B93F80F
:10AF30002C30002B0ED0BDF84A30039A04990598A6
:10AF4000FFF79EFE1390139B0893089B002B01D0E4
:10AF5000089B13E0059B1B78002B0ED0BDF84A30F0
:10AF6000039A04990598FFF72AFB1390139B079304
:10AF7000079B002B01D0079B00E0139B184615B0E0
:10AF80005DF804FB75DF704700BF184676DF704739
:10AF900000BF18467ADF704700BF18467BDF704756
:10AFA00000BF184684B00346ADF806300023039373
:10AFB00016E00F49039A13469B0013449B000B4471
:10AFC0001B88BDF806209A4207D1039A13469B00BE
:10AFD00013449B00064A134406E0039B013303938A
:10AFE000039B002BE5D00023184604B0704700BF38
:10AFF000506A002082B001900B46ADF80230019BF0
:10B00000BDF802201A80019B00221A72019B05499B
:10B0100003F10A020B4603CB1060516000BF02B07F
:10B02000704700BF806A002082B00190019B4FF6FC
:10B03000FF721A8000BF02B0704788B0039002917F
:10B0400011461A460B46ADF806301346ADF80430EB
:10B05000039B9B881A46BDF8063013440793039B55
:10B060009B881946039B9B88BDF80620934228BF06
:10B0700013469BB2CB1A0693039BDB881A46BDF896
:10B08000043013440593039BDB881946039BDB883C
:10B09000BDF80420934228BF13469BB2CB1A0493F9
:10B0A000029B5A88039B1B889A4205D3029B5A88AD
:10B0B000039B5B889A4201D900231CE0029B9B887A
:10B0C0001A46069B934205D8029B9B881A46079B0B
:10B0D000934201D200230EE0029BDB881A46049BB8
:10B0E000934205D8029BDB881A46059B934201D206
:10B0F000002300E00123184608B0704700B583B074
:10B100000190064B9B69002B03D0044B9B6901986F
:10B11000984700BF03B05DF804FB00BF646A0020DD
:10B1200000B585B003460091ADF80630BDF8063095
:10B1300000991846FFF726FF0390039B002B05D0CC
:10B14000039B112B02D00398FFF7D8FF039B002B22
:10B150000CBF01230023DBB2184605B05DF804FBE9
:10B1600000B589B00190019B0793079B9BB21846DD
:10B17000FFF718FF0690069B002B42D0069B1A7A19
:10B18000224B1B7B9A4215D2079B9AB2069B0A332D
:10B1900019461046FFF7C4FF03468DF813309DF89B
:10B1A0001330002B2DD0069B1B7A0133DAB2069B9D
:10B1B0001A7226E0069B00221A72144B1B7C002B8D
:10B1C0000FD0079B9BB23B211846FFF7DFFE05908F
:10B1D000059B002B05D0059B082B02D00598FFF797
:10B1E0008DFF0A4B5B69002B0BD000238DF80C30D0
:10B1F000079B9BB2ADF80E30044B5B6903AA104667
:10B20000984700BF09B05DF804FB00BF646A0020E6
:10B2100030B587B00190019B002B01D10E2353E084
:10B220002B4A019B14461D460FCD0FC495E807001D
:10B2300084E80700264B274A1A60019B1B68002BF5
:10B2400011D0019B1B681846FFF7A4FE0490049BD5
:10B25000002B01D0049B37E0019B1A681D4B10683E
:10B26000516803C308E01B48FFF798FE0490049B55
:10B27000002B01D0049B27E00023059320E0059AD2
:10B2800013469B0013449B00134A134403930398F3
:10B29000FFF7CAFE059B5B01104A1A44039B5A60E4
:10B2A000039B04330E4A0021184606F097FC0490D5
:10B2B000049B002B01D0032306E0059B013305937B
:10B2C000059B002BDBD00023184607B030BD00BF24
:10B2D000646A0020806A0020506A0020306A0020E2
:10B2E00061B1020000B587B003460091ADF80630A9
:10B2F000009B5B7A002B1AD1009B1B7A002B03D199
:10B30000164B5B68059302E0144B9B680593009B0A
:10B310005B68BDF806200599184606F099FC049074
:10B32000049B002B16D00498FFF7E8FE12E0009B68
:10B3300000221A72094B5B69002B0BD001238DF898
:10B340000C30BDF80630ADF80E30044B5B6903AA33
:10B350001046984700BF07B05DF804FB646A002000
:10B3600000B585B00190019BDB7B8DF80F30019B10
:10B370009B88ADF80C309DF80F30012B2CD14FF687
:10B38000FF70FFF70FFE0290029B002B03D10420F9
:10B39000FFF7B4FE21E0BDF80C3019460298FFF724
:10B3A00029FE029B03F10A00019B03F110014FF6F5
:10B3B000FF7340F2F312FFF740FE03461A46029B6A
:10B3C0005A72074BDB89002B07D1BDF80C3002996C
:10B3D0001846FFF787FF00E000BF05B05DF804FBEB
:10B3E000646A002000B587B00190019B9B88ADF88E
:10B3F0001630BDF816301846FFF7D4FD0490049BB4
:10B40000002B0ED0049B5B68184606F079FC039075
:10B41000039B002B02D00398FFF770FE0498FFF700
:10B4200003FE00BF07B05DF804FB000000B587B065
:10B430000190019B06330593059B1A88194BDB8904
:10B440009A422BD1059B5B89022B27D1019B9B88BC
:10B45000ADF81230BDF812301846FFF7A3FD039087
:10B46000039B002B1AD0059B0C33184600F06FFC91
:10B470000346002B06D0BDF8123003991846FFF79B
:10B4800031FF0BE0039B5B68184606F039FC029025
:10B49000029B002B02D00298FFF730FE00BF07B0DE
:10B4A0005DF804FB646A002000B585B00190019B43
:10B4B0009B88ADF80E30BDF80E301846FFF772FDD0
:10B4C0000290029B002B15D0029B03F10A00019B06
:10B4D00003F108014FF6FF7340F2F312FFF7ADFDE1
:10B4E00003461A46029B5A72BDF80E30029918465E
:10B4F000FFF7F8FE00BF05B05DF804FB00B583B0B0
:10B5000001900091019B1B88502B12D0502B18DC0E
:10B51000122B12D0122B14DC102B02D0112B04D0C2
:10B520000FE00198FFF71CFF0CE00198FFF75AFFAE
:10B5300008E00198FFF77AFF04E00198FFF7B4FFF5
:10B5400000E000BF00BF03B05DF804FB30B58FB072
:10B550000190009100230293009B002B1AD000233E
:10B560000D9314E06B460D99184608F068FA0346EF
:10B57000002B09D0029B5A1C02920D9A92B25B00DA
:10B5800038336B4423F82C2C0D9B01330D930D9B0A
:10B59000132BE7D9019B1D4602AC0FCC0FC50FCC76
:10B5A0000FC594E8070085E8070001980FB030BD8B
:10B5B00000B583B00346ADF80630BDF80630132B56
:10B5C00001D900230CE0BDF806301946064808F002
:10B5D00005FABDF806301946044808F0FFF90123C2
:10B5E000184603B05DF804FB906A00208C6A0020C6
:10B5F00000B585B00346ADF80630002303930DE097
:10B60000039B9B00094A13440433BDF806201146EE
:10B61000184608F0FBF9039B01330393039B1D2B92
:10B62000EED900BF00BF05B05DF804FB886A0020BA
:10B6300000B583B00346ADF80630BDF806301946B4
:10B64000034808F0E3F900BF03B05DF804FB00BF56
:10B65000906A002030B59BB0184B9B68DB43189371
:10B66000164B5A6818AB1146184608F047FA189A54
:10B670006B4611461846FFF769FF0DAC6D460FCDBE
:10B680000FC40FCD0FC495E8070084E8070000231E
:10B6900019930BE0199B5B0068336B4433F8303C23
:10B6A0001846FFF7A5FF199B013319930D9B199AB3
:10B6B0009A42EFD300BF00BF1BB030BD886A0020A4
:10B6C00000B583B001900B46ADF8023013468DF8FB
:10B6D00001309DF80130002B06D0BDF8023019462C
:10B6E000019808F07BF905E0BDF802301946019891
:10B6F00008F08CF900BF03B05DF804FB00B585B01D
:10B7000001900091019B9B88ADF80E30019B1B8836
:10B71000103B0A2B00F2838001A252F823F000BFF5
:10B720004DB7020089B702001FB802001FB802001F
:10B730001FB802001FB802001FB802001FB80200A5
:10B740001FB80200F3B7020095B70200FFF782FFAF
:10B75000BDF80E301846FFF72BFF034683F00103B8
:10B76000DBB2002B05D0304AF021042005F048FE62
:10B7700052E0019BDB7B022B4ED1BDF80E30194607
:10B780002A4808F02BF947E0BDF80E301846FFF7BD
:10B790004FFF44E0019B1B7AC3F30313DBB28DF828
:10B7A0000D309DF80D30032B8CBF01230023DAB23E
:10B7B000BDF80E3019461E48FFF782FF9DF80D3088
:10B7C000022B8CBF01230023DAB2BDF80E301946DC
:10B7D0001848FFF775FF9DF80D30012B8CBF012332
:10B7E0000023DAB2BDF80E3019461348FFF768FFA0
:10B7F00015E0019B1B7A002B10D1019B5B7AC3F3F0
:10B80000C0038DF80C309DF80C20BDF80E301946A1
:10B810000748FFF755FF01E000BF00E000BF00BF91
:10B8200005B05DF804FB00BFD8830300946A0020D4
:10B83000A06A00209C6A0020986A002082B003461B
:10B840000091ADF80630BDF80630DAB2009B1A70F0
:10B85000BDF806301B0A9AB2009B0133D2B21A70AF
:10B860000223184602B07047A8DF704700BF184691
:10B8700000B585B001900091009B002B14BF0123FF
:10B880000023DBB20393039B002B04D1354A4D21E7
:10B89000002005F0B5FD019B002B14BF0123002300
:10B8A000DBB20293029B002B04D12E4A4E210020D2
:10B8B00005F0A6FD009BD3E90023D2B2019B1A70CC
:10B8C000009BD3E900014FF000024FF00003020A91
:10B8D00042EA01620B0A01990131D3B20B70009B5D
:10B8E000D3E900014FF000024FF00003020C42EADE
:10B8F00001420B0C01990231D3B20B70009BD3E9CA
:10B9000000014FF000024FF00003020E42EA012254
:10B910000B0E01990331D3B20B70009BD3E90001E8
:10B920004FF000024FF000030A0000230199043198
:10B93000D3B20B70009B9A68019B0533D2B21A7088
:10B94000009B9B681A0A019B0633D2B21A70009BB7
:10B950009B681A0C019B0733D2B21A7000BF05B066
:10B960005DF804FB3C84030000B587B001900091B2
:10B9700000238DF81730009B002B14BF01230023F8
:10B98000DBB20493049B002B04D1314A65210020D3
:10B9900005F036FD019B002B14BF01230023DBB211
:10B9A0000393039B002B04D1294A6621002005F054
:10B9B00027FD9DF817305A1C8DF817201A46019B59
:10B9C0001344009A12781A70009B58889DF817301B
:10B9D000019A13441946FFF731FF03461A469DF8B2
:10B9E000173013448DF81730009B98889DF8173056
:10B9F000019A13441946FFF721FF03461A469DF8A2
:10BA0000173013448DF81730009BD8889DF81730F5
:10BA1000019A13441946FFF711FF03461A469DF891
:10BA2000173013448DF817309DF81730072B0CBFD3
:10BA300001230023DBB20293029B002B04D1044AB2
:10BA40006E21002005F0DCFC00BF07B05DF804FBB0
:10BA50003C84030000B58FB0029111461A4603469C
:10BA6000ADF80E300B46ADF80C3013468DF80730AC
:10BA7000029B002B14BF01230023DBB20D930D9B0F
:10BA8000002B04D11F4A8421002005F0B9FCBDF829
:10BA90000C30002B14BF01230023DBB20C930C9B52
:10BAA000002B04D1174A8521002005F0A9FC04AB26
:10BAB0002022002118460BF051FDBDF80E30ADF8E4
:10BAC0001030BDF80C30ADF81430BDF80C30ADF8C6
:10BAD0001630029B06939DF81D3043F002038DF84B
